:1000000045C0000061C000005FC000005DC000008E
:100010005BC0000059C0000057C00000BFC1000015
:1000200053C0000051C000004FC000000C94D20B20
:100030004BC00000F3C4000047C0000045C00000F2
:10004000B0C2000041C000003FC000003DC0000041
:100050000C94500A0C947A0B37C0000035C0000095
:1000600033C0000031C000002FC000002DC00000D0
:100070000C947A0A0C94A20B27C0000025C0000043
:100080006BC4000021C000001FC0000011241FBE6F
:10009000CFEFD0E4DEBFCDBF11E0A0E0B1E0E6E4F9
:1000A000F4E200E00BBF02C007900D92AE3AB10738
:1000B000D9F712E0AEEAB1E001C01D92A934B10750
:1000C000E1F724D50C9421129BCF809107018F5F1B
:1000D0008093070108951092F8011092F701109291
:1000E000F6011092F5011092F4011092F3011092B2
:1000F000F2011092F1011092F0011092EF011092B2
:10010000EE011092ED011092D4011092D3011092E1
:10011000D2011092D1011092D0011092CF01109211
:10012000CE011092CD011092CC011092CB01109211
:10013000CA011092C90108958AB1807F8AB981E00D
:1001400090E04A9902C080E090E09093F40180939F
:10015000F30181E090E04B9902C080E090E0909341
:10016000F2018093F10181E090E0489902C080E0C3
:1001700090E09093D0018093CF0181E090E0499985
:1001800002C080E090E09093CE018093CD018FE09B
:100190008093730088E08093680008959CDFCCCF43
:1001A00080E20E94A709882361F18091ED0190917E
:1001B000EE011816190634F48091ED019091EE01CC
:1001C0000A9605C08091ED019091EE010A979093F7
:1001D000EE018093ED018091C9019091CA0118163A
:1001E000190634F48091C9019091CA010A9605C09C
:1001F0008091C9019091CA010A979093CA01809396
:10020000C90188E00E94A709882301F160E070E03D
:1002100080E090E00E947E0988EC90E00E94190C3A
:100220008091ED019091EE019195819591099093C6
:10023000EE018093ED018091C9019091CA019195E1
:10024000819591099093CA018093C90184E00E942D
:10025000A709882361F18091ED019091EE011816B4
:10026000190634F48091ED019091EE010A9705C0D2
:100270008091ED019091EE010A969093EE018093AA
:10028000ED018091C9019091CA011816190634F444
:100290008091C9019091CA010A9705C08091C90156
:1002A0009091CA010A969093CA018093C9018091E6
:1002B000ED019091EE018F3F910519F014F08FEF51
:1002C00090E081302FEF920714F481E09FEF90933C
:1002D000EE018093ED018091C9019091CA018F3F99
:1002E000910519F014F08FEF90E081302FEF920715
:1002F00014F481E09FEF9093CA018093C90160914B
:10030000C9017091CA018091ED019091EE01F6D77B
:1003100082E390E00E94190C60E080E085D5609156
:10032000EF017091F001882777FD8095982F5DD5BA
:1003300081E691E004D56091ED017091EE0188278E
:1003400077FD8095982F51D582E691E0F8D461E051
:1003500080E06AD56091E7017091E801882777FD18
:100360008095982F42D581E691E0E9D46091DB0138
:100370007091DC01882777FD8095982F36D582E62D
:1003800091E0DDD46091DD017091DE01882777FD79
:100390008095982F2AD582E691E0D1C41F920F92C2
:1003A0000FB60F9211240BB60F922F933F934F93DA
:1003B0005F936F937F938F939F93AF93EF93FF938D
:1003C00081E090E04A9902C080E090E09093F801CB
:1003D0008093F70181E090E04B9902C080E090E0CB
:1003E0009093F6018093F50181E090E0489902C076
:1003F00080E090E09093D4018093D30181E090E07D
:10040000499902C080E090E09093D2018093D1019D
:100410002091F7013091F8018091F1019091F20162
:100420004091F5015091F601A42F4091F3015091B4
:10043000F401F42F4091D3015091D401E42F409165
:10044000CD015091CE01742F4091D1015091D20134
:10045000642F4091CF015091D001342F281749F0DB
:100460008091EF019091F00101969093F0018093BB
:10047000EF01AF1749F08091EF019091F0010197E2
:100480009093F0018093EF01E71749F08091CB0141
:100490009091CC0101969093CC018093CB0163178E
:1004A00049F08091CB019091CC0101979093CC01C0
:1004B0008093CB018091F7019091F8019093F40122
:1004C0008093F3018091F5019091F6019093F201F0
:1004D0008093F1018091D3019091D4019093D00148
:1004E0008093CF018091D1019091D2019093CE0160
:1004F0008093CD01FF91EF91AF919F918F917F916B
:100500006F915F914F913F912F910F900BBE0F9084
:100510000FBE0F901F9018958091E7019091E80110
:1005200097FF03C091958195910940974CF4809174
:10053000D9019091DA0101969093DA018093D90163
:100540002091D9013091DA01E091DF01F091E001D1
:10055000EE0FFF1FE85FFE4F8081918182179307A6
:10056000BCF41092DA011092D9018091DF019091D0
:10057000E00101969093E0018093DF018091DF011B
:100580009091E0010A9724F01092E0011092DF01AF
:100590008091D9019091DA019093EC018093EB0165
:1005A00008951F920F920FB60F9211240BB60F925F
:1005B000CF92DF92EF92FF920F931F932F933F936F
:1005C0004F935F936F937F938F939F93AF93BF935B
:1005D000CF93DF93EF93FF93C091EF01D091F001A0
:1005E0002091EF013091F0018091E9019091EA01B1
:1005F000281B390B40EA5CE8249FC001259F900D21
:10060000349F900D112469EC78E00E942F0C88270C
:1006100077FD8095982F0E94CE0C6093D501709342
:10062000D6018093D7019093D801D093EA01C0936B
:10063000E9018091EF019091F001E091DF01F091EB
:10064000E001EE0FFF1FE45EFE4F20813181821B2F
:10065000930B9093E8018093E7018091EF019091D3
:10066000F0012091E5013091E601821B930B9093FC
:10067000DE018093DD018091DB019091DC0120910E
:10068000E7013091E801820F931F9093DC01809382
:10069000DB016091E7017091E8010091DB011091AD
:1006A000DC01C091DD01D091DE01882777FD8095C6
:1006B000982F0E94CE0C2DEC3CEC4CE45EE30E94A3
:1006C000320D0E949B0C6B017C01B801882777FDDD
:1006D0008095982F0E94CE0C26EA3BE944EC5AE321
:1006E0000E94320D0E949B0CC60ED71EBE018827A9
:1006F00077FD8095982F0E94CE0C20E030E040EAF4
:1007000050E40E94320D0E949B0CC61AD70AD09268
:10071000EE01C092ED018091EF019091F001909374
:10072000E6018093E501F8DEFF91EF91DF91CF9133
:10073000BF91AF919F918F917F916F915F914F91F9
:100740003F912F911F910F91FF90EF90DF90CF90ED
:100750000F900BBE0F900FBE0F901F90189586172D
:1007600097072CF0481759071CF4CA010895CB01CC
:10077000089597FF03C09195819591090895E0EB45
:10078000F0E082E8808384E08083089580913001E6
:100790008F5F80933001089511B81AB811B80A9A82
:1007A000559A089A129A5D9A109A28EC30E01092A5
:1007B0001B0210921C0210921D0210921E028091C8
:1007C0001B0290911C02A0911D02B0911E028C3B55
:1007D0009541A105B105A0F480911B0290911C02E6
:1007E000A0911D02B0911E020196A11DB11D809322
:1007F0001B0290931C02A0931D02B0931E02DFCF38
:10080000215031092115310591F612985D98109803
:100810001092B3011092B4011092B5011092B6017A
:100820001092B7011092B8011092B9011092BA015A
:100830001092AF011092B0011092B1011092B2016A
:1008400008950F931F93CF93C82F9B0177FF05C087
:1008500084E691E00E943F0F7BC0CB0164E670E02C
:10086000FED78901081B190B1F930F932FE731E067
:100870003F932F930E942E0F0F900F900F900F9089
:10088000C23519F0C13409F05DC00115110511F42C
:100890000A9801C00A9A1093060100930501C93510
:1008A00029F40115110531F4089805C0C13409F087
:1008B0004CC0F7CF089A1093020100930101C7348E
:1008C00029F40115110531F455980BC0C13409F014
:1008D0003FC0F7CF559A013A8FE0180714F000EAAD
:1008E0001FE010930401009303011016110684F514
:1008F000B80180E090E00E94CC0C21E73DE34CE998
:1009000051E40E94320D0E94A00C70938900609304
:10091000880080918800909189009F938F938091A7
:1009200004018F93809103018F9380EA91E09F935C
:100930008F930E942E0F0F900F900F900F900F909B
:100940000F9006C0C93509F4ACCFC73409F4B9CF4C
:10095000CF911F910F9108951F920F920FB60F9292
:1009600011240F931F932F933F935F936F937F9364
:100970008F939F93AF93BF930091C1011091C201D8
:100980002091C3013091C4010F5F1F4F2F4F3F4F84
:100990000093C1011093C2012093C3013093C4019D
:1009A000809101019091020164E670E044D7CB018F
:1009B000A0E0B0E0081719072A073B07F8F082B15A
:1009C00091E0892782B98091AF019091B001A09107
:1009D000B101B091B2010196A11DB11D8093AF018B
:1009E0009093B001A093B101B093B2011092C101F4
:1009F0001092C2011092C3011092C401BF91AF9135
:100A00009F918F917F916F915F913F912F911F9156
:100A10000F910F900FBE0F901F9018951F920F927D
:100A20000FB60F9211248F939F93AF93BF93809132
:100A3000B3019091B401A091B501B091B6010196B6
:100A4000A11DB11D8093B3019093B401A093B50192
:100A5000B093B601BF91AF919F918F910F900FBE50
:100A60000F901F901895809131018F5F8093310115
:100A7000089582E884BD84E085BD8EE487BD82E070
:100A800080936E001092BD011092BE011092BF01C2
:100A90001092C00180E8809390008BE080939100D9
:100AA00082E19AE79093990080939800E1E7F0E063
:100AB0008081826080831092C1011092C2011092E5
:100AC000C3011092C40180E4809380008DE0809384
:100AD0008100609103017091040180E090E05CD797
:100AE00021E73DE34CE951E4BDD72AD77093890053
:100AF0006093880081E090E090938B0080938A005F
:100B0000EFE6F0E0808182608083089547DBD8D2F1
:100B1000B0DF00D1789444DBFECF80E090E0089510
:100B200081E090E06F9364E06A95F1F76F9101972F
:100B3000C9F708950F931F93CF93DF9317B13D9893
:100B40002898299AC0E0D0E0EBDF2A9AE9DF06B1C5
:100B50002A98E6DF2A9AE4DF2A98249605FF10C037
:100B60009E0140E050E08091FD019091FE01A09136
:100B7000FF01B0910002281739074A075B0720F3ED
:100B80009E0140E050E08091FD019091FE01A09116
:100B9000FF01B0910002281739074A075B0728F0C8
:100BA00082E390E0A0E0B0E004C080E395E7A0E03D
:100BB000B0E08093FD019093FE01A093FF01B093FC
:100BC000000217B9DF91CF911F910F91089528B1BD
:100BD00090E08F709070880F991F880F991F237C69
:100BE000282B28B92A9A9CDF2A989ACFA2E0B0E055
:100BF000EBEFF5E076C6182F4A83698357D09ADF6A
:100C0000F7B008B1299869814A81662311F0289AC2
:100C100001C0289887B18C6387B9413021F0812FBA
:100C200082958F70D4DF812F8F70D1DFF7B808B92C
:100C30002296E5E072C660E042E0D8CF61E042E093
:100C4000D5CF60E041E0D2CF3D98459A80E395E76B
:100C5000A0E0B0E08093FD019093FE01A093FF011E
:100C6000B0930002209A219A229A8EE190E0E1D579
:100C700083E0E7DF86E090E0DCD583E0E2DF82E03E
:100C800090E0D7D583E0DDDF82E090E0D2D582E04E
:100C9000D8DF82E090E0CDD588E2CDDF88E0CBDF01
:100CA00081E0C9DF86E0C7DF8CE0C5CF809101021B
:100CB000882321F481E080930102C6CF089581E06A
:100CC000BADF8091F9019091FA01009711F1A0E04B
:100CD000B0E208C0E091F901F091FA01E20FF31FD0
:100CE000B083AF5F2A2F30E08091330190E001970D
:100CF0006091340170E0869FA001879F500D969F00
:100D0000500D1124241735072CF31092FC0110927A
:100D1000FB010895D4CF0895EF92FF92CF93DF9314
:100D2000E82EE7017E01F92EE70101C087DF8991F6
:100D30008823E1F7DF91CF91FF90EF900895ECCFFA
:100D40000895AAE0B0E0E6EAF6E0C6C59B01AC0172
:100D50001AE06AE0C62ED12CE12CF12C5E01089439
:100D6000A11CB11C022FCA01B901A70196018AD5A5
:100D70001150F501E10FF11D005D922F990F892FA0
:100D8000880F880F890F081B008321153105410545
:100D9000510541F707C0F601E10FF11D80814EDFDB
:100DA0001F5F04C06E010894C11CD11C1A3098F357
:100DB0002A96EAE0ADC5EF92FF920F931F937B0155
:100DC0008C0197FF0AC010950095F094E094E11C07
:100DD000F11C011D111D8DE231DFC801B701B1DF2A
:100DE0001F910F91FF90EF900895E5CF0895A5E032
:100DF000B0E0ECEFF6E077C5182F80E8898380EC4F
:100E00008A8384E98B8384ED8C83FE01E60FF11DD8
:100E10008181810F6D830FDF1093FC016D816093E1
:100E2000FB012596E3E07BC5E2CF0895A0E0B0E0AA
:100E3000EBE1F7E053C5D82E8091F9019091FA01CA
:100E4000009709F4F2C02D2D2A3009F442C0283051
:100E5000C9F48091FC0181508093FC018F3F51F4D3
:100E60008091FB0181508093FB018091340181507E
:100E70008093FC018091FB018F3F09F0D1C010925B
:100E8000FB01CCC08D2DDADE8091FB018823B9F007
:100E900090E001974091340150E0849F9001859F3C
:100EA000300D949F300D11248091FC01E091F901E7
:100EB000F091FA01E20FF31FE80FF11DD08280914B
:100EC000FC018F5F8093FC0190913401891709F038
:100ED000ACC04091FB01242F30E08091330190E0C1
:100EE00001972817390709F096C0C0E0D0E03FC04D
:100EF00080E06C2F7CDFCC248E010F5F1F4F32C04F
:100F0000EC2CFF2430E0C29FC001C39F900DD29F04
:100F1000900D1124E091F901F091FA01EE0DFF1D01
:100F2000E80FF91F80818ADE8091F9019091FA0122
:100F30002091340130E0C29FF001C39FF00DD29F99
:100F4000F00D11248E0D9F1DE80FF91F029FD00197
:100F5000039FB00D129FB00D1124A80FB91F8C91E3
:100F60008083C39420913401C21650F2E80160914D
:100F70003301862F90E00297C817D9070CF4B8CF39
:100F80006230D0F1625080E032DF00E010E230C029
:100F9000C02FD0E08091330190E0029750E0849F11
:100FA0009001859F300D949F300D1124E091F9013F
:100FB000F091FA01EC0FFD1FE20FF31F80813EDE7E
:100FC0008091330190E002974091340150E0849F7A
:100FD0009001859F300D949F300D1124E091F9010F
:100FE000F091FA01EC0FFD1FE20FF31F10830F5F6A
:100FF00040913401041760F260913301615080E048
:10100000F6DE10E003C080E219DE1F5F809134013C
:101010001817C8F303C04F5F4093FB011092FC0107
:101020008091FC016091FB01E2DE2D2D332727FD2D
:101030003095C901CDB7DEB7E8E06CC48091F90105
:101040009091FA01009709F030D62091330130E0F9
:10105000215030408091340190E0AC01249FC001C8
:10106000259F900D349F900D112487D59093FA0100
:101070008093F901009719F1A0E0B0E208C0E09177
:10108000F901F091FA01E20FF31FB083AF5F2A2F4D
:1010900030E08091330190E001976091340170E07D
:1010A000869FA001879F500D969F500D11242417F5
:1010B00035072CF386E197E06DE875E085C6089565
:1010C000BDCF0895FC011182108213821282158215
:1010D00014821682683068F489E290E091838083FC
:1010E0008BE290E0938382838AE290E0958384830D
:1010F00023C0603180F483E290E09183808385E2B5
:1011000090E09383828384E290E09583848370E00F
:101110006850704011C06831C0F486E290E091835D
:10112000808388E290E09383828387E290E09583D6
:10113000848370E06051704081E090E002C0880FCD
:10114000991F6A95E2F7868308956032C0F480E2C1
:1011500090E09183808382E290E09383828381E2B6
:1011600090E0958384832FE130E0261B310981E0F4
:1011700090E002C0880F991F2A95E2F786830895B0
:10118000FC01A481B5818681662321F09C91982B76
:101190009C9308959C91809589238C930895FC01DC
:1011A0006F3F31F4A281B3818C91968189270CC065
:1011B000A281B3818681662321F09C91982B9C9318
:1011C00008959C91809589238C930895A7E0B0E0C1
:1011D000EBEEF8E086C3282FF62E8E010F5F1F4F2F
:1011E000C801622F6FDFC8016F2DD9DFC80161E030
:1011F000C7DF2796E5E091C383E08093B00082E0EB
:101200008093B100E4EBF0E0108280818093B30022
:1012100087E160E0DBDF86E160E0D8DF87E060E067
:10122000D5DF86E060E0D2CF80910202882321F4EE
:1012300081E080930202E0CF0895CF93DF93EC0129
:10124000F3DFD7FF05C0D095C195DF4F91E001C016
:1012500090E0CF3FD10519F014F0CFEFD0E0C0936C
:10126000B300209731F48091B0008F778093B00065
:101270000DC08091B00080688093B000992319F070
:1012800087E161E002C087E160E0A0DFDF91CF91FC
:101290000895CF93DF93EC01C7DFD7FF05C0D0954A
:1012A000C195DF4F91E001C090E0CF3FD10519F02B
:1012B00014F0CFEFD0E0C093B400209731F48091C8
:1012C000B0008F7D8093B0000DC08091B00080622F
:1012D0008093B000992319F086E161E002C086E1B5
:1012E00060E074DFDF91CF910895CF93DF93EB013E
:1012F000A4DFCE01CEDFDF91CF910895F6CF089520
:1013000087B1837D87B988B18C6288B985E090E028
:101310006F9364E06A95F1F76F910197C9F70895AB
:1013200080910302882321F481E080930302E8CFB7
:101330000895A1E0B0E0EEE9F9E0D6C28983F0DFDC
:1013400096B19095898189232196E2E0E9C2F1CF97
:101350000895282F30E0F901EE0FFF1FB3E0220FB0
:10136000331FBA95E1F7E20FF31FEB5CFE4F4085A8
:1013700051854115510509F452C0282F30E0F9017B
:10138000EE0FFF1F73E0220F331F7A95E1F7E20F94
:10139000F31FEB5CFE4F7281282F30E0F901EE0F56
:1013A000FF1FB3E0220F331FBA95E1F7E20FF31FDF
:1013B000EB5CFE4F9481791790F5282F30E0F9010E
:1013C000EE0FFF1F73E0220F331F7A95E1F7E20F54
:1013D000F31FEB5CFE4F9281490F511DFA016083B0
:1013E000282F30E0F901EE0FFF1F53E0220F331FCB
:1013F0005A95E1F7E20FF31FEB5CFE4F92819F5F7E
:10140000282F30E0F901EE0FFF1FB3E0220F331F4A
:10141000BA95E1F7E20FF31FEB5CFE4F9283282FA2
:1014200030E0F901EE0FFF1F73E0220F331F7A95B2
:10143000E1F7E20FF31FEB5CFE4F4281282F30E013
:10144000F901EE0FFF1F53E0220F331F5A95E1F70A
:10145000E20FF31FEB5CFE4F9481491701F5282F33
:1014600030E0F901EE0FFF1F93E0220F331F9A9532
:10147000E1F7E20FF31FEB5CFE4F9581992379F0C2
:10148000282F30E0F901EE0FFF1FB3E0220F331FCA
:10149000BA95E1F7E20FF31FEB5CFE4F128208955D
:1014A0001F920F920FB60F920BB60F9211242F932B
:1014B0003F934F935F936F937F938F939F93AF93DC
:1014C000BF93EF93FF936091C60080E042DFFF91EE
:1014D000EF91BF91AF919F918F917F916F915F91AC
:1014E0004F913F912F910F900BBE0F900FBE0F9019
:1014F0001F9018951F920F920FB60F920BB60F9276
:1015000011242F933F934F935F936F937F938F9308
:101510009F93AF93BF93EF93FF936091CE0081E0D1
:1015200018DFFF91EF91BF91AF919F918F917F91C4
:101530006F915F914F913F912F910F900BBE0F9044
:101540000FBE0F901F901895882319F4E1ECF0E07E
:1015500002C0E9ECF0E080818062808308958823F6
:1015600019F4E1ECF0E002C0E9ECF0E080818F7D5D
:1015700080830895282F30E0F901EE0FFF1F93E0DC
:10158000220F331F9A95E1F7E20FF31FEB5CFE4F3A
:10159000268137812115310591F1282F30E0F9019D
:1015A000EE0FFF1FA3E0220F331FAA95E1F7E20F12
:1015B000F31FEB5CFE4F4181282F30E0F901EE0F65
:1015C000FF1F63E0220F331F6A95E1F7E20FF31F5D
:1015D000EB5CFE4F9381491790F4282F30E0F9011E
:1015E000EE0FFF1F43E0220F331F4A95E1F7E20F92
:1015F000F31FEB5CFE4F9081992309F4A5CFAFCF89
:10160000282F30E0F901EE0FFF1F73E0220F331F88
:101610007A95E1F7E20FF31FEB5CFE4F46815781AD
:101620004115510509F465C0282F30E0F901EE0F8E
:10163000FF1F93E0220F331F9A95E1F7E20FF31F8C
:10164000EB5CFE4F6181282F30E0F901EE0FFF1FA8
:10165000A3E0220F331FAA95E1F7E20FF31FEB5C23
:10166000FE4F9381691708F044C0882319F4E0EC19
:10167000F0E002C0E8ECF0E0908195FF3AC08823EA
:1016800019F4A6ECB0E002C0AEECB0E0282F30E0D8
:10169000F901EE0FFF1F63E0220F331F6A95E1F798
:1016A000E20FF31FEB5CFE4F9181490F511DFA01D0
:1016B00090819C93282F30E0F901EE0FFF1F93E0FB
:1016C000220F331F9A95E1F7E20FF31FEB5CFE4FF9
:1016D00091819F5F282F30E0F901EE0FFF1FA3E0FB
:1016E000220F331FAA95E1F7E20FF31FEB5CFE4FC9
:1016F000918340CF1F920F920FB60F920BB60F92AD
:1017000011242F933F934F935F936F937F938F9306
:101710009F93AF93BF93EF93FF9380E071DFFF91AF
:10172000EF91BF91AF919F918F917F916F915F9159
:101730004F913F912F910F900BBE0F900FBE0F90C6
:101740001F9018951F920F920FB60F920BB60F9223
:1017500011242F933F934F935F936F937F938F93B6
:101760009F93AF93BF93EF93FF9381E049DFFF9186
:10177000EF91BF91AF919F918F917F916F915F9109
:101780004F913F912F910F900BBE0F900FBE0F9076
:101790001F9018956F9364E06A95F1F76F91019728
:1017A000C9F708952F928F939F932FB680911102BE
:1017B000909112020196809311029093120290E090
:1017C00080911302891F80931302909119029C5FEC
:1017D000909319028091180280519742C0F0909323
:1017E00019028093180280911402909115020196BB
:1017F000809314029093150290E080911602891F45
:101800008093160280911702891F809317022FBEC2
:101810009F918F912F901895CF93DF93EC0104C087
:1018200088EE93E0B7DF21972097D1F7DF91CF9132
:101830000895F2CF0895AA1BBB1B51E107C0AA1F50
:10184000BB1FA617B70710F0A61BB70B881F991F61
:101850005A95A9F780959095BC01CD01089597FB05
:10186000072E16F4009406D077FD08D0E4DF07FCBD
:1018700005D03EF4909581959F4F089570956195A0
:101880007F4F0895A1E21A2EAA1BBB1BFD010DC0BC
:10189000AA1FBB1FEE1FFF1FA217B307E407F50720
:1018A00020F0A21BB30BE40BF50B661F771F881FFC
:1018B000991F1A9469F760957095809590959B0192
:1018C000AC01BD01CF0108952F923F924F925F92DC
:1018D0006F927F928F929F92AF92BF92CF92DF9240
:1018E000EF92FF920F931F93CF93DF93CDB7DEB7A5
:1018F000CA1BDB0B0FB6F894DEBF0FBECDBF099439
:101900002A88398848885F846E847D848C849B848F
:10191000AA84B984C884DF80EE80FD800C811B819D
:10192000AA81B981CE0FD11D0FB6F894DEBF0FBECC
:10193000CDBFED01089504D06894B1118DC0089514
:1019400070D088F09F5790F0B92F9927B751A0F029
:10195000D1F0660F771F881F991F1AF0BA95C9F743
:1019600012C0B13081F077D0B1E0089574C0672F14
:10197000782F8827B85F39F0B93FCCF386957795F3
:101980006795B395D9F73EF49095809570956195DC
:101990007F4F8F4F9F4F0895E89409C097FB3EF407
:1019A00090958095709561957F4F8F4F9F4F9923AC
:1019B000A9F0F92F96E9BB279395F695879577952A
:1019C0006795B795F111F8CFFAF4BB0F11F460FFEA
:1019D0001BC06F5F7F4F8F4F9F4F16C0882311F042
:1019E00096E911C0772321F09EE8872F762F05C056
:1019F000662371F096E8862F70E060E02AF09A95F1
:101A0000660F771F881FDAF7880F9695879597F9E5
:101A1000089557FD9058440F551F59F05F3F71F0DE
:101A20004795880F97FB991F61F09F3F79F0879545
:101A30000895121613061406551FF2CF4695F1DFCE
:101A400008C0161617061806991FF1CF869571055E
:101A5000610508940895E894BB2766277727CB0192
:101A600097F908950BD078C069D028F06ED018F09F
:101A7000952309F05AC05FC01124EECFCADFA0F34E
:101A8000959FD1F3950F50E0551F629FF001729F13
:101A9000BB27F00DB11D639FAA27F00DB11DAA1F32
:101AA000649F6627B00DA11D661F829F2227B00D7F
:101AB000A11D621F739FB00DA11D621F839FA00D0A
:101AC000611D221F749F3327A00D611D231F849F5A
:101AD000600D211D822F762F6A2F11249F575040B1
:101AE0008AF0E1F088234AF0EE0FFF1FBB1F661F4C
:101AF000771F881F91505040A9F79E3F510570F005
:101B000014C0AACF5F3FECF3983EDCF3869577953F
:101B10006795B795F795E7959F5FC1F7FE2B880FFF
:101B2000911D9695879597F9089597F99F6780E895
:101B300070E060E008959FEF80EC089500240A941F
:101B40001616170618060906089500240A94121698
:101B50001306140605060895092E0394000C11F4CB
:101B6000882352F0BB0F40F4BF2B11F460FF04C078
:101B70006F5F7F4F8F4F9F4F0895CF93DF938230DA
:101B8000910510F482E090E0E0914102F091420270
:101B900020E030E0A0E0B0E0309739F140815181A1
:101BA00048175907B8F04817590771F48281938193
:101BB000109729F013969C938E9312972CC09093B4
:101BC00042028093410227C02115310531F04217AE
:101BD000530718F0A901DB0101C0EF019A01BD0113
:101BE000DF010280F381E02DD7CF21153105F9F017
:101BF000281B390B2430310580F48A819B816115C3
:101C0000710521F0FB019383828304C0909342020B
:101C100080934102FE01329644C0FE01E20FF31FA1
:101C20008193919322503109398328833AC02091BE
:101C30003F0230914002232B41F420915D0130910D
:101C40005E013093400220933F0220915B0130916E
:101C50005C012115310541F42DB73EB740915F017C
:101C600050916001241B350BE0913F02F09140023E
:101C7000E217F307A0F42E1B3F0B2817390778F063
:101C8000AC014E5F5F4F2417350748F04E0F5F1FC2
:101C90005093400240933F028193919302C0E0E051
:101CA000F0E0CF01DF91CF910895CF93DF930097BC
:101CB00009F487C0FC01329713821282C09141025D
:101CC000D0914202209781F420813181280F391F61
:101CD00080913F02909140028217930779F5F0932B
:101CE0004002E0933F026DC0DE0120E030E0AE171D
:101CF000BF0750F412964D915C9113979D014115C9
:101D0000510509F1DA01F3CFB383A28340815181F8
:101D1000840F951F8A179B0771F48D919C911197E1
:101D2000840F951F02969183808312968D919C91CA
:101D30001397938382832115310529F4F09342028E
:101D4000E09341023EC0D9011396FC93EE931297A3
:101D50004D915D91A40FB51FEA17FB0779F48081BF
:101D60009181840F951F0296D90111969C938E93B1
:101D70008281938113969C938E931297E0E0F0E01A
:101D80008A819B81009719F0FE01EC01F9CFCE0109
:101D9000029628813981820F931F20913F02309152
:101DA00040022817390769F4309729F4109242024B
:101DB0001092410202C013821282D0934002C0935B
:101DC0003F02DF91CF9108950F931F93CF93DF933D
:101DD000EC018B01009731F46115710519F480E075
:101DE00090E037C06EE070E081E090E063D2FC01EB
:101DF0000097A9F380E883830115110571F013871B
:101E0000028781E883838091430290914402892B69
:101E100021F4F0934402E09343022097C9F0D18764
:101E2000C0878381826083838091450290914602BE
:101E3000892B71F4F0934602E093450280914702AA
:101E400090914802892B21F4F0934802E0934702D5
:101E5000CF01DF91CF911F910F910895CF93DF9321
:101E6000CDB7DEB7FE01359661917191AF018091DA
:101E700045029091460230D0DF91CF9108950F93A3
:101E80001F93CF93DF93E0914502F09146022381A7
:101E900021FF1BC0EC0100E010E089916091450238
:101EA00070914602DB011896ED91FC9119978823F9
:101EB00031F00995892B89F30FEF1FEFEECF8AE000
:101EC0000995892B11F4C80102C08FEF9FEFDF91B4
:101ED000CF911F910F9108952F923F924F925F9251
:101EE0006F927F928F929F92AF92BF92CF92DF922A
:101EF000EF92FF920F931F93CF93DF93CDB7DEB78F
:101F00002C970FB6F894DEBF0FBECDBF7C016B01DE
:101F10008A01FC0117821682838181FFB0C1CE0144
:101F200001964C01F7019381F60193FD859193FF92
:101F300081916F01882309F49EC1853239F493FDA4
:101F4000859193FF81916F01853221F4B70190E073
:101F5000E8D1E8CF512C312C20E02032A0F48B3294
:101F600069F030F4803259F0833269F420612CC07A
:101F70008D3239F0803339F4216026C0226024602C
:101F800023C0286021C027FD27C030ED380F3A302C
:101F900078F426FF06C0FAE05F9E300D1124532E20
:101FA00013C08AE0389E300D1124332E20620CC0FD
:101FB0008E3221F426FD5FC1206406C08C3611F4F8
:101FC000206802C0883641F4F60193FD859193FFA5
:101FD00081916F018111C1CF982F9F7D95549330CE
:101FE00028F40C5F1F4FFFE3F9830DC0833631F0F7
:101FF000833771F0833509F057C021C0F801808123
:1020000089830E5F1F4F44244394512C540114C004
:102010003801F2E06F0E711CF801A080B18026FF3C
:1020200003C0652D70E002C06FEF7FEFC5012C8704
:102030006DD12C0183012C852F77222E16C03801FB
:10204000F2E06F0E711CF801A080B18026FF03C082
:10205000652D70E002C06FEF7FEFC5012C8744D182
:102060002C012C852068222E830123FC19C0832D8E
:1020700090E048165906A0F4B70180E290E051D1F3
:102080003A94F5CFF50127FC859127FE81915F01F8
:10209000B70190E046D131103A94F1E04F1A51085F
:1020A0004114510479F7DEC0843611F0893631F5D8
:1020B000F80127FF07C060817181828193810C5FE5
:1020C0001F4F08C060817181882777FD8095982F08
:1020D0000E5F1F4F2F76B22E97FF09C09095809507
:1020E000709561957F4F8F4F9F4F2068B22E2AE0E9
:1020F00030E0A40148D1A82EA81843C0853729F4A0
:102100002F7EB22E2AE030E025C0F22FF97FBF2EBD
:102110008F36C1F018F4883579F0ADC0803719F0EA
:10212000883721F0A8C02F2F2061B22EB4FE0DC039
:102130008B2D8460B82E09C024FF0AC09F2F9660A3
:10214000B92E06C028E030E005C020E130E002C032
:1021500020E132E0F801B7FE07C060817181828121
:1021600093810C5F1F4F06C06081718180E090E019
:102170000E5F1F4FA40107D1A82EA818FB2DFF77D3
:10218000BF2EB6FE0BC02B2D2E7FA51450F4B4FE2F
:102190000AC0B2FC08C02B2D2E7E05C07A2C2B2D38
:1021A00003C07A2C01C0752C24FF0DC0FE01EA0D7E
:1021B000F11D8081803311F4297E09C022FF06C001
:1021C0007394739404C0822F867809F0739423FD6E
:1021D00012C020FF06C05A2C731418F4530C571861
:1021E000732C731460F4B70180E290E02C8799D0CF
:1021F00073942C85F6CF731410F4371801C0312C6A
:1022000024FF11C0B70180E390E02C878AD02C8591
:1022100022FF16C021FF03C088E590E002C088E7D6
:1022200090E0B7010CC0822F867851F021FD02C0EA
:1022300080E201C08BE227FD8DE2B70190E071D012
:10224000A51430F4B70180E390E06BD05A94F8CF36
:10225000AA94F401EA0DF11D8081B70190E061D0EC
:10226000A110F6CF332009F45DCEB70180E290E0F3
:1022700058D03A94F7CFF7018681978102C08FEF4B
:102280009FEF2C960FB6F894DEBF0FBECDBFDF9147
:10229000CF911F910F91FF90EF90DF90CF90BF9063
:1022A000AF909F908F907F906F905F904F903F90F6
:1022B0002F9008950F931F93CF93DF93869F8001F4
:1022C000879F100D969F100D1124C80156DCEC015C
:1022D000009721F0A80160E070E011D0CE01DF91FD
:1022E000CF911F910F910895FC01059061507040AE
:1022F0000110D8F7809590958E0F9F1F0895DC01EF
:1023000001C06D9341505040E0F70895FC016150C9
:10231000704001900110D8F7809590958E0F9F1F07
:1023200008950F931F93CF93DF93182F092FEB017D
:102330008B8181FD03C08FEF9FEF20C082FF10C013
:102340004E815F812C813D81421753077CF4E881E7
:10235000F9819F012F5F3F4F39832883108306C087
:10236000E885F985812F0995892B29F72E813F81F1
:102370002F5F3F4F3F832E83812F902FDF91CF918F
:102380001F910F910895FA01AA27283051F12031A9
:1023900081F1E8946F936E7F6E5F7F4F8F4F9F4FF9
:1023A000AF4FB1E03ED0B4E03CD0670F781F891F3B
:1023B0009A1FA11D680F791F8A1F911DA11D6A0F09
:1023C000711D811D911DA11D20D009F468943F91BC
:1023D0002AE0269F11243019305D3193DEF6CF01BB
:1023E0000895462F4770405D4193B3E00FD0C9F781
:1023F000F6CF462F4F70405D4A3318F0495D31FDEE
:102400004052419302D0A9F7EACFB4E0A695979540
:10241000879577956795BA95C9F700976105710516
:1024200008959B01AC010A2E069457954795379560
:102430002795BA95C9F7620F731F841F951FA01DBA
:062440000895F894FFCF9F
:1024460001F401F401F401016400E803E803E80380
:10245600E803E803F401E803E803C8002C01E803F5
:10246600F401E803DC05E8032C0138FF0CFE00004C
:102476000101010210000000000000000000000041
:102486000000000000000000000100000000000045
:10249600000000FFFFFFFFFFFFFFFF0000490220D3
:1024A600002C200043616E6E6F7420746F67676C3A
:1024B60065206E65676174697665206D732E0043CD
:1024C6006F6E76657274656420746F20746F6767CB
:1024D6006C6520706572696F643A2025642E0A0067
:0E24E600477265656E2025642C2025640A006F
:00000001FF
