:1000000045C0000061C000005FC000005DC000008E
:100010005BC0000059C0000057C00000BFC0000016
:1000200053C0000051C000004FC000000C94FF0BF3
:100030004BC000001FC5000047C0000045C00000C5
:10004000B0C1000041C000003FC000003DC0000042
:100050000C947D0A0C94A70B37C0000035C000003B
:1000600033C0000031C000002FC000002DC00000D0
:100070000C94A70A0C94CF0B27C0000025C00000E9
:1000800097C4000021C000001FC0000011241FBE43
:10009000CFEFD0E4DEBFCDBF11E0A0E0B1E0EAE6F3
:1000A000F5E200E00BBF02C007900D92A63DB1073C
:1000B000D9F712E0A6EDB1E001C01D92A737B10754
:1000C000E1F751D50C94B3129BCF809107018F5F5C
:1000D0008093070108951092260210922502109233
:1000E00024021092230210922202109221021092F6
:1000F000200210921F0210921E0210921D021092F6
:100100001C0210921B021092FE011092FD0110922F
:10011000FC011092FB011092FA011092F901109269
:10012000F8011092F7011092F6011092F501109269
:10013000F4011092F30108958AB1807F8AB981E0B9
:1001400090E04A9902C080E090E090932202809370
:10015000210281E090E04B9902C080E090E0909312
:10016000200280931F0281E090E0489902C080E065
:1001700090E09093FA018093F90181E090E0499931
:1001800002C080E090E09093F8018093F7018FE047
:100190008093730088E08093680008951F920F9207
:1001A0000FB60F9211240BB60F922F933F934F93DC
:1001B0005F936F937F938F939F93AF93EF93FF938F
:1001C00081E090E04A9902C080E090E0909326029E
:1001D0008093250281E090E04B9902C080E090E09E
:1001E000909324028093230281E090E0489902C01A
:1001F00080E090E09093FE018093FD0181E090E02B
:10020000499902C080E090E09093FC018093FB014B
:10021000209125023091260280911F0290912002A8
:100220004091230250912402A42F40912102509129
:100230002202F42F4091FD015091FE01E42F4091E4
:10024000F7015091F801742F4091FB015091FC018E
:10025000642F4091F9015091FA01342F281749F089
:1002600080911D0290911E02019690931E02809330
:100270001D02AF1749F080911D0290911E02019757
:1002800090931E0280931D02E71749F08091F501BB
:100290009091F60101969093F6018093F501631712
:1002A00049F08091F5019091F60101979093F60144
:1002B0008093F5018091250290912602909322026D
:1002C0008093210280912302909124029093200236
:1002D00080931F028091FD019091FE019093FA019D
:1002E0008093F9018091FB019091FC019093F801BA
:1002F0008093F701FF91EF91AF919F918F917F9143
:100300006F915F914F913F912F910F900BBE0F9086
:100310000FBE0F901F9018958091130290911402B8
:1003200097FF03C09195819591090B974CF48091AB
:1003300003029091040201969093040280930302B9
:100340002091030230910402E0910902F0910A0227
:10035000EE0FFF1FE05DFE4F8081918182179307B2
:10036000BCF4109204021092030280910902909151
:100370000A02019690930A02809309028091090271
:1003800090910A020A9724F010920A021092090230
:10039000809103029091040290931A0280931902B3
:1003A00008951F920F920FB60F9211240BB60F9261
:1003B000CF92DF92EF92FF922F933F934F935F93F1
:1003C0006F937F938F939F93AF93BF93CF93DF935D
:1003D000EF93FF938091ED019091EE010196909340
:1003E000EE018093ED01843691050CF462C0C0915A
:1003F0001D02D0911E028091170290911802BE0139
:10040000681B790B882777FD8095982F0E94600DD7
:100410006B017C016093FF017093000280930102E5
:1004200090930202D0931802C0931702E091090240
:10043000F0910A02EE0FFF1FEC5BFE4F60817181AD
:10044000882777FD8095982F0E94600DA70196015F
:100450000E94C80C0E942D0D709314026093130229
:10046000C0911B02D0911C02609113027091140282
:10047000882777FD8095982F0E94600D2DEC3CEC2D
:100480004CE45EE30E94EC0D0E942D0D6C0F7D1F6D
:1004900070931C0260931B02C0920F02D092100254
:1004A000E0921102F092120237DF1092EE011092E8
:1004B000ED01FF91EF91DF91CF91BF91AF919F91AE
:1004C0008F917F916F915F914F913F912F91FF900D
:1004D000EF90DF90CF900F900BBE0F900FBE0F905C
:1004E0001F901895809115029091160297FF03C0F6
:1004F00091958195910940974CF4809103029091D8
:100500000402019690930402809303022091030257
:1005100030910402E0910902F0910A02EE0FFF1FF0
:10052000E85FFE4F8081918182179307BCF410929F
:100530000402109203028091090290910A0201962E
:1005400090930A02809309028091090290910A0215
:100550000A9724F010920A02109209028091030275
:100560009091040290931A028093190208958617BD
:1005700097072CF0481759071CF4CA010895CB01BE
:10058000089597FF03C091958195910908958AB1C7
:10059000806C8AB987B1806C87B983E88093B0009A
:1005A00082E08093B1001092B300089594DDC4DD21
:1005B000EECF61302FEF720774F06F3F710509F0D5
:1005C0002CF4019799F477FD0AC003C0019771F4E8
:1005D0006FEF479A08C0019749F461E07FEF4798B1
:1005E0007195619571096093B3000895089580E253
:1005F000DBD6882361F180911B0290911C021816B2
:10060000190634F480911B0290911C020A9605C0D1
:1006100080911B0290911C020A9790931C02809378
:100620001B028091F3019091F4011816190634F41D
:100630008091F3019091F4010A9605C08091F30135
:100640009091F4010A979093F4018093F30188E06C
:10065000ABD68823F9F060E070E080E090E07BD6D4
:1006600088EC90E00E94460C80911B0290911C0245
:1006700091958195910990931C0280931B02809122
:10068000F3019091F4019195819591099093F40172
:100690008093F30184E088D6882361F180911B0266
:1006A00090911C021816190634F480911B02909147
:1006B0001C020A9705C080911B0290911C020A96A9
:1006C00090931C0280931B028091F3019091F4019E
:1006D0001816190634F48091F3019091F4010A97E9
:1006E00005C08091F3019091F4010A969093F40172
:1006F0008093F30180911B0290911C028F3F910522
:1007000019F014F08FEF90E081302FEF920714F47E
:1007100081E09FEF90931C0280931B028091F30174
:100720009091F4018F3F910519F014F08FEF90E054
:1007300081302FEF920714F481E09FEF9093F40142
:100740008093F30160911B0270911C0281E090E0A4
:1007500030DF82E390E00E94460C60E080E091D3BD
:1007600060911D0270911E02882777FD8095982F59
:1007700069D389E891E010D360911B0270911C024B
:10078000882777FD8095982F5DD38AE891E004D380
:1007900061E080E076D3609115027091160288279F
:1007A00077FD8095982F4ED389E891E0F5D260913E
:1007B000FF017091000280910102909102020E945B
:1007C0002D0D40D389E891E0E7D26091130270913A
:1007D0001402882777FD8095982F34D38AE891E01A
:1007E000DBC2809158018F5F80935801089511B842
:1007F0001AB811B80A9A559A089A129A5D9A109ADC
:1008000028EC30E01092490210924A0210924B02FA
:1008100010924C028091490290914A02A0914B02A1
:10082000B0914C028C3B9541A105B105A0F480919B
:10083000490290914A02A0914B02B0914C0201965C
:10084000A11DB11D8093490290934A02A0934B02CF
:10085000B0934C02DFCF215031092115310591F6BB
:1008600012985D9810981092DB011092DC011092A2
:10087000DD011092DE011092DF011092E001109272
:10088000E1011092E2011092D7011092D80110926A
:10089000D9011092DA0108950F931F93CF93C82FB7
:1008A0009B0177FF05C08CE891E00E94D10F7CC0CE
:1008B000CB0164E670E00E945C0C8901081B190BF7
:1008C0001F930F9327EA31E03F932F930E94C00FAD
:1008D0000F900F900F900F90C23519F0C13409F0AE
:1008E0005DC00115110511F40A9801C00A9A109310
:1008F000060100930501C93529F40115110531F4EC
:10090000089805C0C13409F04CC0F7CF089A10937D
:10091000020100930101C73429F40115110531F4D6
:1009200055980BC0C13409F03FC0F7CF559A013A32
:100930008FE0180714F000EA1FE010930401009301
:1009400003011016110684F5B80180E090E00E94C2
:100950005E0D21E73DE34CE951E40E94EC0D0E945D
:10096000320D709389006093880080918800909187
:1009700089009F938F93809104018F93809103014D
:100980008F9388EC91E09F938F930E94C00F0F90FC
:100990000F900F900F900F900F9006C0C93509F47B
:1009A000ACCFC73409F4B9CFCF911F910F910895FF
:1009B0001F920F920FB60F9211240F931F932F9334
:1009C0003F935F936F937F938F939F93AF93BF9367
:1009D0000091E9011091EA012091EB013091EC01C5
:1009E0000F5F1F4F2F4F3F4F0093E9011093EA0114
:1009F0002093EB013093EC01809101019091020171
:100A000064E670E045D7CB01A0E0B0E00817190715
:100A10002A073B07F8F082B191E0892782B98091DB
:100A2000D7019091D801A091D901B091DA01019636
:100A3000A11DB11D8093D7019093D801A093D90136
:100A4000B093DA011092E9011092EA011092EB01E1
:100A50001092EC01BF91AF919F918F917F916F9117
:100A60005F913F912F911F910F910F900FBE0F90AB
:100A70001F9018951F920F920FB60F9211248F930B
:100A80009F93AF93BF938091DB019091DC01A09184
:100A9000DD01B091DE010196A11DB11D8093DB0146
:100AA0009093DC01A093DD01B093DE01BF91AF9183
:100AB0009F918F910F900FBE0F901F90189580916E
:100AC00059018F5F80935901089582E884BD84E0C5
:100AD00085BD8EE487BD82E080936E001092E501B3
:100AE0001092E6011092E7011092E80180E88093ED
:100AF00090008BE08093910082E19AE790939900B7
:100B000080939800E1E7F0E080818260808310921A
:100B1000E9011092EA011092EB011092EC0180E4DD
:100B2000809380008DE0809381006091030170913B
:100B3000040180E090E0C2D721E73DE34CE951E4B5
:100B40000E94EC0D8FD7709389006093880081E03C
:100B500090E090938B0080938A00EFE6F0E0808134
:100B600082608083089522DDD8D2AFDF00D17894EF
:100B70003EDDFECF80E090E0089581E090E06F934D
:100B800064E06A95F1F76F910197C9F708950F93A3
:100B90001F93CF93DF9317B13D982898299AC0E00F
:100BA000D0E0EBDF2A9AE9DF06B12A98E6DF2A9A3D
:100BB000E4DF2A98249605FF10C09E0140E050E033
:100BC00080912B0290912C02A0912D02B0912E02C7
:100BD000281739074A075B0720F39E0140E050E0E1
:100BE00080912B0290912C02A0912D02B0912E02A7
:100BF000281739074A075B0728F082E390E0A0E056
:100C0000B0E004C080E395E7A0E0B0E080932B0261
:100C100090932C02A0932D02B0932E0217B9DF916E
:100C2000CF911F910F91089528B190E08F7090702F
:100C3000880F991F880F991F237C282B28B92A9A7F
:100C40009CDF2A989ACFA2E0B0E0E8E2F6E076C610
:100C5000182F4A83698357D09ADFF7B008B12998D3
:100C600069814A81662311F0289A01C0289887B1CA
:100C70008C6387B9413021F0812F82958F70D4DF4A
:100C8000812F8F70D1DFF7B808B92296E5E072C6E0
:100C900060E042E0D8CF61E042E0D5CF60E041E0E3
:100CA000D2CF3D98459A80E395E7A0E0B0E08093ED
:100CB0002B0290932C02A0932D02B0932E02209A27
:100CC000219A229A8EE190E0E1D583E0E7DF86E089
:100CD00090E0DCD583E0E2DF82E090E0D7D583E0EE
:100CE000DDDF82E090E0D2D582E0D8DF82E090E0E4
:100CF000CDD588E2CDDF88E0CBDF81E0C9DF86E0BB
:100D0000C7DF8CE0C5CF80912F02882321F481E0DA
:100D100080932F02C6CF089581E0BADF8091270229
:100D200090912802009711F1A0E0B0E208C0E09194
:100D30002702F0912802E20FF31FB083AF5F2A2F42
:100D400030E080915B0190E0019760915C0170E080
:100D5000869FA001879F500D969F500D1124241748
:100D600035072CF310922A02109229020895D4CF4D
:100D70000895EF92FF92CF93DF93E82EE7017E0173
:100D8000F92EE70101C087DF89918823E1F7DF9120
:100D9000CF91FF90EF900895ECCF0895AAE0B0E0D6
:100DA000E3EDF6E0C6C59B01AC011AE06AE0C62E91
:100DB000D12CE12CF12C5E010894A11CB11C022F56
:100DC000CA01B901A70196018AD51150F501E10FB9
:100DD000F11D005D922F990F892F880F880F890FC1
:100DE000081B0083211531054105510541F707C056
:100DF000F601E10FF11D80814EDF1F5F04C06E011F
:100E00000894C11CD11C1A3098F32A96EAE0ADC5AB
:100E1000EF92FF920F931F937B018C0197FF0AC003
:100E200010950095F094E094E11CF11C011D111D3A
:100E30008DE231DFC801B701B1DF1F910F91FF9043
:100E4000EF900895E5CF0895A5E0B0E0E9E2F7E07E
:100E500077C5182F80E8898380EC8A8384E98B83A7
:100E600084ED8C83FE01E60FF11D8181810F6D837E
:100E70000FDF10932A026D81609329022596E3E02B
:100E80007BC5E2CF0895A0E0B0E0E8E4F7E053C509
:100E9000D82E8091270290912802009709F4F2C081
:100EA0002D2D2A3009F442C02830C9F480912A023D
:100EB000815080932A028F3F51F480912902815002
:100EC0008093290280915C01815080932A02809155
:100ED00029028F3F09F0D1C010922902CCC08D2D7C
:100EE000DADE809129028823B9F090E001974091E1
:100EF0005C0150E0849F9001859F300D949F300DE0
:100F0000112480912A02E0912702F0912802E20F39
:100F1000F31FE80FF11DD08280912A028F5F80932A
:100F20002A0290915C01891709F0ACC04091290216
:100F3000242F30E080915B0190E00197281739075A
:100F400009F096C0C0E0D0E03FC080E06C2F7CDFAD
:100F5000CC248E010F5F1F4F32C0EC2CFF2430E0F9
:100F6000C29FC001C39F900DD29F900D1124E091AC
:100F70002702F0912802EE0DFF1DE80FF91F808176
:100F80008ADE809127029091280220915C0130E056
:100F9000C29FF001C39FF00DD29FF00D11248E0D62
:100FA0009F1DE80FF91F029FD001039FB00D129FF4
:100FB000B00D1124A80FB91F8C918083C394209188
:100FC0005C01C21650F2E80160915B01862F90E04F
:100FD0000297C817D9070CF4B8CF6230D0F162502D
:100FE00080E032DF00E010E230C0C02FD0E080911E
:100FF0005B0190E0029750E0849F9001859F300D47
:10100000949F300D1124E0912702F0912802EC0FFB
:10101000FD1FE20FF31F80813EDE80915B0190E0B7
:10102000029740915C0150E0849F9001859F300DB4
:10103000949F300D1124E0912702F0912802EC0FCB
:10104000FD1FE20FF31F10830F5F40915C01041737
:1010500060F260915B01615080E0F6DE10E003C059
:1010600080E219DE1F5F80915C011817C8F303C08E
:101070004F5F4093290210922A0280912A026091C8
:101080002902E2DE2D2D332727FD3095C901CDB78A
:10109000DEB7E8E06CC480912702909128020097A7
:1010A00009F095D620915B0130E0215030408091CD
:1010B0005C0190E0AC01249FC001259F900D349FFE
:1010C000900D1124ECD5909328028093270200976D
:1010D00019F1A0E0B0E208C0E0912702F0912802E7
:1010E000E20FF31FB083AF5F2A2F30E080915B01E6
:1010F00090E0019760915C0170E0869FA001879F5E
:10110000500D969F500D1124241735072CF383E4BE
:1011100097E06AEB75E0EAC60895BDCF0895FC013B
:101120001182108213821282158214821682683014
:1011300068F489E290E0918380838BE290E093836E
:1011400082838AE290E09583848323C0603180F4B7
:1011500083E290E09183808385E290E093838283B1
:1011600084E290E09583848370E06850704011C001
:101170006831C0F486E290E09183808388E290E059
:101180009383828387E290E09583848370E060514B
:10119000704081E090E002C0880F991F6A95E2F7E5
:1011A000868308956032C0F480E290E0918380836A
:1011B00082E290E09383828381E290E0958384834E
:1011C0002FE130E0261B310981E090E002C0880F5A
:1011D000991F2A95E2F786830895FC01A481B581C1
:1011E0008681662321F09C91982B9C9308959C9175
:1011F000809589238C930895FC016F3F31F4A2817F
:10120000B3818C91968189270CC0A281B38186819C
:10121000662321F09C91982B9C9308959C91809536
:1012200089238C930895A7E0B0E0E8E1F9E086C354
:10123000282FF62E8E010F5F1F4FC801622F6FDF20
:10124000C8016F2DD9DFC80161E0C7DF2796E5E04F
:1012500091C383E08093B00082E08093B100E4EB1F
:10126000F0E0108280818093B30087E160E0DBDFF3
:1012700086E160E0D8DF87E060E0D5DF86E060E00F
:10128000D2CF80913002882321F481E08093300214
:10129000E0CF0895CF93DF93EC01F3DFD7FF05C0D4
:1012A000D095C195DF4F91E001C090E0CF3FD105CF
:1012B00019F014F0CFEFD0E0C093B300209731F4D1
:1012C0008091B0008F778093B0000DC08091B00006
:1012D00080688093B000992319F087E161E002C033
:1012E00087E160E0A0DFDF91CF910895CF93DF9396
:1012F000EC01C7DFD7FF05C0D095C195DF4F91E066
:1013000001C090E0CF3FD10519F014F0CFEFD0E04D
:10131000C093B400209731F48091B0008F7D80930A
:10132000B0000DC08091B00080628093B00099231E
:1013300019F086E161E002C086E160E074DFDF91D0
:10134000CF910895CF93DF93EB01A4DFCE01CEDFE1
:10135000DF91CF910895F6CF089587B1837D87B946
:1013600088B18C6288B985E090E06F9364E06A95FB
:10137000F1F76F910197C9F70895809131028823A1
:1013800021F481E080933102E8CF0895A1E0B0E03C
:10139000EBECF9E0D6C28983F0DF96B190958981B4
:1013A00089232196E2E0E9C2F1CF0895282F30E0A9
:1013B000F901EE0FFF1FB3E0220F331FBA95E1F7DB
:1013C000E20FF31FE35AFE4F408551854115510549
:1013D00009F452C0282F30E0F901EE0FFF1F73E02F
:1013E000220F331F7A95E1F7E20FF31FE35AFE4F06
:1013F0007281282F30E0F901EE0FFF1FB3E0220FBA
:10140000331FBA95E1F7E20FF31FE35AFE4F9481C1
:10141000791790F5282F30E0F901EE0FFF1F73E0E8
:10142000220F331F7A95E1F7E20FF31FE35AFE4FC5
:101430009281490F511DFA016083282F30E0F90194
:10144000EE0FFF1F53E0220F331F5A95E1F7E20F13
:10145000F31FE35AFE4F92819F5F282F30E0F9017E
:10146000EE0FFF1FB3E0220F331FBA95E1F7E20F33
:10147000F31FE35AFE4F9283282F30E0F901EE0F5D
:10148000FF1F73E0220F331F7A95E1F7E20FF31F7E
:10149000E35AFE4F4281282F30E0F901EE0FFF1F83
:1014A00053E0220F331F5A95E1F7E20FF31FE35A7F
:1014B000FE4F9481491701F5282F30E0F901EE0F16
:1014C000FF1F93E0220F331F9A95E1F7E20FF31FFE
:1014D000E35AFE4F9581992379F0282F30E0F901E6
:1014E000EE0FFF1FB3E0220F331FBA95E1F7E20FB3
:1014F000F31FE35AFE4F128208951F920F920FB608
:101500000F920BB60F9211242F933F934F935F933B
:101510006F937F938F939F93AF93BF93EF93FF93BB
:101520006091C60080E042DFFF91EF91BF91AF91E3
:101530009F918F917F916F915F914F913F912F91EB
:101540000F900BBE0F900FBE0F901F9018951F921B
:101550000F920FB60F920BB60F9211242F933F9359
:101560004F935F936F937F938F939F93AF93BF93AB
:10157000EF93FF936091CE0081E018DFFF91EF9130
:10158000BF91AF919F918F917F916F915F914F919B
:101590003F912F910F900BBE0F900FBE0F901F9099
:1015A0001895882319F4E1ECF0E002C0E9ECF0E0D2
:1015B0008081806280830895882319F4E1ECF0E053
:1015C00002C0E9ECF0E080818F7D80830895282FB0
:1015D00030E0F901EE0FFF1F93E0220F331F9A95C1
:1015E000E1F7E20FF31FE35AFE4F26813781211501
:1015F000310591F1282F30E0F901EE0FFF1FA3E034
:10160000220F331FAA95E1F7E20FF31FE35AFE4FB3
:101610004181282F30E0F901EE0FFF1F63E0220F18
:10162000331F6A95E1F7E20FF31FE35AFE4F9381F0
:10163000491790F4282F30E0F901EE0FFF1F43E027
:10164000220F331F4A95E1F7E20FF31FE35AFE4FD3
:101650009081992309F4A5CFAFCF282F30E0F9016D
:10166000EE0FFF1F73E0220F331F7A95E1F7E20FB1
:10167000F31FE35AFE4F468157814115510509F486
:1016800065C0282F30E0F901EE0FFF1F93E0220F15
:10169000331F9A95E1F7E20FF31FE35AFE4F618182
:1016A000282F30E0F901EE0FFF1FA3E0220F331FB8
:1016B000AA95E1F7E20FF31FE35AFE4F93816917F2
:1016C00008F044C0882319F4E0ECF0E002C0E8EC34
:1016D000F0E0908195FF3AC0882319F4A6ECB0E0C1
:1016E00002C0AEECB0E0282F30E0F901EE0FFF1F92
:1016F00063E0220F331F6A95E1F7E20FF31FE35A0D
:10170000FE4F9181490F511DFA0190819C93282F22
:1017100030E0F901EE0FFF1F93E0220F331F9A957F
:10172000E1F7E20FF31FE35AFE4F91819F5F282FED
:1017300030E0F901EE0FFF1FA3E0220F331FAA953F
:10174000E1F7E20FF31FE35AFE4F918340CF1F9260
:101750000F920FB60F920BB60F9211242F933F9357
:101760004F935F936F937F938F939F93AF93BF93A9
:10177000EF93FF9380E071DFFF91EF91BF91AF9105
:101780009F918F917F916F915F914F913F912F9199
:101790000F900BBE0F900FBE0F901F9018951F92C9
:1017A0000F920FB60F920BB60F9211242F933F9307
:1017B0004F935F936F937F938F939F93AF93BF9359
:1017C000EF93FF9381E049DFFF91EF91BF91AF91DC
:1017D0009F918F917F916F915F914F913F912F9149
:1017E0000F900BBE0F900FBE0F901F9018956F9328
:1017F00064E06A95F1F76F910197C9F708952F9208
:101800008F939F932FB680913F0290914002019653
:1018100080933F029093400290E080914102891FA3
:1018200080934102909147029C5F90934702809180
:10183000460280519742C0F090934702809346023F
:1018400080914202909143020196809342029093CC
:10185000430290E080914402891F8093440280916A
:101860004502891F809345022FBE9F918F912F9033
:101870001895CF93DF93EC0104C088EE93E0B7DFB7
:1018800021972097D1F7DF91CF910895F2CF089556
:10189000AA1BBB1B51E107C0AA1FBB1FA617B70796
:1018A00010F0A61BB70B881F991F5A95A9F78095B2
:1018B0009095BC01CD01089597FB072E16F4009476
:1018C00006D077FD08D0E4DF07FC05D03EF4909504
:1018D00081959F4F0895709561957F4F0895A1E27E
:1018E0001A2EAA1BBB1BFD010DC0AA1FBB1FEE1F9A
:1018F000FF1FA217B307E407F50720F0A21BB30BE5
:10190000E40BF50B661F771F881F991F1A9469F760
:1019100060957095809590959B01AC01BD01CF01BC
:1019200008952F923F924F925F926F927F928F9283
:101930009F92AF92BF92CF92DF92EF92FF920F935E
:101940001F93CF93DF93CDB7DEB7CA1BDB0B0FB668
:10195000F894DEBF0FBECDBF09942A883988488825
:101960005F846E847D848C849B84AA84B984C884BB
:10197000DF80EE80FD800C811B81AA81B981CE0FB2
:10198000D11D0FB6F894DEBF0FBECDBFED01089597
:101990005058BB27AA270ED0E5C0D6D030F0DBD0F8
:1019A00020F031F49F3F11F41EF4CBC00EF4E0950B
:1019B000E7FBC1C0E92FE7D080F3BA1762077307CE
:1019C0008407950718F071F49EF5FFC00EF4E095BA
:1019D0000B2EBA2FA02D0B01B90190010C01CA01E9
:1019E000A0011124FF27591B99F0593F50F4503E94
:1019F00068F11A16F040A22F232F342F4427585F86
:101A0000F3CF469537952795A795F0405395C9F79D
:101A10007EF41F16BA0B620B730B840BBAF0915055
:101A2000A1F0FF0FBB1F661F771F881FC2F70EC0F4
:101A3000BA0F621F731F841F48F4879577956795C7
:101A4000B795F7959E3F08F0B3CF9395880F08F0B0
:101A50009927EE0F97958795089504D06894B11152
:101A6000B5C0089598D088F09F5790F0B92F992766
:101A7000B751A0F0D1F0660F771F881F991F1AF099
:101A8000BA95C9F712C0B13081F09FD0B1E0089586
:101A90009CC0672F782F8827B85F39F0B93FCCF307
:101AA000869577956795B395D9F73EF4909580958F
:101AB000709561957F4F8F4F9F4F0895E89409C0AF
:101AC00097FB3EF490958095709561957F4F8F4F71
:101AD0009F4F9923A9F0F92F96E9BB279395F69587
:101AE000879577956795B795F111F8CFFAF4BB0F05
:101AF00011F460FF1BC06F5F7F4F8F4F9F4F16C069
:101B0000882311F096E911C0772321F09EE8872FF2
:101B1000762F05C0662371F096E8862F70E060E0AE
:101B20002AF09A95660F771F881FDAF7880F969527
:101B3000879597F9089597F99F6780E870E060E0CE
:101B400008959FEF80EC089500240A941616170656
:101B500018060906089500240A941216130614069E
:101B600005060895092E0394000C11F4882352F001
:101B7000BB0F40F4BF2B11F460FF04C06F5F7F4FB9
:101B80008F4F9F4F089557FD9058440F551F59F0A0
:101B90005F3F71F04795880F97FB991F61F09F3F5A
:101BA00079F087950895121613061406551FF2CF83
:101BB0004695F1DF08C0161617061806991FF1CFD3
:101BC00086957105610508940895E894BB276627FA
:101BD0007727CB0197F908950BD0C4CFB5DF28F054
:101BE000BADF18F0952309F0A6CFABCF1124EECFC2
:101BF000CADFA0F3959FD1F3950F50E0551F629F68
:101C0000F001729FBB27F00DB11D639FAA27F00D55
:101C1000B11DAA1F649F6627B00DA11D661F829F7C
:101C20002227B00DA11D621F739FB00DA11D621F61
:101C3000839FA00D611D221F749F3327A00D611D7E
:101C4000231F849F600D211D822F762F6A2F112460
:101C50009F5750408AF0E1F088234AF0EE0FFF1FB3
:101C6000BB1F661F771F881F91505040A9F79E3FEA
:101C7000510570F060CFAACF5F3FECF3983EDCF3E4
:101C8000869577956795B795F795E7959F5FC1F727
:101C9000FE2B880F911D9695879597F90895CF9300
:101CA000DF938230910510F482E090E0E0916F02C2
:101CB000F091700220E030E0A0E0B0E0309739F120
:101CC0004081518148175907B8F04817590771F4F6
:101CD00082819381109729F013969C938E9312978B
:101CE0002CC09093700280936F0227C0211531059C
:101CF00031F04217530718F0A901DB0101C0EF01D1
:101D00009A01BD01DF010280F381E02DD7CF2115BB
:101D10003105F9F0281B390B2430310580F48A8114
:101D20009B816115710521F0FB019383828304C0BF
:101D30009093700280936F02FE01329644C0FE01C0
:101D4000E20FF31F81939193225031093983288345
:101D50003AC020916D0230916E02232B41F4209104
:101D600085013091860130936E0220936D0220919F
:101D70008301309184012115310541F42DB73EB71F
:101D80004091870150918801241B350BE0916D0231
:101D9000F0916E02E217F307A0F42E1B3F0B2817F9
:101DA000390778F0AC014E5F5F4F2417350748F0D4
:101DB0004E0F5F1F50936E0240936D02819391937B
:101DC00002C0E0E0F0E0CF01DF91CF910895CF9322
:101DD000DF93009709F487C0FC01329713821282C7
:101DE000C0916F02D0917002209781F420813181DF
:101DF000280F391F80916D0290916E028217930710
:101E000079F5F0936E02E0936D026DC0DE0120E083
:101E100030E0AE17BF0750F412964D915C911397C6
:101E20009D014115510509F1DA01F3CFB383A28376
:101E300040815181840F951F8A179B0771F48D9102
:101E40009C911197840F951F02969183808312961F
:101E50008D919C911397938382832115310529F4E9
:101E6000F0937002E0936F023EC0D9011396FC9389
:101E7000EE9312974D915D91A40FB51FEA17FB07E2
:101E800079F480819181840F951F0296D901119672
:101E90009C938E938281938113969C938E93129739
:101EA000E0E0F0E08A819B81009719F0FE01EC01EF
:101EB000F9CFCE01029628813981820F931F20919C
:101EC0006D0230916E022817390769F4309729F4B2
:101ED0001092700210926F0202C013821282D0938D
:101EE0006E02C0936D02DF91CF9108950F931F93FF
:101EF000CF93DF93EC018B01009731F461157105ED
:101F000019F480E090E037C06EE070E081E090E08E
:101F100063D2FC010097A9F380E8838301151105C2
:101F200071F01387028781E8838380917102909119
:101F30007202892B21F4F0937202E09371022097D0
:101F4000C9F0D187C08783818260838380917302C7
:101F500090917402892B71F4F0937402E0937302F0
:101F60008091750290917602892B21F4F09376028C
:101F7000E0937502CF01DF91CF911F910F910895EA
:101F8000CF93DF93CDB7DEB7FE01359661917191A6
:101F9000AF01809173029091740230D0DF91CF91A4
:101FA00008950F931F93CF93DF93E0917302F09105
:101FB0007402238121FF1BC0EC0100E010E0899135
:101FC0006091730270917402DB011896ED91FC919F
:101FD0001997882331F00995892B89F30FEF1FEFAB
:101FE000EECF8AE00995892B11F4C80102C08FEF6A
:101FF0009FEFDF91CF911F910F9108952F923F9204
:102000004F925F926F927F928F929F92AF92BF9208
:10201000CF92DF92EF92FF920F931F93CF93DF93B4
:10202000CDB7DEB72C970FB6F894DEBF0FBECDBF8D
:102030007C016B018A01FC0117821682838181FF7A
:10204000B0C1CE0101964C01F7019381F60193FDD9
:10205000859193FF81916F01882309F49EC1853298
:1020600039F493FD859193FF81916F01853221F4BD
:10207000B70190E0E8D1E8CF512C312C20E020329C
:10208000A0F48B3269F030F4803259F0833269F475
:1020900020612CC08D3239F0803339F4216026C0A4
:1020A0002260246023C0286021C027FD27C030EDB6
:1020B000380F3A3078F426FF06C0FAE05F9E300D04
:1020C0001124532E13C08AE0389E300D1124332E74
:1020D00020620CC08E3221F426FD5FC1206406C050
:1020E0008C3611F4206802C0883641F4F60193FD65
:1020F000859193FF81916F018111C1CF982F9F7DB1
:102100009554933028F40C5F1F4FFFE3F9830DC003
:10211000833631F0833771F0833509F057C021C021
:10212000F801808189830E5F1F4F44244394512C12
:10213000540114C03801F2E06F0E711CF801A08048
:10214000B18026FF03C0652D70E002C06FEF7FEF06
:10215000C5012C876DD12C0183012C852F77222E70
:1021600016C03801F2E06F0E711CF801A080B1803A
:1021700026FF03C0652D70E002C06FEF7FEFC50141
:102180002C8744D12C012C852068222E830123FC2E
:1021900019C0832D90E048165906A0F4B70180E2DB
:1021A00090E051D13A94F5CFF50127FC859127FEB7
:1021B00081915F01B70190E046D131103A94F1E08E
:1021C0004F1A51084114510479F7DEC0843611F0DA
:1021D000893631F5F80127FF07C06081718182815E
:1021E00093810C5F1F4F08C060817181882777FD44
:1021F0008095982F0E5F1F4F2F76B22E97FF09C044
:1022000090958095709561957F4F8F4F9F4F206877
:10221000B22E2AE030E0A40148D1A82EA81843C06D
:10222000853729F42F7EB22E2AE030E025C0F22F28
:10223000F97FBF2E8F36C1F018F4883579F0ADC024
:10224000803719F0883721F0A8C02F2F2061B22ED7
:10225000B4FE0DC08B2D8460B82E09C024FF0AC0C7
:102260009F2F9660B92E06C028E030E005C020E11F
:1022700030E002C020E132E0F801B7FE07C0608123
:102280007181828193810C5F1F4F06C060817181D3
:1022900080E090E00E5F1F4FA40107D1A82EA81880
:1022A000FB2DFF77BF2EB6FE0BC02B2D2E7FA51466
:1022B00050F4B4FE0AC0B2FC08C02B2D2E7E05C01F
:1022C0007A2C2B2D03C07A2C01C0752C24FF0DC055
:1022D000FE01EA0DF11D8081803311F4297E09C0D1
:1022E00022FF06C07394739404C0822F867809F08D
:1022F000739423FD12C020FF06C05A2C731418F4E7
:10230000530C5718732C731460F4B70180E290E0FB
:102310002C8799D073942C85F6CF731410F437184A
:1023200001C0312C24FF11C0B70180E390E02C875D
:102330008AD02C8522FF16C021FF03C088E590E0DB
:1023400002C088E790E0B7010CC0822F867851F078
:1023500021FD02C080E201C08BE227FD8DE2B701C2
:1023600090E071D0A51430F4B70180E390E06BD019
:102370005A94F8CFAA94F401EA0DF11D8081B701B7
:1023800090E061D0A110F6CF332009F45DCEB70103
:1023900080E290E058D03A94F7CFF7018681978198
:1023A00002C08FEF9FEF2C960FB6F894DEBF0FBEE2
:1023B000CDBFDF91CF911F910F91FF90EF90DF90F4
:1023C000CF90BF90AF909F908F907F906F905F90D5
:1023D0004F903F902F9008950F931F93CF93DF93CB
:1023E000869F8001879F100D969F100D1124C801B4
:1023F00056DCEC01009721F0A80160E070E011D0FC
:10240000CE01DF91CF911F910F910895FC010590AE
:10241000615070400110D8F7809590958E0F9F1FE6
:102420000895DC0101C06D9341505040E0F70895DC
:10243000FC016150704001900110D8F78095909593
:102440008E0F9F1F08950F931F93CF93DF93182F25
:10245000092FEB018B8181FD03C08FEF9FEF20C01F
:1024600082FF10C04E815F812C813D81421753074E
:102470007CF4E881F9819F012F5F3F4F39832883E6
:10248000108306C0E885F985812F0995892B29F7E6
:102490002E813F812F5F3F4F3F832E83812F902FCF
:1024A000DF91CF911F910F910895FA01AA2728304B
:1024B00051F1203181F1E8946F936E7F6E5F7F4F11
:1024C0008F4F9F4FAF4FB1E03ED0B4E03CD0670F8D
:1024D000781F891F9A1FA11D680F791F8A1F911DE0
:1024E000A11D6A0F711D811D911DA11D20D009F430
:1024F00068943F912AE0269F11243019305D319372
:10250000DEF6CF010895462F4770405D4193B3E05A
:102510000FD0C9F7F6CF462F4F70405D4A3318F001
:10252000495D31FD4052419302D0A9F7EACFB4E0B2
:10253000A6959795879577956795BA95C9F700976A
:102540006105710508959B01AC010A2E069457950B
:10255000479537952795BA95C9F7620F731F841F62
:0A256000951FA01D0895F894FFCF09
:10256A0001F401F401F401016400E803E803E8035B
:10257A00E803E803F401E803E803C8002C01E803D0
:10258A00F401E803DC05E8032C0138FF0CFE000027
:10259A000A000A0005000A000A000A0032000A00BE
:1025AA000A0014002C015802F40164009CFF0CFE7E
:1025BA002C0138FF0CFE000001010102100000008E
:1025CA000000000000000000000000000000000001
:1025DA000001000000000000000000FFFFFFFFFFF5
:1025EA00FFFFFF0000770220002C200043616E6E7F
:1025FA006F7420746F67676C65206E6567617469B4
:10260A007665206D732E00436F6E7665727465640D
:10261A0020746F20746F67676C6520706572696FCC
:10262A00643A2025642E0A00477265656E20256487
:06263A002C2025640A00BB
:00000001FF
