:1000000045C0000061C000005FC000005DC000008E
:100010005BC0000059C0000057C0000080C1000054
:1000200053C0000051C000004FC000000C94E00A13
:100030004BC00000B6C3000047C0000045C0000030
:1000400029C4000041C000003FC000003DC00000C6
:100050000C945E090C94880A37C0000035C000007B
:1000600033C0000031C000002FC000002DC00000D0
:100070000C9488090C94B00A27C0000025C0000029
:100080002EC3000021C000001FC0000011241FBEAD
:10009000CFEFD0E4DEBFCDBF11E0A0E0B1E0E8E5F6
:1000A000F2E200E00BBF02C007900D92A638B10744
:1000B000D9F712E0A6E8B1E001C01D92AB30B1075C
:1000C000E1F733D40C942A119BCF809107018F5F05
:1000D0008093070108951092BA011092B90110920D
:1000E000B8011092B7011092B6011092B5011092AA
:1000F000B4011092B3011092B2011092B1011092AA
:10010000B0011092AF011092AE011092AD011092A9
:10011000AC011092AB011092AA011092A9011092A9
:10012000A8011092A7011092A6011092A5011092A9
:10013000A4011092A3011092A2011092A1011092A9
:10014000A00110929F0108958AB1807F8AB981E051
:1001500090E05A9902C080E090E09093B6018093BD
:10016000B50181E090E05B9902C080E090E090935F
:10017000B4018093B30181E090E0589902C080E01F
:1001800090E09093A8018093A70181E090E05999B5
:1001900002C080E090E09093A6018093A5018FE0DB
:1001A0008093730088E080936800089594DFCCCF3B
:1001B00080E2DBD7882391F08091AF019091B0016C
:1001C0000A969093B0018093AF018091A101909124
:1001D000A2010A969093A2018093A10188E0C5D75D
:1001E000882329F160E070E080E090E095D788EC0A
:1001F00090E00E94270B2091AD013091AE0181E08B
:1002000090E0232B11F080E090E09093AE0180937A
:10021000AD0120919F013091A00181E090E0232B5E
:1002200011F080E090E09093A00180939F0184E022
:100230009CD7882391F08091AF019091B0010A97EB
:100240009093B0018093AF018091A1019091A201A0
:100250000A979093A2018093A1018091AF019091A0
:10026000B00197FF04C01092B0011092AF018091CD
:10027000A1019091A20197FF04C01092A2011092D7
:10028000A1018091AF019091B0018F3F910539F0AC
:1002900034F08FEF90E09093B0018093AF018091A4
:1002A000A1019091A2018F3F910539F034F08FEFB9
:1002B00090E09093A2018093A1012091A10130913F
:1002C000A20180919F019091A001892B19F08FEFDD
:1002D0009FEF02C081E090E0289FB001299F700D40
:1002E000389F700D11242091AF013091B0018091A1
:1002F000AD019091AE01892B19F08FEF9FEF02C0F5
:1003000081E090E0AC01249FC001259F900D349FB7
:10031000900D112401D782E390E00C94270B1F92DB
:100320000F920FB60F9211240BB60F922F933F939B
:100330004F935F936F937F938F939F93AF93BF93ED
:10034000EF93FF9381E090E05A9902C080E090E043
:100350009093BA018093B90181E090E05B9902C06B
:1003600080E090E09093B8018093B70181E090E045
:10037000589902C080E090E09093AC018093AB016B
:1003800081E090E0599902C080E090E09093AA014A
:100390008093A90160E080E055D46091B90170912B
:1003A000BA01882777FD8095982F2DD489E391E0B5
:1003B000D4D361E080E046D46091B5017091B6017C
:1003C000882777FD8095982F1ED489E391E0C5D3C7
:1003D0002091B9013091BA018091B5019091B60197
:1003E00028173907C1F08091B9019091BA01909313
:1003F000B6018093B5018091B9019091BA0101973E
:1004000029F48091B3019091B40129C08091B30186
:100410009091B4011DC02091B7013091B801809135
:10042000B3019091B4012817390751F18091B701B8
:100430009091B8019093B4018093B3018091B7017A
:100440009091B801019739F48091B5019091B6016E
:10045000019769F406C08091B5019091B601892B8E
:1004600031F48091B1019091B201019605C0809163
:10047000B1019091B20101979093B2018093B101C3
:100480002091AB013091AC018091A7019091A8011E
:100490002817390751F18091AB019091AC019093ED
:1004A000A8018093A7018091AB019091AC010197C5
:1004B00039F48091A5019091A601892B69F406C0B9
:1004C0008091A5019091A601019731F48091A3013B
:1004D0009091A401019605C08091A3019091A4017F
:1004E00001979093A4018093A301FF91EF91BF9195
:1004F000AF919F918F917F916F915F914F913F91BC
:100500002F910F900BBE0F900FBE0F901F9018955C
:10051000809108018F5F80930801089511B81AB87F
:1005200011B80A9A559A089A129A5D9A109A28EC6C
:1005300030E01092DD011092DE011092DF01109286
:10054000E0018091DD019091DE01A091DF01B09189
:10055000E0018C3B9541A105B105A0F48091DD013E
:100560009091DE01A091DF01B091E0010196A11D03
:10057000B11D8093DD019093DE01A093DF01B09364
:10058000E001DFCF215031092115310591F6129894
:100590005D98109810928B0110928C0110928D0131
:1005A00010928E0110928F01109290011092910181
:1005B0001092920110928701109288011092890185
:1005C00010928A0108950F931F93CF93C82F9B0118
:1005D00077FF05C08BE391E00E94480E7CC0CB0101
:1005E00064E670E00E943D0B8901081B190B1F9304
:1005F0000F9326E531E03F932F930E94370E0F9023
:100600000F900F900F90C23519F0C13409F05DC002
:100610000115110511F40A9801C00A9A10930601F8
:1006200000930501C93529F40115110531F4089825
:1006300005C0C13409F04CC0F7CF089A10930201ED
:1006400000930101C73429F40115110531F45598BF
:100650000BC0C13409F03FC0F7CF559A013A8FE083
:10066000180714F000EA1FE010930401009303013F
:100670001016110684F5B80180E090E00E94D50BB9
:1006800021E73DE34CE951E40E943B0C0E94A90B99
:100690007093890060938800809188009091890010
:1006A0009F938F93809104018F93809103018F9387
:1006B00087E791E09F938F930E94370E0F900F90E2
:1006C0000F900F900F900F9006C0C93509F4ACCF72
:1006D000C73409F4B9CFCF911F910F9108951F929C
:1006E0000F920FB60F9211240F931F932F933F93E6
:1006F0005F936F937F938F939F93AF93BF9300917B
:10070000990110919A0120919B0130919C010F5FFA
:100710001F4F2F4F3F4F0093990110939A01209341
:100720009B0130939C01809101019091020164E64C
:1007300070E08FD7CB01A0E0B0E0081719072A07B7
:100740003B07F8F082B191E0892782B98091870157
:1007500090918801A0918901B0918A010196A11D13
:10076000B11D8093870190938801A0938901B09374
:100770008A011092990110929A0110929B01109295
:100780009C01BF91AF919F918F917F916F915F91EC
:100790003F912F911F910F910F900FBE0F901F90BF
:1007A00018951F920F920FB60F9211248F939F935B
:1007B000AF93BF9380918B0190918C01A0918D019B
:1007C000B0918E010196A11DB11D80938B01909374
:1007D0008C01A0938D01B0938E01BF91AF919F9139
:1007E0008F910F900FBE0F901F9018958091090167
:1007F0008F5F80930901089582E884BD84E085BD00
:100800008EE487BD82E080936E0010929501109275
:100810009601109297011092980180E880939000C1
:100820008BE08093910082E19AE790939900809306
:100830009800E1E7F0E08081826080831092990166
:1008400010929A0110929B0110929C0180E4809377
:1008500080008DE08093810060910301709104011C
:1008600080E090E0A2D721E73DE34CE951E40E940B
:100870003B0C6FD7709389006093880081E090E013
:1008800090938B0080938A00EFE6F0E08081826095
:10089000808308951F920F920FB60F9211240BB60A
:1008A0000F922F933F934F935F936F937F938F9309
:1008B0009F93AF93BF93EF93FF93609195017091D6
:1008C000960180919701909198016F5F7F4F8F4FB4
:1008D0009F4F609395017093960180939701909339
:1008E0009801209105013091060140E050E0D8D6F2
:1008F000672B682B692B31F481E090E09093940191
:1009000080939301FF91EF91BF91AF919F918F9150
:100910007F916F915F914F913F912F910F900BBEFF
:100920000F900FBE0F901F90189540DCD7D200D1CA
:1009300078943EDCFECF80E090E0089581E090E086
:100940006F9364E06A95F1F76F910197C9F7089585
:100950000F931F93CF93DF9317B13D982898299A4F
:10096000C0E0D0E0EBDF2A9AE9DF06B12A98E6DFA3
:100970002A9AE4DF2A98249605FF10C09E0140E0E1
:1009800050E08091BF019091C001A091C101B09150
:10099000C201281739074A075B0720F39E0140E090
:1009A00050E08091BF019091C001A091C101B09130
:1009B000C201281739074A075B0728F082E390E055
:1009C000A0E0B0E004C080E395E7A0E0B0E0809351
:1009D000BF019093C001A093C101B093C20117B9A8
:1009E000DF91CF911F910F91089528B190E08F7002
:1009F0009070880F991F880F991F237C282B28B986
:100A00002A9A9CDF2A989ACFA2E0B0E0E9E0F5E0CC
:100A100076C6182F4A83698357D09ADFF7B008B19A
:100A2000299869814A81662311F0289A01C0289883
:100A300087B18C6387B9413021F0812F82958F7007
:100A4000D4DF812F8F70D1DFF7B808B92296E5E0A7
:100A500072C660E042E0D8CF61E042E0D5CF60E00E
:100A600041E0D2CF3D98459A80E395E7A0E0B0E021
:100A70008093BF019093C001A093C101B093C201C4
:100A8000209A219A229A8EE190E0E1D583E0E7DF77
:100A900086E090E0DCD583E0E2DF82E090E0D7D52D
:100AA00083E0DDDF82E090E0D2D582E0D8DF82E033
:100AB00090E0CDD588E2CDDF88E0CBDF81E0C9DFF3
:100AC00086E0C7DF8CE0C5CF8091C301882321F485
:100AD00081E08093C301C6CF089581E0BADF8091A1
:100AE000BB019091BC01009711F1A0E0B0E208C0F9
:100AF000E091BB01F091BC01E20FF31FB083AF5F47
:100B00002A2F30E080910B0190E0019760910C0159
:100B100070E0869FA001879F500D969F500D112475
:100B2000241735072CF31092BE011092BD010895D1
:100B3000D4CF0895EF92FF92CF93DF93E82EE70191
:100B40007E01F92EE70101C087DF89918823E1F753
:100B5000DF91CF91FF90EF900895ECCF0895AAE038
:100B6000B0E0E4EBF5E0C6C59B01AC011AE06AE039
:100B7000C62ED12CE12CF12C5E010894A11CB11CD5
:100B8000022FCA01B901A70196018AD51150F501BA
:100B9000E10FF11D005D922F990F892F880F880FAB
:100BA000890F081B0083211531054105510541F7C7
:100BB00007C0F601E10FF11D80814EDF1F5F04C009
:100BC0006E010894C11CD11C1A3098F32A96EAE0F1
:100BD000ADC5EF92FF920F931F937B018C0197FF9E
:100BE0000AC010950095F094E094E11CF11C011DE1
:100BF000111D8DE231DFC801B701B1DF1F910F91E7
:100C0000FF90EF900895E5CF0895A5E0B0E0EAE009
:100C1000F6E077C5182F80E8898380EC8A8384E921
:100C20008B8384ED8C83FE01E60FF11D8181810FA2
:100C30006D830FDF1093BE016D816093BD0125961A
:100C4000E3E07BC5E2CF0895A0E0B0E0E9E2F6E0A2
:100C500053C5D82E8091BB019091BC01009709F437
:100C6000F2C02D2D2A3009F442C02830C9F48091F9
:100C7000BE0181508093BE018F3F51F48091BD0130
:100C800081508093BD0180910C0181508093BE0101
:100C90008091BD018F3F09F0D1C01092BD01CCC041
:100CA0008D2DDADE8091BD018823B9F090E00197A7
:100CB00040910C0150E0849F9001859F300D949FDE
:100CC000300D11248091BE01E091BB01F091BC0177
:100CD000E20FF31FE80FF11DD0828091BE018F5FFC
:100CE0008093BE0190910C01891709F0ACC040912E
:100CF000BD01242F30E080910B0190E0019728176F
:100D0000390709F096C0C0E0D0E03FC080E06C2F0A
:100D10007CDFCC248E010F5F1F4F32C0EC2CFF24F0
:100D200030E0C29FC001C39F900DD29F900D11244F
:100D3000E091BB01F091BC01EE0DFF1DE80FF91F22
:100D400080818ADE8091BB019091BC0120910C01D1
:100D500030E0C29FF001C39FF00DD29FF00D11242F
:100D60008E0D9F1DE80FF91F029FD001039FB00D4C
:100D7000129FB00D1124A80FB91F8C918083C394CA
:100D800020910C01C21650F2E80160910B01862FF0
:100D900090E00297C817D9070CF4B8CF6230D0F1B1
:100DA000625080E032DF00E010E230C0C02FD0E0BF
:100DB00080910B0190E0029750E0849F9001859F05
:100DC000300D949F300D1124E091BB01F091BC01D6
:100DD000EC0FFD1FE20FF31F80813EDE80910B01BF
:100DE00090E0029740910C0150E0849F9001859F14
:100DF000300D949F300D1124E091BB01F091BC01A6
:100E0000EC0FFD1FE20FF31F10830F5F40910C01E9
:100E1000041760F260910B01615080E0F6DE10E093
:100E200003C080E219DE1F5F80910C011817C8F320
:100E300003C04F5F4093BD011092BE018091BE017F
:100E40006091BD01E2DE2D2D332727FD3095C901CC
:100E5000CDB7DEB7E8E06CC48091BB019091BC01D6
:100E6000009709F02BD620910B0130E02150304043
:100E700080910C0190E0AC01249FC001259F900D52
:100E8000349F900D112482D59093BC018093BB01B7
:100E9000009719F1A0E0B0E208C0E091BB01F09129
:100EA000BC01E20FF31FB083AF5F2A2F30E08091C7
:100EB0000B0190E0019760910C0170E0869FA0010A
:100EC000879F500D969F500D1124241735072CF342
:100ED00084E296E06BE974E080C60895BDCF089582
:100EE000FC011182108213821282158214821682F2
:100EF000683068F489E290E0918380838BE290E02F
:100F0000938382838AE290E09583848323C0603157
:100F100080F483E290E09183808385E290E0938384
:100F2000828384E290E09583848370E0685070400F
:100F300011C06831C0F486E290E09183808388E23A
:100F400090E09383828387E290E09583848370E0CE
:100F50006051704081E090E002C0880F991F6A954F
:100F6000E2F7868308956032C0F480E290E09183D6
:100F7000808382E290E09383828381E290E0958394
:100F800084832FE130E0261B310981E090E002C02C
:100F9000880F991F2A95E2F786830895FC01A481A2
:100FA000B5818681662321F09C91982B9C930895AE
:100FB0009C91809589238C930895FC016F3F31F4B7
:100FC000A281B3818C91968189270CC0A281B381C3
:100FD0008681662321F09C91982B9C9308959C9187
:100FE000809589238C930895A7E0B0E0E9EFF7E0BE
:100FF00086C3282FF62E8E010F5F1F4FC801622F68
:101000006FDFC8016F2DD9DFC80161E0C7DF279608
:10101000E5E091C383E08093B00082E08093B1006B
:10102000E4EBF0E0108280818093B30087E160E020
:10103000DBDF86E160E0D8DF87E060E0D5DF86E0D7
:1010400060E0D2CF8091C401882321F481E08093B5
:10105000C401E0CF0895CF93DF93EC01F3DFD7FF16
:1010600005C0D095C195DF4F91E001C090E0CF3F22
:10107000D10519F014F0CFEFD0E0C093B300209762
:1010800031F48091B0008F778093B0000DC08091D3
:10109000B00080688093B000992319F087E161E087
:1010A00002C087E160E0A0DFDF91CF910895CF9388
:1010B000DF93EC01C7DFD7FF05C0D095C195DF4FA7
:1010C00091E001C090E0CF3FD10519F014F0CFEFCF
:1010D000D0E0C093B400209731F48091B0008F7DB0
:1010E0008093B0000DC08091B00080628093B0000A
:1010F000992319F086E161E002C086E160E074DFC7
:10110000DF91CF910895CF93DF93EB01A4DFCE0160
:10111000CEDFDF91CF910895F6CF089587B1837D1B
:1011200087B988B18C6288B985E090E06F9364E0FC
:101130006A95F1F76F910197C9F708958091C501FC
:10114000882321F481E08093C501E8CF0895A1E0D0
:10115000B0E0ECEAF8E0D6C28983F0DF96B1909572
:10116000898189232196E2E0E9C2F1CF0895282FF1
:1011700030E0F901EE0FFF1FB3E0220F331FBA95E5
:10118000E1F7E20FF31FE35FFE4F40855185411504
:10119000510509F452C0282F30E0F901EE0FFF1F6E
:1011A00073E0220F331F7A95E1F7E20FF31FE35F3D
:1011B000FE4F7281282F30E0F901EE0FFF1FB3E0E0
:1011C000220F331FBA95E1F7E20FF31FE35FFE4FE3
:1011D0009481791790F5282F30E0F901EE0FFF1F69
:1011E00073E0220F331F7A95E1F7E20FF31FE35FFD
:1011F000FE4F9281490F511DFA016083282F30E084
:10120000F901EE0FFF1F53E0220F331F5A95E1F74C
:10121000E20FF31FE35FFE4F92819F5F282F30E0C4
:10122000F901EE0FFF1FB3E0220F331FBA95E1F76C
:10123000E20FF31FE35FFE4F9283282F30E0F901A6
:10124000EE0FFF1F73E0220F331F7A95E1F7E20FD5
:10125000F31FE35FFE4F4281282F30E0F901EE0FCC
:10126000FF1F53E0220F331F5A95E1F7E20FF31FE0
:10127000E35FFE4F9481491701F5282F30E0F90113
:10128000EE0FFF1F93E0220F331F9A95E1F7E20F55
:10129000F31FE35FFE4F9581992379F0282F30E00B
:1012A000F901EE0FFF1FB3E0220F331FBA95E1F7EC
:1012B000E20FF31FE35FFE4F128208951F920F9219
:1012C0000FB60F920BB60F9211242F933F934F93AB
:1012D0005F936F937F938F939F93AF93BF93EF939E
:1012E000FF936091C60080E042DFFF91EF91BF91D4
:1012F000AF919F918F917F916F915F914F913F91AE
:101300002F910F900BBE0F900FBE0F901F9018954E
:101310001F920F920FB60F920BB60F9211242F93BC
:101320003F934F935F936F937F938F939F93AF936D
:10133000BF93EF93FF936091CE0081E018DFFF91A0
:10134000EF91BF91AF919F918F917F916F915F913D
:101350004F913F912F910F900BBE0F900FBE0F90AA
:101360001F901895882319F4E1ECF0E002C0E9EC35
:10137000F0E08081806280830895882319F4E1EC95
:10138000F0E002C0E9ECF0E080818F7D8083089579
:10139000282F30E0F901EE0FFF1F93E0220F331FDB
:1013A0009A95E1F7E20FF31FE35FFE4F2681378145
:1013B0002115310591F1282F30E0F901EE0FFF1FC3
:1013C000A3E0220F331FAA95E1F7E20FF31FE35FBB
:1013D000FE4F4181282F30E0F901EE0FFF1F63E03F
:1013E000220F331F6A95E1F7E20FF31FE35FFE4F11
:1013F0009381491790F4282F30E0F901EE0FFF1F79
:1014000043E0220F331F4A95E1F7E20FF31FE35F3A
:10141000FE4F9081992309F4A5CFAFCF282F30E05C
:10142000F901EE0FFF1F73E0220F331F7A95E1F7EA
:10143000E20FF31FE35FFE4F4681578141155105CF
:1014400009F465C0282F30E0F901EE0FFF1F93E08B
:10145000220F331F9A95E1F7E20FF31FE35FFE4F70
:101460006181282F30E0F901EE0FFF1FA3E0220F6A
:10147000331FAA95E1F7E20FF31FE35FFE4F93815D
:10148000691708F044C0882319F4E0ECF0E002C0CA
:10149000E8ECF0E0908195FF3AC0882319F4A6ECBF
:1014A000B0E002C0AEECB0E0282F30E0F901EE0F62
:1014B000FF1F63E0220F331F6A95E1F7E20FF31F6E
:1014C000E35FFE4F9181490F511DFA0190819C937A
:1014D000282F30E0F901EE0FFF1F93E0220F331F9A
:1014E0009A95E1F7E20FF31FE35FFE4F91819F5F53
:1014F000282F30E0F901EE0FFF1FA3E0220F331F6A
:10150000AA95E1F7E20FF31FE35FFE4F918340CF0F
:101510001F920F920FB60F920BB60F9211242F93BA
:101520003F934F935F936F937F938F939F93AF936B
:10153000BF93EF93FF9380E071DFFF91EF91BF9135
:10154000AF919F918F917F916F915F914F913F915B
:101550002F910F900BBE0F900FBE0F901F901895FC
:101560001F920F920FB60F920BB60F9211242F936A
:101570003F934F935F936F937F938F939F93AF931B
:10158000BF93EF93FF9381E049DFFF91EF91BF910C
:10159000AF919F918F917F916F915F914F913F910B
:1015A0002F910F900BBE0F900FBE0F901F901895AC
:1015B0006F9364E06A95F1F76F910197C9F7089509
:1015C0002F928F939F932FB68091D3019091D40146
:1015D00001968093D3019093D40190E08091D5013E
:1015E000891F8093D5019091DB019C5F9093DB0173
:1015F0008091DA0180519742C0F09093DB01809393
:10160000DA018091D6019091D70101968093D6019D
:101610009093D70190E08091D801891F8093D801E1
:101620008091D901891F8093D9012FBE9F918F91FD
:101630002F901895CF93DF93EC0104C088EE93E0D0
:10164000B7DF21972097D1F7DF91CF910895F2CF9F
:101650000895AA1BBB1B51E107C0AA1FBB1FA617F9
:10166000B70710F0A61BB70B881F991F5A95A9F74B
:1016700080959095BC01CD01089597FB072E16F437
:10168000009406D077FD08D0E4DF07FC05D03EF4D7
:10169000909581959F4F0895709561957F4F08951E
:1016A000A1E21A2EAA1BBB1BFD010DC0AA1FBB1F66
:1016B000EE1FFF1FA217B307E407F50720F0A21BD8
:1016C000B30BE40BF50B661F771F881F991F1A9445
:1016D00069F760957095809590959B01AC01BD016F
:1016E000CF0108952F923F924F925F926F927F9217
:1016F0008F929F92AF92BF92CF92DF92EF92FF9222
:101700000F931F93CF93DF93CDB7DEB7CA1BDB0BCD
:101710000FB6F894DEBF0FBECDBF09942A88398872
:1017200048885F846E847D848C849B84AA84B98479
:10173000C884DF80EE80FD800C811B81AA81B98185
:10174000CE0FD11D0FB6F894DEBF0FBECDBFED0199
:10175000089570D088F09F5790F0B92F9927B7510E
:10176000A0F0D1F0660F771F881F991F1AF0BA9565
:10177000C9F712C0B13081F077D0B1E0089574C0DC
:10178000672F782F8827B85F39F0B93FCCF386955B
:1017900077956795B395D9F73EF4909580957095B8
:1017A00061957F4F8F4F9F4F0895E89409C097FB35
:1017B0003EF490958095709561957F4F8F4F9F4F28
:1017C0009923A9F0F92F96E9BB279395F69587956C
:1017D00077956795B795F111F8CFFAF4BB0F11F42F
:1017E00060FF1BC06F5F7F4F8F4F9F4F16C08823D6
:1017F00011F096E911C0772321F09EE8872F762F0C
:1018000005C0662371F096E8862F70E060E02AF04C
:101810009A95660F771F881FDAF7880F9695879538
:1018200097F9089557FD9058440F551F59F05F3FA1
:1018300071F04795880F97FB991F61F09F3F79F0F2
:1018400087950895121613061406551FF2CF469574
:10185000F1DF08C0161617061806991FF1CF8695F6
:101860007105610508940895E894BB2766277727DA
:10187000CB0197F908950BD078C069D028F06ED0CD
:1018800018F0952309F05AC05FC01124EECFCADFCB
:10189000A0F3959FD1F3950F50E0551F629FF00183
:1018A000729FBB27F00DB11D639FAA27F00DB11DDC
:1018B000AA1F649F6627B00DA11D661F829F222765
:1018C000B00DA11D621F739FB00DA11D621F839FEC
:1018D000A00D611D221F749F3327A00D611D231FC2
:1018E000849F600D211D822F762F6A2F11249F5710
:1018F00050408AF0E1F088234AF0EE0FFF1FBB1F33
:10190000661F771F881F91505040A9F79E3F5105D1
:1019100070F014C0AACF5F3FECF3983EDCF38695DD
:1019200077956795B795F795E7959F5FC1F7FE2B7C
:10193000880F911D9695879597F9089597F99F6758
:1019400080E870E060E008959FEF80EC0895002447
:101950000A941616170618060906089500240A9414
:1019600012161306140605060895092E0394000C9A
:1019700011F4882352F0BB0F40F4BF2B11F460FF29
:1019800004C06F5F7F4F8F4F9F4F0895CF93DF93BA
:101990008230910510F482E090E0E0910302F09132
:1019A000040220E030E0A0E0B0E0309739F140815F
:1019B000518148175907B8F04817590771F48281C7
:1019C0009381109729F013969C938E9312972CC0B5
:1019D000909304028093030227C02115310531F052
:1019E0004217530718F0A901DB0101C0EF019A016A
:1019F000BD01DF010280F381E02DD7CF2115310534
:101A0000F9F0281B390B2430310580F48A819B8141
:101A10006115710521F0FB019383828304C09093CB
:101A2000040280930302FE01329644C0FE01E20FDD
:101A3000F31F8193919322503109398328833AC04F
:101A40002091010230910202232B41F420913501B3
:101A5000309136013093020220930102209133012C
:101A6000309134012115310541F42DB73EB7409135
:101A7000370150913801241B350BE0910102F091A0
:101A80000202E217F307A0F42E1B3F0B28173907B9
:101A900078F0AC014E5F5F4F2417350748F04E0FCA
:101AA0005F1F50930202409301028193919302C001
:101AB000E0E0F0E0CF01DF91CF910895CF93DF9385
:101AC000009709F487C0FC01329713821282C091FB
:101AD0000302D0910402209781F420813181280FE4
:101AE000391F80910102909102028217930779F5C4
:101AF000F0930202E09301026DC0DE0120E030E0CD
:101B0000AE17BF0750F412964D915C9113979D014B
:101B10004115510509F1DA01F3CFB383A283408166
:101B20005181840F951F8A179B0771F48D919C91A9
:101B30001197840F951F02969183808312968D9141
:101B40009C911397938382832115310529F4F09397
:101B50000402E09303023EC0D9011396FC93EE9376
:101B600012974D915D91A40FB51FEA17FB0779F409
:101B700080819181840F951F0296D90111969C93C3
:101B80008E938281938113969C938E931297E0E0BB
:101B9000F0E08A819B81009719F0FE01EC01F9CFFA
:101BA000CE01029628813981820F931F2091010274
:101BB000309102022817390769F4309729F41092FE
:101BC00004021092030202C013821282D093020216
:101BD000C0930102DF91CF9108950F931F93CF938C
:101BE000DF93EC018B01009731F46115710519F455
:101BF00080E090E037C06EE070E081E090E063D27A
:101C0000FC010097A9F380E883830115110571F0A9
:101C10001387028781E883838091050290910602F1
:101C2000892B21F4F0930602E09305022097C9F076
:101C3000D187C087838182608383809107029091DE
:101C40000802892B71F4F0930802E0930702809157
:101C5000090290910A02892B21F4F0930A02E09381
:101C60000902CF01DF91CF911F910F910895CF937A
:101C7000DF93CDB7DEB7FE01359661917191AF016B
:101C8000809107029091080230D0DF91CF910895A2
:101C90000F931F93CF93DF93E0910702F091080217
:101CA000238121FF1BC0EC0100E010E089916091CD
:101CB000070270910802DB011896ED91FC911997CB
:101CC000882331F00995892B89F30FEF1FEFEECFB1
:101CD0008AE00995892B11F4C80102C08FEF9FEFAC
:101CE000DF91CF911F910F9108952F923F924F92C4
:101CF0005F926F927F928F929F92AF92BF92CF929C
:101D0000DF92EF92FF920F931F93CF93DF93CDB7A4
:101D1000DEB72C970FB6F894DEBF0FBECDBF7C01A7
:101D20006B018A01FC0117821682838181FFB0C199
:101D3000CE0101964C01F7019381F60193FD859147
:101D400093FF81916F01882309F49EC1853239F494
:101D500093FD859193FF81916F01853221F4B70145
:101D600090E0E8D1E8CF512C312C20E02032A0F4D3
:101D70008B3269F030F4803259F0833269F420619B
:101D80002CC08D3239F0803339F4216026C02260B6
:101D9000246023C0286021C027FD27C030ED380F04
:101DA0003A3078F426FF06C0FAE05F9E300D112429
:101DB000532E13C08AE0389E300D1124332E20623A
:101DC0000CC08E3221F426FD5FC1206406C08C3623
:101DD00011F4206802C0883641F4F60193FD859124
:101DE00093FF81916F018111C1CF982F9F7D9554F1
:101DF000933028F40C5F1F4FFFE3F9830DC0833647
:101E000031F0833771F0833509F057C021C0F801F4
:101E1000808189830E5F1F4F44244394512C5401C9
:101E200014C03801F2E06F0E711CF801A080B1807F
:101E300026FF03C0652D70E002C06FEF7FEFC50184
:101E40002C876DD12C0183012C852F77222E16C073
:101E50003801F2E06F0E711CF801A080B18026FFFE
:101E600003C0652D70E002C06FEF7FEFC5012C87C6
:101E700044D12C012C852068222E830123FC19C01B
:101E8000832D90E048165906A0F4B70180E290E057
:101E900051D13A94F5CFF50127FC859127FE819128
:101EA0005F01B70190E046D131103A94F1E04F1A4A
:101EB00051084114510479F7DEC0843611F0893697
:101EC00031F5F80127FF07C060817181828193811C
:101ED0000C5F1F4F08C060817181882777FD809556
:101EE000982F0E5F1F4F2F76B22E97FF09C0909547
:101EF0008095709561957F4F8F4F9F4F2068B22ED0
:101F00002AE030E0A40148D1A82EA81843C08537A4
:101F100029F42F7EB22E2AE030E025C0F22FF97F7F
:101F2000BF2E8F36C1F018F4883579F0ADC08037F8
:101F300019F0883721F0A8C02F2F2061B22EB4FEEF
:101F40000DC08B2D8460B82E09C024FF0AC09F2FBE
:101F50009660B92E06C028E030E005C020E130E0F0
:101F600002C020E132E0F801B7FE07C06081718154
:101F7000828193810C5F1F4F06C06081718180E078
:101F800090E00E5F1F4FA40107D1A82EA818FB2DCB
:101F9000FF77BF2EB6FE0BC02B2D2E7FA51450F45D
:101FA000B4FE0AC0B2FC08C02B2D2E7E05C07A2CD0
:101FB0002B2D03C07A2C01C0752C24FF0DC0FE010F
:101FC000EA0DF11D8081803311F4297E09C022FFC2
:101FD00006C07394739404C0822F867809F07394BA
:101FE00023FD12C020FF06C05A2C731418F4530CA2
:101FF0005718732C731460F4B70180E290E02C87BB
:1020000099D073942C85F6CF731410F4371801C04F
:10201000312C24FF11C0B70180E390E02C878AD0D7
:102020002C8522FF16C021FF03C088E590E002C086
:1020300088E790E0B7010CC0822F867851F021FD2F
:1020400002C080E201C08BE227FD8DE2B70190E083
:1020500071D0A51430F4B70180E390E06BD05A94AE
:10206000F8CFAA94F401EA0DF11D8081B70190E048
:1020700061D0A110F6CF332009F45DCEB70180E224
:1020800090E058D03A94F7CFF7018681978102C04B
:102090008FEF9FEF2C960FB6F894DEBF0FBECDBF2B
:1020A000DF91CF911F910F91FF90EF90DF90CF9034
:1020B000BF90AF909F908F907F906F905F904F9068
:1020C0003F902F9008950F931F93CF93DF93869F98
:1020D0008001879F100D969F100D1124C80156DCBA
:1020E000EC01009721F0A80160E070E011D0CE0172
:1020F000DF91CF911F910F910895FC0105906150E0
:1021000070400110D8F7809590958E0F9F1F08950D
:10211000DC0101C06D9341505040E0F70895FC018F
:102120006150704001900110D8F7809590958E0F06
:102130009F1F08950F931F93CF93DF93182F092F9D
:10214000EB018B8181FD03C08FEF9FEF20C082FFE9
:1021500010C04E815F812C813D81421753077CF472
:10216000E881F9819F012F5F3F4F398328831083D6
:1021700006C0E885F985812F0995892B29F72E81DD
:102180003F812F5F3F4F3F832E83812F902FDF9121
:10219000CF911F910F910895FA01AA27283051F18C
:1021A000203181F1E8946F936E7F6E5F7F4F8F4F88
:1021B0009F4FAF4FB1E03ED0B4E03CD0670F781FE7
:1021C000891F9A1FA11D680F791F8A1F911DA11DCC
:1021D0006A0F711D811D911DA11D20D009F4689405
:1021E0003F912AE0269F11243019305D3193DEF6AD
:1021F000CF010895462F4770405D4193B3E00FD063
:10220000C9F7F6CF462F4F70405D4A3318F0495D4D
:1022100031FD4052419302D0A9F7EACFB4E0A69530
:102220009795879577956795BA95C9F70097610552
:10223000710508959B01AC010A2E069457954795A8
:1022400037952795BA95C9F7620F731F841F951F9D
:08225000A01D0895F894FFCFD2
:1022580001F401F401F40101010101021000000080
:102268000000000000000000000000000000000066
:102278000001000000000000000000FFFFFFFFFF5A
:10228800FFFFFF00000B022000200043616E6E6F0D
:102298007420746F67676C65206E65676174697612
:1022A80065206D732E00436F6E76657274656420C9
:1022B800746F20746F67676C6520706572696F64EE
:1022C8003A2025642E0A00477265656E2025642C25
:0622D8002025640A00004D
:00000001FF
