:10000000EDC0000009C1000007C1000005C10000EB
:1000100003C1000001C10000FFC0000067C1000073
:10002000FBC00000F9C00000F7C000000C94641190
:10003000F3C00000EAC60000EFC00000EDC0000001
:10004000DFC20000E9C00000E7C00000E5C000001A
:100050000C94140F0C940C11DFC00000DDC00000E4
:10006000DBC00000D9C00000D7C00000D5C0000030
:100070000C943E0F0C943411CFC00000CDC0000092
:1000800061C60000C9C00000C7C000006E616E00FC
:10009000696E66006364696E6F70737578585B652E
:1000A000666745464700616E006E66696E697479E1
:1000B00000CDCCCC3D0AD7233C17B7D13877CC2B19
:1000C000329595E6241FB14F0A000020410000C878
:1000D0004200401C4620BCBE4CCA1B0E5AAEC59DF9
:1000E0007400407A10F35A00A0724E18090010A54F
:1000F000D4E80000E87648170000E40B5402000042
:10010000CA9A3B000000E1F50500008096980000C7
:100110000040420F000000A08601000000102700F0
:10012000000000E803000000006400000000000A76
:1001300000000000000100000000002C76D888DCE0
:10014000674F0823DFC1DFAE59E1B1B796E5E3E4BD
:1001500053C63AE651997696E8E6C28426EB898C36
:100160009B62ED407C6FFCEFBC9C9F40F2BAA56F98
:10017000A5F490055A2AF75C936B6CF9676DC11B67
:10018000FCE0E40D47FEF520E6B500D0ED902E032F
:1001900000943577050080841E080000204E0A0078
:1001A0000000C80C333333330F986E12831141EFC4
:1001B0008D2114893BE65516CFFEE6DB18D1844B22
:1001C000381BF77C1D901DA4BBE424203284725E92
:1001D000228100C9F124ECA1E53D270011241FBEB6
:1001E000CFEFD0E4DEBFCDBF13E0A0E0B1E0E0EFA1
:1001F000F0E400E00BBF02C007900D92A435B107F8
:10020000D9F714E0A4E5B3E001C01D92A533B1070E
:10021000E1F7C7D70C947620F3CE809107018F5F6A
:100220008093070108951092AC031092AB031092D3
:10023000AA031092A9031092A8031092A703109288
:10024000A6031092A5031092A4031092A303109288
:100250009A031092990310927A03109279031092E4
:100260007803109277031092760310927503109220
:100270007403109273031092720310927103109220
:10028000700310926F0308958AB1807F8AB981E06C
:1002900090E04A9902C080E090E09093A803809398
:1002A000A70381E090E04B9902C080E090E090933A
:1002B000A6038093A50381E090E0489902C080E006
:1002C00090E0909376038093750381E090E04999E4
:1002D00002C080E090E090937403809373038FE0FA
:1002E0008093730088E08093680008951F920F92B6
:1002F0000FB60F9211240BB60F922F933F934F938B
:100300005F936F937F938F939F93AF93EF93FF933D
:1003100081E090E04A9902C080E090E09093AC03C5
:100320008093AB0381E090E04B9902C080E090E0C5
:100330009093AA038093A90381E090E0489902C0BA
:1003400080E090E090937A038093790381E090E0DD
:10035000499902C080E090E09093780380937703FE
:100360002091AB033091AC038091A5039091A6033B
:100370004091A9035091AA03A42F4091A703509143
:10038000A803F42F4091790350917A03E42F409110
:10039000730350917403742F409177035091780345
:1003A000642F4091750350917603342F281749F03C
:1003B0008091A3039091A40301969093A40380934A
:1003C000A303AF1749F08091A3039091A403019771
:1003D0009093A4038093A303E71749F080917103DE
:1003E0009091720301969093720380937103631747
:1003F00049F0809171039091720301979093720379
:10040000809371038091AB039091AC039093A80308
:100410008093A7038091A9039091AA039093A603C8
:100420008093A5038091790390917A03909376034A
:100430008093750380917703909178039093740370
:1004400080937303FF91EF91AF919F918F917F9173
:100450006F915F914F913F912F910F900BBE0F9035
:100460000FBE0F901F9018959093B2038093B10325
:1004700082309105A1F018F4019739F00895833086
:10048000910541F0049759F0089570930904609321
:100490000804089570930704609306040895109269
:1004A000800310927F0310928603109285031092AE
:1004B00088031092870308958091B1039091B2034D
:1004C000019709F04AC0809191039091920397FFA0
:1004D00003C09195819591090B974CF480917F030E
:1004E0009091800301969093800380937F032091E5
:1004F0007F0330918003E0918503F0918603EE0F36
:10050000FF1FE05DFE4F8081918182179307BCF44D
:100510001092800310927F0380918503909186034F
:100520000196909386038093850380918503909133
:1005300086030A9724F01092860310928503E091B7
:100540008503F0918603EE0FFF1FEC5BFE4F808169
:100550009181909309048093080408958091B103D8
:100560009091B203039709F04AC080919303909150
:10057000940397FF03C091958195910940974CF49E
:1005800080917F03909180030196909380038093E4
:100590007F0320917F0330918003E0918703F091E6
:1005A0008803EE0FFF1FE85FFE4F80819181821765
:1005B0009307BCF41092800310927F03809187030D
:1005C000909188030196909388038093870380918C
:1005D0008703909188030A9724F010928803109261
:1005E0008703E0918503F0918603EE0FFF1FE45E21
:1005F000FE4F8081918190930704809306040895B3
:100600001F920F920FB60F9211240BB60F92AF925A
:10061000BF92CF92DF92EF92FF920F931F932F938F
:100620003F934F935F936F937F938F939F93AF937A
:10063000BF93CF93DF93EF93FF93C091B103D0911A
:10064000B203C130D10508F4EBC0C330D10528F0A6
:10065000C530D10508F46DC0E3C08091B30390911B
:10066000B40301969093B4038093B3038436910549
:100670000CF4D6C00091A3031091A40380919503BC
:1006800090919603B801681B790B882777FD8095B8
:10069000982F0E9452166B017C0160937B0370932C
:1006A0007C0380937D0390937E03109396030093C5
:1006B00095036091080470910904882777FD80955F
:1006C000982F0E945216A70196010E94BA150E9407
:1006D0001F167093920360939103009199031091F8
:1006E0009A036091910370919203882777FD80951A
:1006F000982F0E9452162DEC3CEC4CE45EE30E94D5
:10070000DE160E941F16600F711F70939A0360938C
:100710009903C0928D03D0928E03E0928F03F092E2
:100720009003229709F4C8DE1092B4031092B30329
:1007300077C080910604909107042091A303309123
:10074000A403821B930B9093940380939303809153
:100750008B0390918C032091A3033091A403821BFF
:10076000930B9093840380938303809181039091F2
:1007700082032091930330919403820F931F9093EF
:100780008203809381036091930370919403A090FE
:100790008103B09082030091830310918403882722
:1007A00077FD8095982F0E9452162DEC3CEC4CE47E
:1007B0005EE30E94DE160E941F166B017C01B501EC
:1007C000882777FD8095982F0E94521626EA3BE9EC
:1007D00044EC5AE30E94DE160E941F16C60ED71E76
:1007E000B801882777FD8095982F0E94521620E047
:1007F00030E040EA50E40E94DE160E941F16C61A3E
:10080000D70AD0929A03C09299038091A303909142
:10081000A40390938C0380938B03249709F49EDEAA
:10082000FF91EF91DF91CF91BF91AF919F918F9108
:100830007F916F915F914F913F912F911F910F91F8
:10084000FF90EF90DF90CF90BF90AF900F900BBED6
:100850000F900FBE0F901F901895861797072CF0DA
:10086000481759071CF4CA010895CB01089597FF52
:1008700003C091958195910908958AB1806C8AB9D8
:1008800087B1806C87B983E88093B00082E0809361
:10089000B1001092B3000895C6DCF6DCEECF6130F3
:1008A0002FEF720774F06F3F710509F02CF4019778
:1008B00099F477FD0AC003C0019771F46FEF479A6E
:1008C00008C0019749F461E07FEF47987195619501
:1008D00071096093B3000895089580E20E940C0DA1
:1008E000882361F18091990390919A031816190653
:1008F00034F48091990390919A030A9605C08091EF
:10090000990390919A030A9790939A03809399037D
:1009100080916F03909170031816190634F480913A
:100920006F03909170030A9605C080916F039091B8
:1009300070030A979093700380936F0388E00E947E
:100940000C0D882301F160E070E080E090E00E94EF
:10095000E10C88EC90E00E94AB118091990390919A
:100960009A0391958195910990939A0380939903A5
:1009700080916F0390917003919581959109909367
:10098000700380936F0384E00E940C0D882361F153
:100990008091990390919A031816190634F4809166
:1009A000990390919A030A9705C0809199039091B9
:1009B0009A030A9690939A038093990380916F0308
:1009C000909170031816190634F480916F0390917A
:1009D00070030A9705C080916F03909170030A9687
:1009E0009093700380936F038091990390919A0381
:1009F0008F3F910519F014F08FEF90E081302FEFC9
:100A0000920714F481E09FEF90939A0380939903E7
:100A100080916F03909170038F3F910519F014F04E
:100A20008FEF90E081302FEF920714F481E09FEF79
:100A30009093700380936F036091990370919A0370
:100A400081E090E02CDF82E390E00E94AB1160E057
:100A500080E046D56091A3037091A403882777FDB9
:100A60008095982F1CD589E891E0C0D460919903B6
:100A700070919A03882777FD8095982F10D58AE882
:100A800091E0B4D461E080E02BD560919303709144
:100A90009403882777FD8095982F01D589E891E008
:100AA000A5D460917B0370917C0380917D0390912C
:100AB0007E030E941F16F3D489E891E097D46091D9
:100AC000910370919203882777FD8095982FE7D442
:100AD0008AE891E08BC4A0E2B0E0E1E7F5E00C9495
:100AE000191C14D26CE871E08E010F5F1F4FC80112
:100AF0000E94801E65E170E0C80110D207D280918B
:100B0000A2038F938091A1038F938091A0038F9371
:100B100080919F038F9380E48F9380EA8F931F923D
:100B20001F928AE38F9384EC8F938BE98F9386EAED
:100B30008F938EE38F938CE48F938CEC8F938DEC5B
:100B40008F9382EA91E09F938F931F930F930E945C
:100B50008B1FBC01C801E2D1D9D10FB6F894DEBF1A
:100B60000FBECDBFA096E4E00C94351C9093AE036D
:100B70008093AD030895809158018F5F8093580151
:100B8000089511B81AB811B80A9A559A089A129A83
:100B90005D9A109A28EC30E01092E2031092E30381
:100BA0001092E4031092E5038091E2039091E30335
:100BB000A091E403B091E5038C3B9541A105B105FB
:100BC000A0F48091E2039091E303A091E403B0913B
:100BD000E5030196A11DB11D8093E2039093E30309
:100BE000A093E403B093E503DFCF21503109211531
:100BF000310591F612985D98109810925903109251
:100C00005A0310925B0310925C0310925D031092E2
:100C10005E0310925F0310926003109255031092CE
:100C20005603109257031092580308950F931F9381
:100C3000CF93C82F9B0177FF05C080EB91E00E9406
:100C40005E1F7CC0CB0164E670E00E94D61B890168
:100C5000081B190B1F930F932BEC31E03F932F933D
:100C60000E944C1F0F900F900F900F90C23519F0FB
:100C7000C13409F05DC00115110511F40A9801C0D5
:100C80000A9A1093060100930501C93529F401154C
:100C9000110531F4089805C0C13409F04CC0F7CFF4
:100CA000089A1093020100930101C73429F4011539
:100CB000110531F455980BC0C13409F03FC0F7CF8E
:100CC000559A013A8FE0180714F000EA1FE01093DC
:100CD0000401009303011016110684F5B80180E0A9
:100CE00090E00E94501621E73DE34CE951E40E9458
:100CF000DE160E942416709389006093880080910C
:100D00008800909189009F938F93809104018F9325
:100D1000809103018F938CEE91E09F938F930E94BB
:100D20004C1F0F900F900F900F900F900F9006C0D8
:100D3000C93509F4ACCFC73409F4B9CFCF911F91AD
:100D40000F9108951F920F920FB60F9211240F93D7
:100D50001F932F933F935F936F937F938F939F93F3
:100D6000AF93BF93009167031091680320916903CB
:100D700030916A030F5F1F4F2F4F3F4F0093670360
:100D8000109368032093690330936A0380910101F3
:100D90009091020164E670E00E94C21BCB01A0E0CA
:100DA000B0E0081719072A073B07F8F082B191E075
:100DB000892782B98091550390915603A0915703DA
:100DC000B09158030196A11DB11D809355039093D6
:100DD0005603A0935703B0935803109267031092E1
:100DE00068031092690310926A03BF91AF919F91BB
:100DF0008F917F916F915F913F912F911F910F91F3
:100E00000F900FBE0F901F9018951F920F920FB664
:100E10000F9211248F939F93AF93BF9380915903A7
:100E200090915A03A0915B03B0915C030196A11DC0
:100E3000B11D8093590390935A03A0935B03B09321
:100E40005C03BF91AF919F918F910F900FBE0F9058
:100E50001F901895809159018F5F809359010895D3
:100E600082E884BD84E085BD8EE487BD82E0809306
:100E70006E00109263031092640310926503109247
:100E8000660380E8809390008BE08093910082E17C
:100E90009AE79093990080939800E1E7F0E08081D1
:100EA0008260808310926703109268031092690336
:100EB00010926A0380E4809380008DE0809381002B
:100EC000609103017091040180E090E00E9450164F
:100ED00021E73DE34CE951E40E94DE160E9424160E
:100EE000709389006093880081E090E090938B007C
:100EF00080938A00EFE6F0E080818260808308952D
:100F000080915A018F5F80935A01089582E096D5AF
:100F1000811103C00E94D610F9CF0895462FBC015D
:100F200082E00E940A11F2CF61E270E08AEF91E064
:100F3000F5DF65E270E08CE192E0F0DF68E170E0FF
:100F400082E492E0EBDF69E170E08BE592E0E6DFBE
:100F500060E170E085E792E0E1DF60E170E086E863
:100F600092E0DCDF60E170E087E992E0D7DF60E1EA
:100F700070E088EA92E0D2DF67E170E089EB92E00E
:100F8000CDCF40E855E260E070E082E00E9428109A
:100F900040E26AE074E082E045D768E170E081ED0C
:100FA00092E0BCDFC1DF68E170E08AEE92E0B6CF8C
:100FB000A1E2B0E0EEEDF7E00C94191C9E012F5D6C
:100FC0003F4F3F932F9323E033E03F932F939F9323
:100FD0008F930E94BA1F60E080E082D229A1822F05
:100FE000992787FD90959F932F9386E093E09F9399
:100FF0008F930E944C1F29A1822F992787FD9095DE
:101000009F932F938EE093E09F938F938E010F5FBA
:101010001F4F1F930F930E948B1FBC01C8017EDFDF
:101020000FB6F894DEBF0FBECDBF89A18836F1F0B0
:101030007CF4823531F134F48C34D1F0803509F40C
:1010400041C03BC0843571F124F18635C1F035C013
:101050008237B9F02CF48C3671F0803799F12DC0BD
:10106000843729F1B4F0863751F027C05DDF2AC0FC
:1010700081E090E002C080E090E078DD23C02BDDCD
:1010800021C066E173E0C8010E94801E6DE070E03F
:1010900007C064E273E0C8010E94801E6CE070E04B
:1010A000C8010FC060E070E084E090E004C060E040
:1010B00070E082E090E0D8D905C06BE170E081E398
:1010C00093E02CDF68E170E08AEE92E027DFA196E2
:1010D000E4E00C94351CA0E2B0E0E1E7F8E00C9409
:1010E000171C82E09BD490912A042091B503309183
:1010F000B6038917D9F0A1E0B0E0AC0FBD1FA20F75
:10110000B31FE92FF0E0E65FFB4F80818C932F5FE8
:101110003F4F3093B6032093B5039F3119F41092DB
:101120002A04DFCF9F5F90932A04DBCF211531057E
:10113000A1F12130310519F489818A3051F18E01F4
:101140000F5F1F4FF801E20FF31F108261E080E094
:10115000C7D18DE493E04AD16091B5037091B60395
:10116000882777FD8095982F9AD189E2BAD07801A7
:101170008091B5039091B6039701201B310B28177E
:1011800039072CF4F70181917F01ABD0F1CFC80171
:101190000FDF1092B6031092B503A096E6E00C9410
:1011A000331C7ADBEED25CDEECDE0BD1789495DB7F
:1011B000FDD791DFFCCF80E090E0089581E090E0E2
:1011C0006F9364E06A95F1F76F910197C9F70895FD
:1011D0000F931F93CF93DF9317B13D982898299AC7
:1011E000C0E0D0E0EBDF2A9AE9DF06B12A98E6DF1B
:1011F0002A9AE4DF2A98249605FF10C09E0140E059
:1012000050E08091BB039091BC03A091BD03B091CD
:10121000BE03281739074A075B0720F39E0140E009
:1012200050E08091BB039091BC03A091BD03B091AD
:10123000BE03281739074A075B0728F082E390E0CE
:10124000A0E0B0E004C080E395E7A0E0B0E08093C8
:10125000BB039093BC03A093BD03B093BE0317B927
:10126000DF91CF911F910F91089528B190E08F7079
:101270009070880F991F880F991F237C282B28B9FD
:101280002A9A9CDF2A989ACFA2E0B0E0EAE4F9E03B
:101290000C94181C182F4A8369835FD099DFF7B02C
:1012A00008B1299869814A81662311F0289A01C002
:1012B000289887B18C6387B9413021F0812F8295BE
:1012C0008F70D3DF812F8F70D0DFF7B808B92296E7
:1012D000E5E00C94341C60E042E0D6CF61E042E0EF
:1012E000D3CFFCCF089560E041E0CECF3D98459A42
:1012F00080E395E7A0E0B0E08093BB039093BC034C
:10130000A093BD03B093BE03209A219A229A8EE146
:1013100090E00E94AB1183E0E6DF86E090E00E945F
:10132000AB1183E0E0DF82E090E00E94AB1183E04C
:10133000DADF82E090E00E94AB1182E0D4DF82E04D
:1013400090E00E94AB1188E2C6DF88E0C4DF81E054
:10135000C2DF86E0C0DF8CE0BECF8091BF03882370
:1013600021F481E08093BF03C1CF089581E0B3DF12
:101370008091B7039091B803009711F1A0E0B0E21B
:1013800008C0E091B703F091B803E20FF31FB083F8
:10139000AF5F2A2F30E080915B0190E00197609170
:1013A0005C0170E0869FA001879F500D969F500DB5
:1013B0001124241735072CF31092BA031092B903A5
:1013C0000895D4CF0895EF92FF92CF93DF93E82E44
:1013D000E7017E01F92EE70101C080DF89918823B2
:1013E000E1F7DF91CF91FF90EF900895ECCF089552
:1013F000AAE0B0E0EEEFF9E00C94131C9B01AC0105
:101400001AE06AE0C62ED12CE12CF12C5E01089482
:10141000A11CB11C022FCA01B901A70196010E94AB
:10142000E91B1150F501E10FF11D005D922F990F9D
:10143000892F880F880F890F081B0083211531051C
:101440004105510539F707C0F601E10FF11D808113
:1014500045DF1F5F04C06E010894C11CD11C1A3007
:1014600098F32A96EAE00C942F1CEF92FF920F93C8
:101470001F937B018C0197FF0AC010950095F09493
:10148000E094E11CF11C011D111D8DE227DFC80154
:10149000B701AEDF1F910F91FF90EF900895E5CF58
:1014A0000895A5E0B0E0E7E5FAE00C941A1C182FC7
:1014B00080E8898380EC8A8384E98B8384ED8C8344
:1014C000FE01E60FF11D8181810F6D8304DF109312
:1014D000BA036D816093B9032596E3E00C94361C42
:1014E000E0CF0895A0E0B0E0E8E7FAE00C94151C26
:1014F000D82E8091B7039091B803009709F4F2C0F9
:101500002D2D2A3009F442C02830C9F48091BA0345
:1015100081508093BA038F3F51F48091B903815079
:101520008093B90380915C0181508093BA038091CC
:10153000B9038F3F09F0D1C01092B903CCC08D2DF3
:10154000CDDE8091B9038823B9F090E001974091F6
:101550005C0150E0849F9001859F300D949F300D79
:1015600011248091BA03E091B703F091B803E20F20
:10157000F31FE80FF11DD0828091BA038F5F809333
:10158000BA0390915C01891709F0ACC04091B9038E
:10159000242F30E080915B0190E0019728173907F4
:1015A00009F096C0C0E0D0E03FC080E06C2F79DF4A
:1015B000CC248E010F5F1F4F32C0EC2CFF2430E093
:1015C000C29FC001C39F900DD29F900D1124E09146
:1015D000B703F091B803EE0DFF1DE80FF91F8081EE
:1015E0007DDE8091B7039091B80320915C0130E0DB
:1015F000C29FF001C39FF00DD29FF00D11248E0DFC
:101600009F1DE80FF91F029FD001039FB00D129F8D
:10161000B00D1124A80FB91F8C918083C394209121
:101620005C01C21650F2E80160915B01862F90E0E8
:101630000297C817D9070CF4B8CF6230D0F16250C6
:1016400080E02FDF00E010E230C0C02FD0E08091BA
:101650005B0190E0029750E0849F9001859F300DE0
:10166000949F300D1124E091B703F091B803EC0F73
:10167000FD1FE20FF31F808131DE80915B0190E05E
:10168000029740915C0150E0849F9001859F300D4E
:10169000949F300D1124E091B703F091B803EC0F43
:1016A000FD1FE20FF31F10830F5F40915C010417D1
:1016B00060F260915B01615080E0F3DE10E003C0F6
:1016C00080E20CDE1F5F80915C011817C8F303C035
:1016D0004F5F4093B9031092BA038091BA036091AF
:1016E000B903DFDE2D2D332727FD3095C901CDB796
:1016F000DEB7E8E00C94311C8091B7039091B803F9
:10170000009711F00E94F31C20915B0130E0215002
:10171000304080915C0190E0AC01249FC001259F86
:10172000900D349F900D11240E945B1C9093B80380
:101730008093B703009721F1A0E0B0E208C0E091E8
:10174000B703F091B803E20FF31FB083AF5F2A2F06
:1017500030E080915B0190E0019760915C0170E066
:10176000869FA001879F500D969F500D112424172E
:1017700035072CF382E79AE06BED78E00C94921E2B
:101780000895BACF0895FC0111821082138212824B
:10179000158214821682683068F489E290E09183A1
:1017A00080838BE290E0938382838AE290E095834A
:1017B000848323C0603180F483E290E0918380834E
:1017C00085E290E09383828384E290E09583848332
:1017D00070E06850704011C06831C0F486E290E05B
:1017E0009183808388E290E09383828387E290E014
:1017F0009583848370E06051704081E090E002C086
:10180000880F991F6A95E2F7868308956032C0F4C5
:1018100080E290E09183808382E290E093838283F0
:1018200081E290E0958384832FE130E0261B31092B
:1018300081E090E002C0880F991F2A95E2F7868325
:101840000895FC01A481B5818681662321F09C91D5
:10185000982B9C9308959C91809589238C9308954F
:10186000FC016F3F31F4A281B3818C91968189276D
:101870000CC0A281B3818681662321F09C91982BB4
:101880009C9308959C91809589238C930895A7E05B
:10189000B0E0EDE4FCE00C94181C282FF62E8E012D
:1018A0000F5F1F4FC801622F6EDFC8016F2DD8DF99
:1018B000C80161E0C6DF2796E5E00C94341C83E0A4
:1018C0008093B00082E08093B100E4EBF0E01082FE
:1018D00080818093B30087E160E0D9DF86E160E03A
:1018E000D6DF87E060E0D3DF86E060E0D0CF809194
:1018F000C003882321F481E08093C003E0CF0895E2
:10190000CF93DF93EC01F3DFD7FF05C0D095C195EE
:10191000DF4F91E001C090E0CF3FD10519F014F006
:10192000CFEFD0E0C093B300209731F48091B000A6
:101930008F778093B0000DC08091B0008068809355
:10194000B000992319F087E161E002C087E160E00F
:101950009EDFDF91CF910895CF93DF93EC01C7DF36
:10196000D7FF05C0D095C195DF4F91E001C090E051
:10197000CF3FD10519F014F0CFEFD0E0C093B40001
:10198000209731F48091B0008F7D8093B0000DC01E
:101990008091B00080628093B000992319F086E1B5
:1019A00061E002C086E160E072DFDF91CF910895CF
:1019B000CF93DF93EB01A4DFCE01CEDFDF91CF9198
:1019C0000895F6CF089587B1837D87B988B18C6279
:1019D00088B985E090E06F9364E06A95F1F76F91C4
:1019E0000197C9F708958091C103882321F481E00C
:1019F0008093C103E8CF0895A1E0B0E0E2E0FDE00C
:101A00000C941B1C8983EFDF96B190958981892303
:101A10002196E2E00C94371CEFCF0895282F30E098
:101A2000F901EE0FFF1F43E0220F331F4A95E1F744
:101A3000E20FF31FE35AFE4F82810895282F30E012
:101A4000F901EE0FFF1F73E0220F331F7A95E1F7C4
:101A5000E20FF31FE35AFE4F4181282F30E0F901D6
:101A6000EE0FFF1F53E0220F331F5A95E1F7E20FED
:101A7000F31FE35AFE4F81E09381491380E00895FC
:101A8000282F30E0F901EE0FFF1FB3E0220F331FC4
:101A9000BA95E1F7E20FF31FE35AFE4F40855185F7
:101AA0004115510509F452C0282F30E0F901EE0F1D
:101AB000FF1F73E0220F331F7A95E1F7E20FF31F48
:101AC000E35AFE4F7281282F30E0F901EE0FFF1F1D
:101AD000B3E0220F331FBA95E1F7E20FF31FE35A89
:101AE000FE4F9481791790F5282F30E0F901EE0F21
:101AF000FF1F73E0220F331F7A95E1F7E20FF31F08
:101B0000E35AFE4F9281490F511DFA016083282F3D
:101B100030E0F901EE0FFF1F53E0220F331F5A95FB
:101B2000E1F7E20FF31FE35AFE4F92819F5F282FE8
:101B300030E0F901EE0FFF1FB3E0220F331FBA951B
:101B4000E1F7E20FF31FE35AFE4F9283282F30E0B4
:101B5000F901EE0FFF1F73E0220F331F7A95E1F7B3
:101B6000E20FF31FE35AFE4F4281282F30E0F901C4
:101B7000EE0FFF1F53E0220F331F5A95E1F7E20FDC
:101B8000F31FE35AFE4F9481491701F5282F30E0E7
:101B9000F901EE0FFF1F93E0220F331F9A95E1F733
:101BA000E20FF31FE35AFE4F9581992379F0282F16
:101BB00030E0F901EE0FFF1FB3E0220F331FBA959B
:101BC000E1F7E20FF31FE35AFE4F128208950F93DD
:101BD0001F93182F823009F474C0882319F4E1ECA4
:101BE000F0E002C0E9ECF0E080818F778083812F04
:101BF00090E0FC01EE0FFF1F03E0880F991F0A958C
:101C0000E1F7E80FF91FE35AFE4F808591850097B1
:101C1000A1F1212F30E0F901EE0FFF1FA3E0220F09
:101C2000331FAA95E1F7E20FF31FE35AFE4F9281AB
:101C3000212F30E0F901EE0FFF1F63E0220F331F69
:101C40006A95E1F7E20FF31FE35AFE4F848198177C
:101C5000A0F4112319F4E0ECF0E002C0E8ECF0E0AD
:101C6000808187FF0AC0112319F4E6ECF0E002C07E
:101C7000EEECF0E06081812F03DF212F30E0F901ED
:101C8000EE0FFF1F43E0220F331F4A95E1F7E20FEB
:101C9000F31FE35AFE4F8081882309F057C01123B8
:101CA00019F4E1ECF0E002C0E9ECF0E0808180683A
:101CB00080834CC080917601882319F010927301C3
:101CC00045C08091790190917A01009709F43EC056
:101CD00090917301809175019817C0F58091CE03A2
:101CE000882399F43DD38093CE0310E00AC035D306
:101CF000E02FF0E03197E11BF109E153FC4F8083C5
:101D00001F5F0091CE03101790F3A091CE03AA237A
:101D1000E9F080917301E0917901F0917A01E80F87
:101D2000F11DA150A093CE03B0E0A153BC4F8C9104
:101D30008083809173018F5F809373019091730111
:101D400080917501981709F0BCCFB4CF1F910F9106
:101D50000895823051F0882319F4E1ECF0E002C0DC
:101D6000E9ECF0E090819F779083A82FB0E0FD012F
:101D7000EE0FFF1F53E0AA0FBB1F5A95E1F7EA0FC2
:101D8000FB1FE35AFE4F71876087682F70E0FB01ED
:101D9000EE0FFF1F93E0660F771F9A95E1F7E60FAE
:101DA000F71FE35AFE4F1282682F70E0FB01EE0F1F
:101DB000FF1FA3E0660F771FAA95E1F7E60FF71F55
:101DC000E35AFE4F4483482F50E0FA01EE0FFF1F05
:101DD00063E0440F551F6A95E1F7E40FF51FE35ADE
:101DE000FE4F25838230D9F0282F30E0F901EE0F25
:101DF000FF1F43E0220F331F4A95E1F7E20FF31F65
:101E0000E35AFE4F9081992351F4882319F4E1ECB1
:101E1000F0E002C0E9ECF0E0808180688083089502
:101E200021E097CFFDCF08951F920F920FB60F922A
:101E30000BB60F9211242F933F934F935F936F93A1
:101E40007F938F939F93AF93BF93EF93FF93609193
:101E5000C60080E015DEFF91EF91BF91AF919F9199
:101E60008F917F916F915F914F913F912F910F9043
:101E70000BBE0F900FBE0F901F9018951F920F92E0
:101E80000FB60F920BB60F9211242F933F934F93DF
:101E90005F936F937F938F939F93AF93BF93EF93D2
:101EA000FF936091CE0081E0EBDDFF91EF91BF9158
:101EB000AF919F918F917F916F915F914F913F91E2
:101EC0002F910F900BBE0F900FBE0F901F90189583
:101ED000882319F4E1ECF0E002C0E9ECF0E0808145
:101EE000806280830895882319F4E1ECF0E002C059
:101EF000E9ECF0E080818F7D80830895282F30E029
:101F0000F901EE0FFF1F93E0220F331F9A95E1F7BF
:101F1000E20FF31FE35AFE4F268137812115310569
:101F200091F1282F30E0F901EE0FFF1FA3E0220FFF
:101F3000331FAA95E1F7E20FF31FE35AFE4F4181E9
:101F4000282F30E0F901EE0FFF1F63E0220F331F4F
:101F50006A95E1F7E20FF31FE35AFE4F93814917A9
:101F600090F4282F30E0F901EE0FFF1F43E0220F1D
:101F7000331F4A95E1F7E20FF31FE35AFE4F9081BA
:101F8000992309F4A5CFAFCF823029F1282F30E073
:101F9000F901EE0FFF1F53E0220F331F5A95E1F7AF
:101FA000E20FF31FE35AFE4F9081992349F48823EF
:101FB00019F4E1ECF0E002C0E9ECF0E098E908C0C7
:101FC000882319F4E1ECF0E002C0E9ECF0E098E1DC
:101FD000908394DF78940895882319F0813029F450
:101FE00002C080E0D1CF81E0CFCF0895A0E0B0E083
:101FF000ECEFFFE00C94161CD82E7A018B01ECDF7D
:102000008D2D823001F1DD2019F4C4ECD0E002C046
:10201000CCECD0E0C801B70128EF3FEF4FEF5FEF06
:102020000E94B31B6050734D8E4C9E4FA8019701C8
:10203000E4E0220F331F441F551FEA95D1F70E9499
:10204000E91B39832883CDB7DEB7E7E00C94321C57
:10205000CDCF0895282F30E0F901EE0FFF1F73E078
:10206000220F331F7A95E1F7E20FF31FE35AFE4F79
:10207000468157814115510509F465C0282F30E08C
:10208000F901EE0FFF1F93E0220F331F9A95E1F73E
:10209000E20FF31FE35AFE4F6181282F30E0F90170
:1020A000EE0FFF1FA3E0220F331FAA95E1F7E20F07
:1020B000F31FE35AFE4F9381691708F044C0882349
:1020C00019F4E0ECF0E002C0E8ECF0E0908195FF5C
:1020D0003AC0882319F4A6ECB0E002C0AEECB0E040
:1020E000282F30E0F901EE0FFF1F63E0220F331FAE
:1020F0006A95E1F7E20FF31FE35AFE4F9181490F12
:10210000511DFA0190819C93282F30E0F901EE0FC8
:10211000FF1F93E0220F331F9A95E1F7E20FF31FA1
:10212000E35AFE4F91819F5F282F30E0F901EE0FB7
:10213000FF1FA3E0220F331FAA95E1F7E20FF31F61
:10214000E35AFE4F9183DACE1F93182F823021F08D
:10215000CADE812F7FDF1CC08091770190917801CA
:102160000097B1F03091720120917401321780F420
:1021700006C0809172018F5F80937201EDCF209134
:102180007201820F911DFC018081EED0882389F7B6
:102190001F91089580E0D8DF81E0D6DF82E0D4DFB0
:1021A00080E015DD81E013DD82E011CDF3CF0895ED
:1021B000282F30E0F901EE0FFF1F93E0220F331FAD
:1021C0009A95E1F7E20FF31FE35AFE4F7783668398
:1021D000282F30E0F901EE0FFF1FA3E0220F331F7D
:1021E000AA95E1F7E20FF31FE35AFE4F1182282F61
:1021F00030E0F901EE0FFF1F63E0220F331F6A95F5
:10220000E1F7E20FF31FE35AFE4F4383823009F0F8
:1022100075CE0895CDCF08951F920F920FB60F92ED
:102220000BB60F9211242F933F934F935F936F93AD
:102230007F938F939F93AF93BF93EF93FF9380E030
:1022400009DFFF91EF91BF91AF919F918F917F91A6
:102250006F915F914F913F912F910F900BBE0F9017
:102260000FBE0F901F9018951F920F920FB60F92EE
:102270000BB60F9211242F933F934F935F936F935D
:102280007F938F939F93AF93BF93EF93FF9381E0DF
:10229000E1DEFF91EF91BF91AF919F918F917F917F
:1022A0006F915F914F913F912F910F900BBE0F90C7
:1022B0000FBE0F901F9018956F9364E06A95F1F729
:1022C0006F910197C9F708952F928F939F932FB61F
:1022D0008091D8039091D90301968093D80390936D
:1022E000D90390E08091DA03891F8093DA039091FB
:1022F000E0039C5F9093E0038091DF03805197425D
:10230000C0F09093E0038093DF038091DB03909112
:10231000DC0301968093DB039093DC0390E08091D3
:10232000DD03891F8093DD038091DE03891F809385
:10233000DE032FBE9F918F912F901895CF93DF933F
:10234000EC0104C088EE93E0B7DF21972097D1F726
:10235000DF91CF910895F2CF08958FEF64E043C0ED
:1023600083E867E040D0F9CF1F93182F982F9095FE
:10237000991F9927991F85E8891B65E034D0812F23
:102380008F7765E030D01F9108956F9364E06A9570
:10239000F1F76F910197C9F70895A1E0B0E0E3ED7F
:1023A000F1E10C941A1C182F249908C02C9906C02E
:1023B0002C9A8EE190E06983E8DF698184B1806ABC
:1023C00084B92698812F837080656C7A862B8CBDAA
:1023D00081E012FF80E08DBD81E090E0AFDF2196CB
:1023E000E3E00C94361C0F931F93082F162F0CB4A8
:1023F00006FC03C080E064E0D0DF0CB404FC03C042
:102400008CB580618CBD0EBD03C00CB404FE0AC047
:102410000DB407FEFACF112319F0812F90E0B5DF3C
:102420008EB501C080E01F910F9108952F923F92C9
:102430004F925F926F927F928F929F92AF92BF92D4
:10244000CF92DF92EF92FF920F931F93CF93DF9380
:10245000CDB7DEB763970FB6F894DEBF0FBECDBF22
:102460007C011B016A01FC0117821682838181FFB6
:1024700066C3BE016F5F7F4F4B01F7019381F1018E
:1024800093FD859193FF81911F01882309F453C324
:10249000853239F493FD859193FF81911F01853237
:1024A00039F4B70190E00E941A1F56016501E5CF8B
:1024B00010E0512C20E02032A0F48B3269F030F48F
:1024C000803259F0833269F420612CC08D3239F0AA
:1024D000803339F4216026C02260246023C0286044
:1024E00021C027FD27C030ED380F3A3078F426FFA1
:1024F00006C0FAE01F9F300D1124132F13C06AE0AD
:10250000569E300D1124532E20620CC08E3221F4C1
:1025100026FD11C3206406C08C3611F4206802C069
:10252000883641F4F10193FD859193FF81911F015C
:102530008111C1CF9BEB980F933018F42061805E1E
:1025400006C09BE9980F933008F0AAC12F7E26FFA2
:1025500016E02F73722E853621F4F22FF0647F2E51
:1025600008C0863621F4622F6068762E02C01111F1
:10257000115077FE07C01C3348F444244394410EA5
:1025800027E00BC0183030F4212F06C027E04CE3C1
:10259000442E03C027E017E0412C560174E0A70E3B
:1025A000B11CF6016081718182819381042DA401A7
:1025B0000E94821D6C01098100FF02C003FF06C05A
:1025C00071FC07C072FC08C0612C08C03DE2632E9C
:1025D00005C02BE2622E02C090E2692E802F8C7023
:1025E00099F1662011F084E001C083E0851510F0B8
:1025F000512C0BC0581A73FC08C0B70180E290E060
:102600000E941A1F5A94C9F7F3CF662029F0B70128
:10261000862D90E00E941A1F03FD03C000E910E020
:1026200002C00CE810E0F72DF0717F2EF8018491C4
:10263000882309F476C271108052B70190E00E949D
:102640001A1F0F5F1F4FF2CF77FE0FC04C0C04FF15
:1026500004C08A81813309F44A94141474F5F8E0B3
:10266000F41578F588E0482E2CC076FC2AC0812F1E
:1026700090E08C159D059CF06CEFC6166FEFD606AA
:1026800074F0772D7068772E0AC0E2E0F0E0EC0F6E
:10269000FD1FE10FF11D8081803319F411501111DC
:1026A000F4CF77FE0EC044244394410E812F90E076
:1026B000C816D9062CF41C1904C04424439401C044
:1026C00010E077FE07C01C141D043CF496012F5F38
:1026D0003F4F05C025E030E002C021E030E0662039
:1026E00011F02F5F3F4F112331F0412F50E04F5F2A
:1026F0005F4F240F351F452D50E02417350714F484
:10270000521A01C0512C872D897049F4552039F097
:10271000B70180E290E00E941A1F5A94F7CF66201A
:1027200029F0B701862D90E00E941A1F73FC09C0A2
:10273000552039F0B70180E390E00E941A1F5A94A7
:10274000F7CF77FE5FC09C2D8D2DD7FE02C090E0A5
:1027500080E0692E782E40E050E0C601841991098E
:102760009D878C87960126193709280D391D812FE1
:1027700090E0EE27FF27E81BF90BFF87EE87FFEFBE
:102780006F167F0669F4B7018EE290E02B8B3A8BCF
:10279000488B598B0E941A1F598948893A892B897D
:1027A000C614D70454F06C857D85661577052CF426
:1027B000F901E40FF51F818101C080E371E0671A20
:1027C00071084F5F5F4FEE85FF856E167F066CF0D8
:1027D000B70190E02B8B3A8B488B598B0E941A1FC4
:1027E0002B893A8948895989CACF6C147D0439F4F8
:1027F0009A81963318F4953311F404FF81E3B701FD
:1028000090E04BC08A81813309F00F7EB70190E0E0
:102810000E941A1F111105C074FE18C085E490E0D3
:1028200017C0B7018EE290E00E941A1F82E0662472
:102830006394680EF401E80FF11D8081B70190E008
:102840000E941A1F115041F3862DF1CF85E690E0CA
:10285000B7010E941A1FD7FC05C0C114D10439F476
:1028600004FF05C0D194C194D1088DE201C08BE270
:10287000B70190E00E941A1F80E36AE0C616D104F7
:102880002CF08F5FFAE0CF1AD108F7CFB70190E0B4
:102890000E941A1FB701C601C0960E941A1F41C1AB
:1028A000833631F0833779F0833509F058C021C081
:1028B000560172E0A70EB11CF6018081898301E008
:1028C00010E0640114C05601F2E0AF0EB11CF60135
:1028D000C080D18026FF03C0612F70E002C06FEF7F
:1028E0007FEFC6012B8B0E94871E8C012B892F77CF
:1028F00015C05601F2E0AF0EB11CF601C080D180C8
:1029000026FF03C0612F70E002C06FEF7FEFC601AA
:102910002B8B0E94751E8C012B892068722E23FD43
:102920001AC0852D90E008171907A8F4B70180E2B6
:1029300090E00E941A1F5A94F4CFF60177FC85911B
:1029400077FE81916F01B70190E00E941A1F51102C
:102950005A94015011090115110579F7E2C0843626
:1029600011F0893651F5560127FF09C0F4E0AF0E8A
:10297000B11CF60160817181828193810AC0F2E00D
:10298000AF0EB11CF60160817181882777FD8095BB
:10299000982F022F0F7697FF08C09095809570951D
:1029A00061957F4F8F4F9F4F00682AE030E0A40170
:1029B0000E94F41FC82EC8183EC0022F853721F48C
:1029C0000F7E2AE030E01DC0097F8F3691F018F4A9
:1029D000883559F0B0C0803719F0883711F0ABC096
:1029E000006104FF09C0046007C024FF08C006603E
:1029F00006C028E030E005C020E130E002C020E160
:102A000032E0560107FF09C0F4E0AF0EB11CF60139
:102A1000608171818281938108C0F2E0AF0EB11CA8
:102A2000F6016081718180E090E0A4010E94F41FB2
:102A3000C82EC8180F7706FF0BC0202F2E7FC11697
:102A400050F404FF0AC002FD08C0202F2E7E05C0EE
:102A5000DC2C202F03C0DC2C01C0D12E24FF0DC0A4
:102A6000FE01EC0DF11D8081803311F4297E09C037
:102A700022FF06C0D394D39404C0822F867809F035
:102A8000D39423FD13C020FF06C01C2DD51418F4C9
:102A9000150D1D19D52CD51468F4B70180E290E00E
:102AA0002B8B0E941A1FD3942B89F5CFD51410F4C9
:102AB0005D1801C0512C24FF12C0B70180E390E0E3
:102AC0002B8B0E941A1F2B8922FF17C021FF03C0E6
:102AD00088E590E002C088E790E0B7010CC0822F43
:102AE000867859F021FD02C080E201C08BE227FD0B
:102AF0008DE2B70190E00E941A1FC11638F4B701A9
:102B000080E390E00E941A1F1150F7CFCA94F4019D
:102B1000EC0DF11D8081B70190E00E941A1FC110D9
:102B2000F5CF552009F4C2CCB70180E290E00E94B5
:102B30001A1F5A94F6CFF7018681978102C08FEF52
:102B40009FEF63960FB6F894DEBF0FBECDBFDF9147
:102B5000CF911F910F91FF90EF90DF90CF90BF909A
:102B6000AF909F908F907F906F905F904F903F902D
:102B70002F9008955058BB27AA270ED0E5C0D6D075
:102B800030F0DBD020F031F49F3F11F41EF4CBC0C5
:102B90000EF4E095E7FBC1C0E92FE7D080F3BA1748
:102BA000620773078407950718F071F49EF5FFC05C
:102BB0000EF4E0950B2EBA2FA02D0B01B901900158
:102BC0000C01CA01A0011124FF27591B99F0593F9C
:102BD00050F4503E68F11A16F040A22F232F342FE4
:102BE0004427585FF3CF469537952795A795F04032
:102BF0005395C9F77EF41F16BA0B620B730B840B47
:102C0000BAF09150A1F0FF0FBB1F661F771F881FFE
:102C1000C2F70EC0BA0F621F731F841F48F4879556
:102C200077956795B795F7959E3F08F0B3CF939545
:102C3000880F08F09927EE0F97958795089504D08F
:102C40006894B111B5C0089598D088F09F5790F05E
:102C5000B92F9927B751A0F0D1F0660F771F881FC1
:102C6000991F1AF0BA95C9F712C0B13081F09FD000
:102C7000B1E008959CC0672F782F8827B85F39F09E
:102C8000B93FCCF3869577956795B395D9F73EF420
:102C900090958095709561957F4F8F4F9F4F0895C8
:102CA000E89409C097FB3EF49095809570956195E6
:102CB0007F4F8F4F9F4F9923A9F0F92F96E9BB279C
:102CC0009395F695879577956795B795F111F8CF18
:102CD000FAF4BB0F11F460FF1BC06F5F7F4F8F4F83
:102CE0009F4F16C0882311F096E911C0772321F079
:102CF0009EE8872F762F05C0662371F096E8862F11
:102D000070E060E02AF09A95660F771F881FDAF767
:102D1000880F9695879597F9089597F99F6780E8AA
:102D200070E060E008959FEF80EC089500240A941D
:102D30001616170618060906089500240A94121696
:102D40001306140605060895092E0394000C11F4C9
:102D5000882352F0BB0F40F4BF2B11F460FF04C076
:102D60006F5F7F4F8F4F9F4F089557FD9058440FCF
:102D7000551F59F05F3F71F04795880F97FB991FDA
:102D800061F09F3F79F08795089512161306140697
:102D9000551FF2CF4695F1DF08C016161706180624
:102DA000991FF1CF86957105610508940895E894FF
:102DB000BB2766277727CB0197F908950BD0C4CF9F
:102DC000B5DF28F0BADF18F0952309F0A6CFABCF16
:102DD0001124EECFCADFA0F3959FD1F3950F50E0F9
:102DE000551F629FF001729FBB27F00DB11D639FBD
:102DF000AA27F00DB11DAA1F649F6627B00DA11D63
:102E0000661F829F2227B00DA11D621F739FB00D08
:102E1000A11D621F839FA00D611D221F749F332778
:102E2000A00D611D231F849F600D211D822F762F11
:102E30006A2F11249F5750408AF0E1F088234AF00E
:102E4000EE0FFF1FBB1F661F771F881F915050405A
:102E5000A9F79E3F510570F060CFAACF5F3FECF31A
:102E6000983EDCF3869577956795B795F795E79546
:102E70009F5FC1F7FE2B880F911D9695879597F957
:102E8000089520FD09C0FC0123FD05C022FF02C0FA
:102E90007383628351834083089544FD10C046FDCF
:102EA00010C0DB01FC01AA0FBB1FEE1FFF1F109417
:102EB000D1F76A0F7B1F8E1F9F1F31E003C033E0E5
:102EC00001C034E0660F771F881F991F3150D1F77A
:102ED000620F711D811D911D08950F931F93CF9354
:102EE000DF938C01C80168D7EC0197FD07C0E2D6DB
:102EF000892BC1F7B801CE010E94DB1FCE01DF9103
:102F0000CF911F910F9108956F927F929F92AF92F0
:102F1000BF92CF92DF92EF92FF920F931F93CF93C6
:102F2000DF931F92CDB7DEB78C013B015A01298395
:102F300043D7AC01552729814B32510521F04D3241
:102F4000510579F4206831E0631A71086114710445
:102F500011F480E078C0C80129832ED7298197FD1C
:102F6000F8CFE22FED7F9E2E322F307369F580333C
:102F700059F57301F1E0EF1AF108E114F10409F4D5
:102F80004FC0C801298318D7298197FD49C0382F20
:102F90003F7D383579F4292D2264922E32E0631A70
:102FA00071086114710409F43BC0C80105D797FF8B
:102FB0000BC036C026FF04C0E92DE2609E2E03C080
:102FC000F92DF2619F2E3701C12CD12C760120ED15
:102FD000280F283078F094FE03C0B801ECD71DC04C
:102FE0002A3040F096FEF9CF2F7D3FEE320F36307B
:102FF000A0F72750492DC701B6014FDF6B017C01B7
:10300000292D2260922E31E0631A71086114710437
:1030100051F0C801D1D697FFDACF91FC04C099CF07
:10302000C12CD12C760197FE08C0F094E094D09486
:10303000C094C11CD11CE11CF11C292DB701A601B3
:10304000C5011FDF81E00F90DF91CF911F910F919C
:10305000FF90EF90DF90CF90BF90AF909F907F90C8
:103060006F9008954F925F926F927F928F929F928E
:10307000AF92BF92CF92DF92EF92FF920F931F9386
:10308000CF93DF93CDB7DEB7A0970FB6F894DEBF2E
:103090000FBECDBF5C014B017A018E010F5F1F4F48
:1030A000680180E2F80111928A95E9F7F5016380E1
:1030B00080E090E0712C412CB0E041E050E0F9015B
:1030C00063FC559063FE51908F01A52D9F01511017
:1030D00003C080E090E07DC0FEE55F1202C0009773
:1030E00061F16B2F70E0681779074CF46DE55616A7
:1030F00061F1EDE25E1203C0442009F103C041100A
:1031000001C0752C6A2F669566956695F601E60FE7
:10311000F11D6A2F67708A0102C0000F111F6A95A6
:10312000E2F7B8017081762B7083A71559F0A715C7
:1031300010F4AF5FE7CFA150E5CFB1E004C0442465
:10314000439401C0412C0196BACF442019F08E81DE
:1031500080628E83B11103C07724739419C0F60185
:10316000CE018196208120952193E817F907D1F7A8
:10317000F3CFE114F10429F0F7018083C701019630
:103180007C0191E0891A910881149104E1F0712C7D
:10319000C50112D697FD15C0282F26952695269590
:1031A000F601E20FF11D208130E0AC014770552798
:1031B00002C0359527954A95E2F720FDDACFB50193
:1031C000FAD6711086CFE114F10411F0F7011082E4
:1031D000C801A0960FB6F894DEBF0FBECDBFDF9139
:1031E000CF911F910F91FF90EF90DF90CF90BF9004
:1031F000AF909F908F907F906F905F904F900895C9
:103200002F923F924F925F926F927F929F92AF92D6
:10321000BF92CF92DF92EF92FF920F931F93CF93C3
:10322000DF9300D000D000D0CDB7DEB76C018B01AA
:103230001A01C2D59E838D8399278B32910529F07F
:103240008D9791F480E8982E01C0912C01501109BE
:103250000115110511F480E02AC1C601ADD59E8388
:103260008D8397FF02C0F7CF912C8D819E812AD547
:103270008936910541F08E369105C1F5B6EA6B2E7F
:10328000B0E07B2E04C0A9EA6A2EA0E07A2E8FEF70
:10329000681A780AF3013197B490BB20D9F0015035
:1032A00011090115110559F0C60186D57C0197FD5C
:1032B00006C008D5B81659F3B601C7017CD62CEA6A
:1032C000621620E0720609F0C6CF80E090E0A0E828
:1032D000BFE709C099EA691690E07906B1F780E086
:1032E00090E0A0ECBFE7BC01CD01D1C0412C512C36
:1032F0003201E12CF12C2D8120532A3020F5E92DCB
:10330000E260BE2E892D887092FE06C0811122C017
:10331000FFEFEF1AFF0A1EC0882319F081E0E81AB8
:10332000F10840E2C301B201B8DD2B013C0198E98C
:10333000491699E95906690699E1790658F0E92D87
:10334000E660BE2E07C02E3F99F493FC11C0F92D04
:10335000F860BF2E015011090115110541F0C60199
:103360002BD59E838D839B2C97FD02C0C4CF9B2CB5
:1033700091FE71CF8D818F7D853409F052C0580147
:1033800021E0A21AB108A114B10409F464CFC60166
:1033900013D59E838D8397FD5ECF99278B32910540
:1033A00029F08D9779F4892D8061982E580192E04B
:1033B000A91AB108A114B10409F44DCFC601FCD477
:1033C0009E838D838D819E81C0970A9708F043CF9D
:1033D0008501A12CB12CB501882777FD8095982F08
:1033E0002D81205340E259DDAB01BC015A0101504F
:1033F00011090115110569F0C60149835A836B83D0
:103400007C83DAD49E838D83C09749815A810A9741
:1034100010F394FE04C0AA24BB24A41AB50AEA0C33
:10342000FB1C012B39F0ED81FE81F7FD03C0B601D5
:10343000CF01C1D5C301B20133DCF7FE08C0F1945E
:10344000E194F108F5ECAF2EF0E0BF2E04C0EDEDF5
:10345000AE2EE0E0BE2E6501F8E1CF1AD10800E201
:1034600010E0F5014590559065907490E016F106D6
:1034700030F0A3019201A2DCE01AF10AF7CF24E0B8
:10348000A21AB10816950795AC14BD0451F797FE22
:1034900005C0DC01CB01B058BC01CD0121143104C1
:1034A00029F0F101608371838283938381E0269602
:1034B0000FB6F894DEBF0FBECDBFDF91CF911F9145
:1034C0000F91FF90EF90DF90CF90BF90AF909F90C3
:1034D0007F906F905F904F903F902F9008954F9204
:1034E0005F926F927F928F929F92AF92BF92CF9294
:1034F000DF92EF92FF920F931F93CF93DF931F9270
:10350000CDB7DEB78C012B017A01FC011782168240
:10351000A12CF801D380F201D3FC8591D3FE8191D7
:10352000382F2F01882309F407C190E03983C2D3D3
:103530003981892B19F0C801D0DCEBCF353241F449
:10354000F201D3FC3591D3FE31912F01353259F47C
:10355000C801398331D4398197FDECC03817C9F2DD
:10356000B80129D5E9C03A3241F4D3FC3591D3FEF4
:1035700031912F01BB24B39401C0B12C812C912C2B
:1035800020ED230F2A3080F4FB2DF260BF2EB40112
:1035900080E090E040E281DC4B01F201D3FC359108
:1035A000D3FE31912F01ECCFB1FE04C08114910400
:1035B00021F4C2C088248A94982C383619F03C36FD
:1035C00061F014C0F201D3FC3591D3FE31912F018B
:1035D000383661F4FB2DF860BF2E8B2D8460B82E39
:1035E000F201D3FC3591D3FE31912F01332309F43D
:1035F000A3C0632F70E084E990E039836BD33981F5
:10360000892B09F499C0B0FC07C0F701C080D180B4
:10361000C70102967C0102C0C12CD12C3E3649F470
:10362000F8014681578160E070E02B2DC60129DC4E
:1036300070CF3336C1F4B1FC03C088248394912C3D
:10364000C801BAD397FD76C0C114D10429F0F601A0
:103650008083C60101966C0191E0891A910881145A
:10366000910471F763C03B3551F49201A601B40196
:10367000C801F8DC2C01009709F058C052C0C801FD
:1036800039832BDC398197FD55C03F36D9F140F4A1
:103690003436A1F13936C9F1383509F03CC02AC0B9
:1036A0003337B9F018F4303729F135C0353731F1F7
:1036B000383701F130C0C114D10429F0F60160821D
:1036C000C60101966C0191E0891A91088114910458
:1036D00059F0C80171D33C0197FD06C0EBD2892B8C
:1036E00051F3B801C30167D4C114D104F9F0F60154
:1036F00010821CC0FB2DF064BF2E07C08B2D806292
:10370000B82E03C09B2D9061B92E2B2DA601B401BC
:10371000C801FADB04C0A601B401C80171DD811142
:1037200005C0F8018381807329F406C0B0FCF1CE96
:10373000A394EFCEAA2019F08A2D90E002C08FEF5B
:103740009FEF0F90DF91CF911F910F91FF90EF901E
:10375000DF90CF90BF90AF909F908F907F906F90B1
:103760005F904F900895DB018F939F938BD0BF9113
:10377000AF91A29F800D911DA39F900DB29F900DC0
:1037800011240895AA1BBB1B51E107C0AA1FBB1F30
:10379000A617B70710F0A61BB70B881F991F5A95DD
:1037A000A9F780959095BC01CD01089597FB072E50
:1037B00016F4009406D077FD08D0E4DF07FC05D0AE
:1037C0003EF4909581959F4F0895709561957F4F38
:1037D0000895A1E21A2EAA1BBB1BFD010DC0AA1F52
:1037E000BB1FEE1FFF1FA217B307E407F50720F06A
:1037F000A21BB30BE40BF50B661F771F881F991FE5
:103800001A9469F760957095809590959B01AC012D
:10381000BD01CF0108952F923F924F925F926F9218
:103820007F928F929F92AF92BF92CF92DF92EF9250
:10383000FF920F931F93CF93DF93CDB7DEB7CA1BD1
:10384000DB0B0FB6F894DEBF0FBECDBF09942A88FC
:10385000398848885F846E847D848C849B84AA84A4
:10386000B984C884DF80EE80FD800C811B81AA8131
:10387000B981CE0FD11D0FB6F894DEBF0FBECDBFFC
:10388000ED01089509D0A59F900DB49F900DA49FC0
:10389000800D911D11240895A29FB001B39FC00116
:1038A000A39F700D811D1124911DB29F700D811D6C
:1038B0001124911D0895CF93DF938230910510F468
:1038C00082E090E0E0912D04F0912E0420E030E0C1
:1038D000A0E0B0E0309739F1408151814817590795
:1038E000B8F04817590771F482819381109729F035
:1038F00013969C938E9312972CC090932E048093D2
:103900002D0427C02115310531F04217530718F057
:10391000A901DB0101C0EF019A01BD01DF010280B5
:10392000F381E02DD7CF21153105F9F0281B390B94
:103930002430310580F48A819B816115710521F065
:10394000FB019383828304C090932E0480932D0403
:10395000FE01329644C0FE01E20FF31F8193919362
:1039600022503109398328833AC020912B043091A9
:103970002C04232B41F42091850130918601309352
:103980002C0420932B042091830130918401211574
:10399000310541F42DB73EB7409187015091880120
:1039A000241B350BE0912B04F0912C04E217F30754
:1039B000A0F42E1B3F0B2817390778F0AC014E5F9F
:1039C0005F4F2417350748F04E0F5F1F50932C04AC
:1039D00040932B048193919302C0E0E0F0E0CF018B
:1039E000DF91CF910895CF93DF93009709F487C0BB
:1039F000FC01329713821282C0912D04D0912E04C3
:103A0000209781F420813181280F391F80912B0468
:103A100090912C048217930779F5F0932C04E0938E
:103A20002B046DC0DE0120E030E0AE17BF0750F47C
:103A300012964D915C9113979D014115510509F125
:103A4000DA01F3CFB383A28340815181840F951FA4
:103A50008A179B0771F48D919C911197840F951F84
:103A600002969183808312968D919C9113979383F4
:103A700082832115310529F4F0932E04E0932D045F
:103A80003EC0D9011396FC93EE9312974D915D9130
:103A9000A40FB51FEA17FB0779F480819181840F89
:103AA000951F0296D90111969C938E9382819381E2
:103AB00013969C938E931297E0E0F0E08A819B81AD
:103AC000009719F0FE01EC01F9CFCE010296288192
:103AD0003981820F931F20912B0430912C042817D9
:103AE000390769F4309729F410922E0410922D04AE
:103AF00002C013821282D0932C04C0932B04DF9156
:103B0000CF910895283008F027E03327DA01990F84
:103B1000311D87FD916000966105710539F43260B1
:103B20002E5F3D9330E32A95E1F708959F3F30F0F3
:103B300080387105610509F03C5F3C5F3D93913031
:103B400008F08068911DDF93CF931F930F93FF922E
:103B5000EF92192F987F9695E92F96959695E90FF4
:103B6000FF27E55CFE4F99273327EE24FF24A701AA
:103B7000E70105900894079428F4360FE71EF81E15
:103B8000491F511D660F771F881F991F0694A1F7C3
:103B90000590079428F4E70EF81E491F561FC11D13
:103BA000770F881F991F661F0694A1F70590079449
:103BB00028F4F80E491F561FC71FD11D880F991FE3
:103BC000661F771F0694A1F70590079420F4490F0C
:103BD000561FC71FD81F990F661F771F881F06948F
:103BE000A9F784911095177041F0D695C795579510
:103BF0004795F794E7941A95C1F7E1EEF0E06894E1
:103C00001590159135916591959105907FE2739589
:103C1000E118F10A430B560BC90BD009C0F7E10CB0
:103C2000F11E431F561FC91FD01D7EF4703311F4BF
:103C30008A95E6CFE894015030F0080F0AF4002787
:103C4000021708F4202F2395022F7A3328F079E306
:103C50007D932A95E9F710C07D932A9589F60694FD
:103C600097956795379517951794E118F10A430BC7
:103C7000560BC90BD00998F023957E9173957A3332
:103C800008F070E37C932013B8F77E9170617D9308
:103C900030F0839571E37D9370E32A95E1F7112469
:103CA000EF90FF900F911F91CF91DF91992787FDA2
:103CB00090950895911110C2803219F08950855065
:103CC000D0F708959111089581548A5108F4805EC7
:103CD000855A0895FC010590061621F00020D9F7B9
:103CE000C00108953197CF010895FC0105906150FE
:103CF00070400110D8F7809590958E0F9F1F089502
:103D0000FB01DC0101900D920020E1F70895FC0118
:103D10006150704001900110D8F7809590958E0FFA
:103D20009F1F08950F931F93CF93DF93EC018B0197
:103D3000009731F46115710519F480E090E037C007
:103D40006EE070E081E090E0ADD1FC010097A9F356
:103D500080E883830115110571F01387028781E8DC
:103D6000838380912F0490913004892B21F4F09368
:103D70003004E0932F042097C9F0D187C087838156
:103D8000826083838091310490913204892B71F495
:103D9000F0933204E0933104809133049091340421
:103DA000892B21F4F0933404E0933304CF01DF91A5
:103DB000CF911F910F910895CF93DF93EC012B8149
:103DC00020FF33C026FF0AC02F7B2B838E819F816B
:103DD00001969F838E838A8190E029C022FF0FC0C5
:103DE000E881F9818081992787FD9095009719F4E2
:103DF00020622B831AC03196F983E8830EC0EA85CE
:103E0000FB85099597FF09C02B81019611F480E18C
:103E100001C080E2822B8B8308C02E813F812F5FFF
:103E20003F4F3F832E83992702C08FEF9FEFDF9193
:103E3000CF9108950F931F93CF93DF93182F092FDE
:103E4000EB018B8181FD03C08FEF9FEF20C082FFCC
:103E500010C04E815F812C813D81421753077CF455
:103E6000E881F9819F012F5F3F4F398328831083B9
:103E700006C0E885F985812F0995892B29F72E81C0
:103E80003F812F5F3F4F3F832E83812F902FDF9104
:103E9000CF911F910F910895CF93DF93CDB7DEB7E8
:103EA000FE01359661917191AF018091310490913D
:103EB00032040E941612DF91CF9108950F931F9341
:103EC000CF93DF93E0913104F0913204238121FFFD
:103ED0001BC0EC0100E010E0899160913104709109
:103EE0003204DB011896ED91FC911997882331F08B
:103EF0000995892B89F30FEF1FEFEECF8AE0099523
:103F0000892B11F4C80102C08FEF9FEFDF91CF9191
:103F10001F910F9108950F931F93CF93DF93CDB708
:103F2000DEB72E970FB6F894DEBF0FBECDBF0D895A
:103F30001E8986E08C831A8309838FEF9FE79E8317
:103F40008D83AE01475E5F4F6F89788DCE010196FC
:103F50000E941612EF81F885E00FF11F10822E9655
:103F60000FB6F894DEBF0FBECDBFDF91CF911F918A
:103F70000F910895CF93DF93CDB7DEB72E970FB68D
:103F8000F894DEBF0FBECDBF85E08C838B899C8902
:103F90009A838983AE01495E5F4F6D897E89CE0128
:103FA00001969DDA2E960FB6F894DEBF0FBECDBFF8
:103FB000DF91CF910895FB01238120FF12C026FDE0
:103FC00010C08F3F3FEF930761F082832F7D206405
:103FD000238326813781215031093783268399270E
:103FE00008958FEF9FEF0895FA01AA27283051F125
:103FF000203181F1E8946F936E7F6E5F7F4F8F4F1A
:104000009F4FAF4FB1E03ED0B4E03CD0670F781F78
:10401000891F9A1FA11D680F791F8A1F911DA11D5D
:104020006A0F711D811D911DA11D20D009F4689496
:104030003F912AE0269F11243019305D3193DEF63E
:10404000CF010895462F4770405D4193B3E00FD0F4
:10405000C9F7F6CF462F4F70405D4A3318F0495DDF
:1040600031FD4052419302D0A9F7EACFB4E0A695C2
:104070009795879577956795BA95C9F700976105E4
:10408000710508959B01AC010A2E0694579547953A
:1040900037952795BA95C9F7620F731F841F951F2F
:1040A000A01D08950F931F93CF93DF93869F8001E8
:1040B000879F100D969F100D1124C801FCDBEC01A9
:1040C000009721F0A80160E070E009D0CE01DF91F7
:1040D000CF911F910F910895992788270895DC01AA
:1040E00001C06D9341505040E0F70895F894FFCF20
:1040F00001F401F401F401016400E803E803E803BA
:10410000E803E803F401E803E803C8002C01E8032E
:10411000F401E803DC05E8032C0138FF0CFE000085
:104120000A000A0005000A000A000A0032000A001C
:104130000A0014002C015802F4012C0132009CFFEB
:10414000D4FE0CFE38FF64000101010210000000E3
:10415000000000000000000000000000000000005F
:104160000001000000000000000000FFFFFFFFFF53
:10417000FFFFFF0000350420002C20004B702C4B6B
:10418000692C4B642C566D2C50722C506D2C540D98
:104190000A0025662C25662C25662C25660D0A004E
:1041A00043616E6E6F7420746F67676C65206E6517
:1041B000676174697665206D732E00436F6E766556
:1041C0007274656420746F20746F67676C6520700B
:1041D0006572696F643A2025642E0A00477265652E
:1041E0006E2025642C2025640A000D0A48454C5099
:1041F0003A204C2F6C3A2053746172742F53746FB1
:1042000070204C6F6767696E670D0A00562F763A0B
:104210002056696577204B642C204B702C20566DFE
:104220002C2050722C20506D2C20616E6420540D77
:104230000A00522F723A20506F736974696F6E20B2
:1042400028636F756E7473290D0A00532F733A201B
:1042500053706565642028636F756E74732F736582
:1042600063290D0A00503A20496E637265617365D7
:10427000204B700D0A00703A2044656372656173CB
:1042800065204B700D0A00443A20496E63726561E7
:104290007365204B640D0A00643A204465637265BF
:1042A000617365204B640D0A00743A20457865639C
:1042B000757465207472616A6563746F72790D0A32
:1042C000005553422053657269616C20496E6974D0
:1042D00069616C697A65640D0A000D4D656E753A09
:1042E000203C4C2C562C522C532C502C442C743EDD
:1042F0003A2000256300476F742025630A004F7041
:104300003A25630D0A00456E74657220636F756E01
:1043100074733A00456E7465722076616C75653A07
:1043200000436F6D6D616E6420646F6573206E6F06
:104330007420636F6D707574652E0D0A0052583AC3
:044340002028000031
:00000001FF
