:1000000020C100003DC100003BC1000039C100001B
:1000100037C1000035C1000033C1000073C10000CA
:100020002FC100002DC100002BC100000C945917F6
:1000300027C100000C947A0C23C1000021C10000EC
:100040008CC700001DC100001BC1000019C10000C9
:100050000C9409150C94011713C1000011C1000084
:100060000FC100000DC100000BC1000009C100005C
:100070000C9433150C94291703C1000001C1000032
:100080000C94170CFDC00000FBC00000240E500EA5
:10009000500E500E500EF80D500E500EC30D500E57
:1000A000500E500EC60D500EAE0DB30DB80D500EC5
:1000B000F60D500E500E500E500E500E500E500EAB
:1000C000500E500E500E500E500E500E380E500E58
:1000D000500E500EA80D0F0E500E500EAA0D500EC1
:1000E000500E500EE00D500EAE0DB30DBD0D500E66
:1000F000F60D6E616E00696E66006364696E6F7006
:10010000737578585B65666745464700616E006E9B
:1001100066696E69747900CDCCCC3D0AD7233C1753
:10012000B7D13877CC2B329595E6241FB14F0A0012
:100130000020410000C84200401C4620BCBE4CCA02
:100140001B0E5AAEC59D7400407A10F35A00A0727F
:100150004E18090010A5D4E80000E8764817000002
:10016000E40B54020000CA9A3B000000E1F50500D0
:100170000080969800000040420F000000A0860119
:10018000000000102700000000E8030000000064E9
:1001900000000000000A0000000000010000000054
:1001A000002C76D888DC674F0823DFC1DFAE59E129
:1001B000B1B796E5E3E453C63AE651997696E8E698
:1001C000C28426EB898C9B62ED407C6FFCEFBC9C6B
:1001D0009F40F2BAA56FA5F490055A2AF75C936B7D
:1001E0006CF9676DC11BFCE0E40D47FEF520E6B538
:1001F00000D0ED902E0300943577050080841E0812
:100200000000204E0A000000C80C333333330F982F
:100210006E12831141EF8D2114893BE65516CFFEF6
:10022000E6DB18D1844B381BF77C1D901DA4BBE482
:1002300024203284725E228100C9F124ECA1E53DC4
:10024000270011241FBECFEFD0E4DEBFCDBF14E0E6
:10025000A0E0B1E0E8E5FEE400E00BBF02C00790DB
:100260000D92A631B107D9F717E3A6E1B4E001C0BA
:100270001D92A73DB107E1F70E94C40E0C942A27F6
:10028000BFCE809107018F5F809307010895109280
:100290006E0410926D0410926C0410926B04109214
:1002A0006A04109269041092680410926704109214
:1002B0006304109264041092650410926604109214
:1002C00062041092610408958AB1807F8AB981E046
:1002D00090E04A9902C080E090E090936A04809395
:1002E000690481E090E04B9902C080E090E0909337
:1002F0006804809367048FE08093730088E08093A4
:10030000680008951F920F920FB60F9211240BB63A
:100310000F92CF92DF92EF92FF920F931F932F9342
:100320003F934F935F936F937F938F939F93AF937D
:10033000BF93EF93FF9381E090E04A9902C080E081
:1003400090E090936E0480936D0481E090E04B996F
:1003500002C080E090E090936C0480936B04209145
:100360006D0430916E04809167049091680440910F
:100370006B0450916C04642F4091690450916A049D
:10038000342F281799F08091630490916404A09110
:100390006504B09166040196A11DB11D80936304AC
:1003A00090936404A0936504B0936604631799F076
:1003B0008091630490916404A0916504B0916604F7
:1003C0000197A109B1098093630490936404A093F9
:1003D0006504B09366048091630490916404A091D5
:1003E0006504B0916604892B8A2B8B2B91F0609168
:1003F000630470916404809165049091660429EC13
:1004000038E040E050E00E946022672B682B692BA7
:1004100041F50E94D71760937D0470937E0480930A
:100420007F049093800400918104109182042091B4
:100430008304309184046B017C01C01AD10AE20A62
:10044000F30AC0927904D0927A04E0927B04F0928D
:100450007C0460938104709382048093830490935E
:10046000840480916D0490916E0490936A0480934B
:10047000690480916B0490916C049093680480935C
:100480006704FF91EF91BF91AF919F918F917F9101
:100490006F915F914F913F912F911F910F91FF901D
:1004A000EF90DF90CF900F900BBE0F900FBE0F908C
:1004B0001F9018959093780480937704823091056B
:1004C000A1F018F4019739F008958330910541F0B7
:1004D000049759F008957093AB376093AA37089545
:1004E0007093E1046093E004089510923804109230
:1004F000370410924E0410924D0410925004109242
:100500004F0408958091770490917804029709F040
:100510004AC080915B0490915C0497FF03C0919561
:10052000819591090B974CF4809137049091380490
:1005300001969093380480933704209137043091CA
:100540003804E0914D04F0914E04EE0FFF1FE85D7A
:10055000FE4F8081918182179307BCF4109238047A
:100560001092370480914D0490914E04019690931F
:100570004E0480934D0480914D0490914E040A974F
:1005800024F010924E0410924D04E0914D04F0912D
:100590004E04EE0FFF1FE45CFE4F8081918190932B
:1005A000AB378093AA3708950F931F9380917704F8
:1005B00090917804049709F089C080915D0490912E
:1005C0005E0497FF03C09195819591094097B4F41B
:1005D0008091370490913804892B81F40E94D717B9
:1005E00060938504709386048093870490938804B5
:1005F00081E090E090933804809337048091370431
:1006000090913804019751F50E94D7170091850405
:10061000109186042091870430918804601B710B2F
:10062000820B930B643F714081059105B8F01092E5
:1006300038041092370480914F0490915004019631
:100640009093500480934F0480914F0490915004F4
:10065000039724F01092500410924F04E0914F043D
:10066000F0915004EE0FFF1FEE5DFE4F20813181AF
:100670008091630490916404A0916504B091660434
:10068000281B390BC9018753974F8339914180F05B
:100690008091630490916404A0916504B091660414
:1006A00037FF03C0895C98400DC08753974F0AC03D
:1006B000E0914F04F0915004EE0FFF1FEE5DFE4FEE
:1006C000808191819093E1048093E0041F910F91C8
:1006D0000895861797072CF0481759071CF4CA018C
:1006E0000895CB01089597FF03C0919581959109D5
:1006F00008958AB1806C8AB987B1806C87B983E824
:100700008093B00082E08093B1001092B30008950E
:10071000BEDDDADDEECF61302FEF720774F06F3F90
:10072000710509F02CF4019799F477FD0AC003C014
:10073000019771F46FEF479A08C0019749F461E09F
:100740007FEF47987195619571096093B3000895A3
:10075000089580E20E9401138823B1F08091610422
:10076000909162041816190634F4809161049091F6
:1007700062040A9605C080916104909162040A9710
:10078000909362048093610488E00E94011388239F
:10079000A9F060E070E080E090E00E94D61288EC62
:1007A00090E00E94A017809161049091620491955D
:1007B00081959109909362048093610484E00E9482
:1007C00001138823B1F0809161049091620418169E
:1007D000190634F480916104909162040A9705C06F
:1007E00080916104909162040A96909362048093D0
:1007F000610480916104909162048F3F910519F02A
:1008000014F08FEF90E081302FEF920714F481E025
:100810009FEF9093620480936104609161047091F2
:10082000620481E090E077DF82E390E00E94A0170D
:1008300060E080E00E946510609163047091640440
:1008400080916504909166040E9444108BE891E0C9
:100850000E94EB0F6091610470916204882777FD1C
:100860008095982F0E9444108BE891E00E94EB0F36
:1008700061E080E00E94651060915D0470915E040B
:10088000882777FD8095982F0E9444108BE891E08F
:100890000E94EB0F60913304709134048091350411
:1008A000909136040E944F1C0E9444108BE891E006
:1008B0000E94EB0F6091370470913804882777FD10
:1008C0008095982F0E9444108CE891E00C94EB0FD7
:1008D0008330910509F492C038F48130910571F0AC
:1008E000029709F44BC008958530910509F406C1BB
:1008F00008F4C4C0069709F441C108956130710538
:1009000079F4609110017091110180911201909120
:1009100013012DEC3CEC4CEC5DE30E94E71B0EC098
:100920006091100170911101809112019091130159
:100930002DEC3CEC4CEC5DE30E94E61B6093100157
:100940007093110180931201909313016091100133
:1009500070911101809112019091130120E030E01B
:10096000A9010E944B1C87FF48C1109210011092F0
:100970001101109212011092130108956130710556
:1009800079F460910C0170910D0180910E019091AC
:100990000F0127E137EB41ED58E30E94E71B0EC042
:1009A00060910C0170910D0180910E0190910F01E9
:1009B00027E137EB41ED58E30E94E61B60930C0101
:1009C00070930D0180930E0190930F0160910C01C3
:1009D00070910D0180910E0190910F0120E030E0A7
:1009E000A9010E944B1C87FF08C110920C011092B4
:1009F0000D0110920E0110920F01089561307105E2
:100A000079F4609108017091090180910A01909137
:100A10000B012DEC3CEC4CEC5DE30E94E71B0EC09F
:100A2000609108017091090180910A0190910B0178
:100A30002DEC3CEC4CEC5DE30E94E61B609308015E
:100A40007093090180930A0190930B016091080152
:100A50007091090180910A0190910B0120E030E032
:100A6000A9010E944B1C87FFC8C010920801109278
:100A7000090110920A0110920B010895613071056D
:100A800079F4609118017091190180911A01909187
:100A90001B012DEC3CEC4CEC5DE30E94E71B0EC00F
:100AA000609118017091190180911A0190911B01B8
:100AB0002DEC3CEC4CEC5DE30E94E61B60931801CE
:100AC0007093190180931A0190931B016091180192
:100AD0007091190180911A0190911B0120E030E082
:100AE000A9010E944B1C87FF88C010921801109228
:100AF000190110921A0110921B01089561307105BD
:100B000079F4609114017091150180911601909112
:100B1000170127E137EB41ED58E30E94E71B0EC0B8
:100B20006091140170911501809116019091170147
:100B300027E137EB41ED58E30E94E61B6093140177
:100B40007093150180931601909317016091140121
:100B500070911501809116019091170120E030E00D
:100B6000A9010E944B1C87FF48C0109214011092EB
:100B70001501109216011092170108956130710548
:100B800079F46091490470914A0480914B049091EA
:100B90004C042DEC3CEC4CEC5DE30E94E71B0EC0DA
:100BA0006091490470914A0480914B0490914C04E7
:100BB0002DEC3CEC4CEC5DE30E94E61B6093490499
:100BC00070934A0480934B0490934C0460914904C1
:100BD00070914A0480914B0490914C0420E030E0E5
:100BE000A9010E944B1C87FF08C010924904109273
:100BF0004A0410924B0410924C040895A0E4B0E013
:100C0000E4E0F6E00C948622F6D680917704909189
:100C10007804039708F051C06EE871E08E010F5F11
:100C20001F4FC8010E94F7246AE170E0C801EBD6AB
:100C3000E2D6C0900801D0900901E0900A01F0903E
:100C40000B0180910C0190910D01A0910E01B091CA
:100C50000F014091100150911101609112017091AA
:100C60001301209136042F93209135042F93209166
:100C700034042F93209133042F93FF92EF92DF924D
:100C8000CF92BF93AF939F938F937F936F935F9315
:100C90004F9389EA91E09F938F931F9280E48F9303
:100CA0001F930F930E940226BC01C801ACD6A3D6A5
:100CB0000FB6F894DEBF0FBECDBF80917704909140
:100CC00078049C01235031092230310518F0892B1A
:100CD00009F051C067EB71E08E010F5F1F4FC80133
:100CE0000E94F7246AE170E0C8018DD684D6C090D6
:100CF0004904D0904A04E0904B04F0904C04809159
:100D0000140190911501A0911601B0911701409125
:100D100018015091190160911A0170911B012091E5
:100D200036042F93209135042F93209134042F9370
:100D3000209133042F93FF92EF92DF92CF92BF93D3
:100D4000AF939F938F937F936F935F934F9389EAB2
:100D500091E09F938F931F9280E48F931F930F9343
:100D60000E940226BC01C8014ED645D60FB6F894A3
:100D7000DEBF0FBECDBFC05CDF4FE8E00C94A22207
:100D8000A0E8B0E0E6ECF6E00C9481226C0133D6EA
:100D9000C114D104D1F01092740410927304E2EEE5
:100DA000F4E08AE1DF01282F1D922A95E9F77A966F
:100DB00037E3EA3AF307B1F7D0927204C0927104B4
:100DC000C058DF4FEDE00C949D2280917304909108
:100DD0007404853F914024F01092740410927304BF
:100DE000E0916F04F0917004EE0FFF1FE05BFE4F87
:100DF00081818F9380818F9382ED91E09F938F9378
:100E00001F9280E48F93FE0131967F01FF92EF9352
:100E10000E940226BC01C701F6D5EDD56FED71E049
:100E2000C7010E94F72461E370E0C701ECD5E3D568
:100E300002EE14E00FB6F894DEBF0FBECDBFA12CBA
:100E4000B12C51E1852E52E0952E60E8762E8091EE
:100E5000730490917404A816B9060CF0ADCFD801B4
:100E600059968C9159978F9358968C9158978F9348
:100E700057968C9157978F9356968C9156978F9340
:100E800055968C9155978F9354968C9154978F9338
:100E900053968C9153978F9352968C9152978F9330
:100EA00051968C9151978F9350968C9150978F9328
:100EB0001F968C911F978F931E968C911E978F93E0
:100EC0001D968C911D978F931C968C911C978F93D8
:100ED00017968C9117978F9316968C9116978F93E0
:100EE00015968C9115978F9314968C9114978F93D8
:100EF0001B968C911B978F931A968C911A978F93B0
:100F000019968C9119978F9318968C9118978F93A7
:100F100013968C9113978F9312968C9112978F93AF
:100F200011968C9111978F938C918F939F928F92A2
:100F30001F927F92FF92EF920E9402260FB6F894C2
:100F4000DEBF0FBECDBFBC01C7015DD554D5FFEFDD
:100F5000AF1ABF0A065E1F4F7ACF1F920F920FB6CD
:100F60000F9211240BB60F924F925F926F927F9265
:100F70008F929F92AF92BF92CF92DF92EF92FF92A9
:100F80000F931F932F933F934F935F936F937F9391
:100F90008F939F93AF93BF93EF93FF93CF93DF9381
:100FA000CDB7DEB76097DEBFCDBF80906304909071
:100FB0006404A0906504B090660480918D049091C3
:100FC0008E04019690938E0480938D04C0908B04C0
:100FD000D0908C042FEFC21AD20AD0928C04C09207
:100FE0008B04E0907704F09078040A970CF18091DC
:100FF0005F0490916004B401681B790B882777FD2A
:101000008095982F0E94821C60933304709334045F
:1010100080933504909336049092600480925F042C
:10102000C7010197029720F010928E0410928D0450
:1010300041E0E416F10408F486C183E0E816F10407
:1010400030F095E0E916F10408F4C8C07CC1809145
:101050008D0490918E040A970CF475C16091AA37A3
:101060007091AB3740903304509034046090350455
:1010700070903604882777FD8095982F0E94821CF7
:10108000A30192010E94E61B0E944F1C70935C0416
:1010900060935B04609157047091580480915904E7
:1010A00090915A04A30192010E94E61B6B017C01FE
:1010B00060932F0470933004809331049093320432
:1010C0008090390490903A04A0903B04B0903C0486
:1010D00060915B0470915C04882777FD8095982F60
:1010E0000E94821C9B01AC01C501B4010E94E71B58
:1010F0006093390470933A0480933B0490933C04CA
:10110000009161041091620460915B0470915C0431
:101110002091100130911101409112015091130161
:101120008090390490903A04A0903B04B0903C0425
:1011300080910C0190910D01A0910E01B0910F01D1
:1011400089839A83AB83BC838091080190910901C4
:10115000A0910A01B0910B018D839E83AF83B88764
:10116000882777FD8095982F2D873E874F87588B4E
:101170000E94821C2D853E854F8558890E94321D14
:101180000E944F1C060F171F29813A814B815C81F9
:10119000C501B4010E94321D0E944F1C060F171F8B
:1011A0002D813E814F815885C701B6010E94321DB5
:1011B0000E944F1C600F711F709362046093610462
:1011C00040925704509258046092590470925A0405
:1011D00099D910928E0410928D04B5C094EFC9165F
:1011E00091E0D9060CF4AFC010928C0410928B04DD
:1011F0008091E0049091E1048819990990935E042C
:1012000080935D04609155047091560468197909C2
:10121000882777FD8095982F0E94821C6093450453
:10122000709346048093470490934804C09041040F
:10123000D0904204E0904304F090440460915D0437
:1012400070915E04882777FD8095982F0E94821CFC
:101250009B01AC01C701B6010E94E71B60934104EA
:1012600070934204809343049093440460915D041E
:1012700070915E04209118013091190140911A017A
:1012800050911B018091410490914204A09143042C
:10129000B091440489839A83AB83BC83409014014A
:1012A00050901501609016017090170180914504CF
:1012B00090914604A0914704B09148048D839E8389
:1012C000AF83B887C0904904D0904A04E0904B04A3
:1012D000F0904C04882777FD8095982F2D873E87C6
:1012E0004F87588B0E94821C2D853E854F855889DB
:1012F0000E94321D0E944F1C69877A878B879C87CA
:10130000A301920169817A818B819C810E94321DA7
:101310000E944F1C09851A85060F171FA701960109
:101320006D817E818F8198850E94321D0E944F1CA5
:10133000600F711F70936204609361049092560471
:101340008092550431D98091710490917204892B57
:1013500009F458C18091770490917804009721F0A6
:101360009093700480936F042091890430918A04D3
:101370002F5F3F4F30938A04209389042436310530
:101380000CF440C110928A041092890420917304D5
:1013900030917404243F31400CF031C1813091050B
:1013A00008F430C18330910508F47AC0059708F03D
:1013B00029C1E0907304F09074040E94D7172AE1C9
:1013C0002E9DF0012F9DF00D1124EE51FB4F6083F7
:1013D000718382839383409173045091740480914C
:1013E000180190911901A0911A01B0911B01249F3D
:1013F000F001259FF00D1124EE51FB4F808791875E
:10140000A287B387409173045091740480911401B2
:1014100090911501A0911601B0911701249FF00140
:10142000259FF00D1124EE51FB4F84839583A683F5
:10143000B783409173045091740480914904909152
:101440004A04A0914B04B0914C04249FF001259FC5
:10145000F00D1124EE51FB4F84879587A687B7873F
:101460008091730490917404289FF001299FF00DDE
:101470001124EE51FB4F8091330490913404A091DC
:101480003504B0913604808B918BA28BB38B409145
:101490007304509174048091E0049091E10476C04B
:1014A000E0907304F09074040E94D7172AE12E9DF7
:1014B000F0012F9DF00D1124EE51FB4F60837183DD
:1014C000828393834091730450917404809110013E
:1014D00090911101A0911201B0911301249FF0018C
:1014E000259FF00D1124EE51FB4F80879187A28735
:1014F000B387409173045091740480910C019091D2
:101500000D01A0910E01B0910F01249FF001259FC4
:10151000F00D1124EE51FB4F84839583A683B7838E
:1015200040917304509174048091080190910901D5
:10153000A0910A01B0910B01249FF001259FF00DAD
:101540001124EE51FB4F84879587A687B78780913A
:10155000730490917404289FF001299FF00D1124C9
:10156000EE51FB4F8091330490913404A0913504E7
:10157000B0913604808B918BA28BB38B4091730416
:10158000509174048091AA379091AB37249FF00159
:10159000259FF00D1124EE51FB4F958B848B4091CC
:1015A0007304509174048091630490916404A09139
:1015B0006504B0916604249FF001259FF00D11246D
:1015C000EE51FB4F978B868B4091730450917404BE
:1015D0008091610490916204249FF001259FF00D99
:1015E0001124EE51FB4F918F808F80917304909165
:1015F00074040196909374048093730403C080E094
:1016000090E0BEDB60960FB6F894DEBF0FBECDBF94
:10161000DF91CF91FF91EF91BF91AF919F918F910A
:101620007F916F915F914F913F912F911F910F91FA
:10163000FF90EF90DF90CF90BF90AF909F908F90F2
:101640007F906F905F904F900F900BBE0F900FBEEA
:101650000F901F90189580917704909178040895C9
:1016600080915A018F5F80935A01089511B81AB87A
:1016700011B80A9A559A089A129A5D9A109A28EC0B
:1016800030E01092BC041092BD041092BE0410927F
:10169000BF048091BC049091BD04A091BE04B091A0
:1016A000BF048C3B9541A105B105A0F48091BC0419
:1016B0009091BD04A091BE04B091BF040196A11DFC
:1016C000B11D8093BC049093BD04A093BE04B0935D
:1016D000BF04DFCF215031092115310591F6129851
:1016E0005D98109810921B0410921C0410921D0417
:1016F00010921E0410921F041092200410922104D4
:1017000010922204109217041092180410921904D7
:1017100010921A0408950F931F93CF93C82F9B0123
:1017200077FF05C085E792E00E94D5257CC0CB01FC
:1017300064E670E00E942B228901081B190B1F939D
:101740000F9320E932E03F932F930E94C3250F901F
:101750000F900F900F90C23519F0C13409F05DC0A1
:101760000115110511F40A9801C00A9A1093060197
:1017700000930501C93529F40115110531F40898C4
:1017800005C0C13409F04CC0F7CF089A109302018C
:1017900000930101C73429F40115110531F455985E
:1017A0000BC0C13409F03FC0F7CF559A013A8FE022
:1017B000180714F000EA1FE01093040100930301DE
:1017C0001016110684F5B80180E090E00E94801C9C
:1017D00021E73DE34CE951E40E94321D0E94541C74
:1017E00070938900609388008091880090918900AF
:1017F0009F938F93809104018F93809103018F9326
:1018000081EB92E09F938F930E94C3250F900F90DE
:101810000F900F900F900F9006C0C93509F4ACCF10
:10182000C73409F4B9CFCF911F910F9108951F923A
:101830000F920FB60F9211240F931F932F933F9384
:101840005F936F937F938F939F93AF93BF93009119
:10185000290410912A0420912B0430912C040F5F4D
:101860001F4F2F4F3F4F0093290410932A042093BA
:101870002B0430932C04809101019091020164E6C5
:1018800070E00E941722CB01A0E0B0E00817190712
:101890002A073B07F8F082B191E0892782B980914D
:1018A000170490911804A0911904B0911A0401969C
:1018B000A11DB11D8093170490931804A0931904DF
:1018C000B0931A041092290410922A0410922B0447
:1018D00010922C04BF91AF919F918F917F916F9146
:1018E0005F913F912F911F910F910F900FBE0F901D
:1018F0001F9018951F920F920FB60F9211248F937D
:101900009F93AF93BF9380911B0490911C04A0916F
:101910001D04B0911E040196A11DB11D80931B04EE
:1019200090931C04A0931D04B0931E04BF91AF912B
:101930009F918F910F900FBE0F901F9018958091DF
:101940005B018F5F80935B01089582E884BD84E032
:1019500085BD8EE487BD82E080936E0010922504E1
:1019600010922604109227041092280480E8809395
:1019700090008BE08093910082E19AE79093990028
:1019800080939800E1E7F0E080818260808310928C
:10199000290410922A0410922B0410922C0480E443
:1019A000809380008DE080938100609103017091AD
:1019B000040180E090E00E94801C21E73DE34CE9B7
:1019C00051E40E94321D0E94541C70938900609360
:1019D000880081E090E090938B0080938A00EFE68E
:1019E000F0E0808182608083089580915C018F5F48
:1019F00080935C01089582E016D6811103C00E9495
:101A0000CB16F9CF0895462FBC0182E00E94FF1645
:101A1000F2CF62E270E08FEB92E0F5DF65E270E01A
:101A200082EE92E0F0DF68E170E088E093E0EBDFC7
:101A300069E170E081E293E0E6DF60E170E08BE372
:101A400093E0E1DF60E170E08CE493E0DCDF60E1F3
:101A500070E08DE593E0D7DF60E170E08EE693E023
:101A6000D2DF67E170E08FE793E0CDCF40E855E249
:101A700060E070E082E00E941D1640E26CEA77E3CD
:101A800082E0C5D762E270E087E993E0BCDFC1DFA6
:101A900068E170E08AEB93E0B6CFA3E2B0E0E3E563
:101AA000FDE00C948A229E012F5D3F4F3F932F93C0
:101AB0009E012D5D3F4F3F932F9323ED33E03F93E6
:101AC0002F939F938F930E946E2660E080E0FDD25B
:101AD0008AA18F9389A18F932BA1822F992787FDAC
:101AE00090959F932F9389ED93E09F938F930E94FE
:101AF000C3258AA18F9389A18F932BA1822F992728
:101B000087FD90959F932F9384EE93E09F938F93FF
:101B10008E010F5F1F4F1F930F930E943F26BC0142
:101B2000C80171DF0FB6F894DEBF0FBECDBF8BA129
:101B3000992787FD9095A92FB92FFC01E454F1094D
:101B4000E333F10508F0ACC0EA5BFF4F0C94B3221D
:101B500060DFABC080E090E013D9A7C069A17AA193
:101B600083E090E00EC069A17AA181E090E009C015
:101B700060E070E084E090E004C060E070E082E04B
:101B800090E00E945A0281E090E0E6CF64DD019788
:101B900029F461E070E081E090E00AC05CDD02972A
:101BA000C1F359DD039739F461E070E084E090E01F
:101BB0000E9468047AC04FDD049709F076C0F4CF24
:101BC0004ADD019729F462E070E081E090E017C0FF
:101BD00042DD0297C1F33FDD039729F462E070E034
:101BE00084E090E00CC037DD0497C1F307D85DC0F6
:101BF00032DD019739F461E070E082E090E00E940C
:101C00006804F4CF28DD0297B1F325DD039719F4BA
:101C100061E070E012C01FDD049741F7F9CF1BDDD2
:101C2000019719F462E070E0E8CF15DD0297D1F377
:101C300012DD039729F462E070E085E090E0DFCFE9
:101C40000ADD049799F6F7CF06DD019719F461E0F4
:101C500070E013C000DD0297D1F3FDDC039719F4A7
:101C600061E070E015C0F7DC049709F0BFCFF8CF52
:101C7000F2DC019729F462E070E083E090E0BFCFEE
:101C8000EADC0297C1F3E7DC039729F462E070E035
:101C900086E090E0B4CFDFDC049709F0A7CFF6CF61
:101CA0006BE170E083EF93E0AEDE68E170E08AEB19
:101CB00093E0A9DEA396E4E00C94A622A0E2B0E0B3
:101CC000E4E6FEE00C94882282E09DD49091CC372B
:101CD00020918F04309190048917D9F0A1E0B0E0F1
:101CE000AC0FBD1FA20FB31FE92FF0E0E455F84C75
:101CF00080818C932F5F3F4F3093900420938F040B
:101D00009F3119F41092CC37DFCF9F5F9093CC377F
:101D1000DBCF21153105A1F12130310519F489817D
:101D20008A3051F18E010F5F1F4FF801E20FF31F50
:101D3000108261E080E0C9D18FE094E04CD16091E5
:101D40008F0470919004882777FD8095982F9CD1FF
:101D500089E2BCD0780180918F0490919004970122
:101D6000201B310B281739072CF4F70181917F01D3
:101D7000ADD0F1CFC80191DE1092900410928F0483
:101D8000A096E6E00C94A4220E948803EFD2DDDD49
:101D90006DDE0CD178940E94A903FDD78FDFFBCFB5
:101DA00080E090E0089581E090E06F9364E06A95B0
:101DB000F1F76F910197C9F708950F931F93CF9390
:101DC000DF9317B13D982898299AC0E0D0E0EBDF67
:101DD0002A9AE9DF06B12A98E6DF2A9AE4DF2A98F0
:101DE000249605FF10C09E0140E050E080919504CC
:101DF00090919604A0919704B09198042817390700
:101E00004A075B0720F39E0140E050E08091950473
:101E100090919604A0919704B091980428173907DF
:101E20004A075B0728F082E390E0A0E0B0E004C03E
:101E300080E395E7A0E0B0E080939504909396044A
:101E4000A0939704B093980417B9DF91CF911F9195
:101E50000F91089528B190E08F709070880F991FAE
:101E6000880F991F237C282B28B92A9A9CDF2A984F
:101E70009ACFA2E0B0E0EFE3FFE00C948922182FA4
:101E80004A8369835FD099DFF7B008B129986981E7
:101E90004A81662311F0289A01C0289887B18C6383
:101EA00087B9413021F0812F82958F70D3DF812F48
:101EB0008F70D0DFF7B808B92296E5E00C94A52220
:101EC00060E042E0D6CF61E042E0D3CFFCCF08959E
:101ED00060E041E0CECF3D98459A80E395E7A0E0F1
:101EE000B0E08093950490939604A0939704B093E8
:101EF0009804209A219A229A8EE190E00E94A017DD
:101F000083E0E6DF86E090E00E94A01783E0E0DF58
:101F100082E090E00E94A01783E0DADF82E090E0A8
:101F20000E94A01782E0D4DF82E090E00E94A01718
:101F300088E2C6DF88E0C4DF81E0C2DF86E0C0DF80
:101F40008CE0BECF80919904882321F481E08093B6
:101F50009904C1CF089581E0B3DF809191049091FD
:101F60009204009711F1A0E0B0E208C0E091910462
:101F7000F0919204E20FF31FB083AF5F2A2F30E09D
:101F800080915D0190E0019760915E0170E0869F15
:101F9000A001879F500D969F500D112424173507DF
:101FA0002CF310929404109293040895D4CF0895C2
:101FB000EF92FF92CF93DF93E82EE7017E01F92E97
:101FC000E70101C080DF89918823E1F7DF91CF919C
:101FD000FF90EF900895ECCF0895AAE0B0E0E3EF12
:101FE000FFE00C9484229B01AC011AE06AE0C62E4B
:101FF000D12CE12CF12C5E010894A11CB11C022F04
:10200000CA01B901A70196010E943E221150F501B3
:10201000E10FF11D005D922F990F892F880F880F16
:10202000890F081B0083211531054105510539F73A
:1020300007C0F601E10FF11D808145DF1F5F04C07D
:102040006E010894C11CD11C1A3098F32A96EAE05C
:102050000C94A022EF92FF920F931F937B018C01AF
:1020600097FF0AC010950095F094E094E11CF11CD4
:10207000011D111D8DE227DFC801B701AEDF1F91E1
:102080000F91FF90EF900895E5CF0895A5E0B0E09F
:10209000ECE4F0E10C948B22182F80E8898380EC2B
:1020A0008A8384E98B8384ED8C83FE01E60FF11D26
:1020B0008181810F6D8304DF109394046D8160939F
:1020C00093042596E3E00C94A722E0CF0895A0E0C6
:1020D000B0E0EDE6F0E10C948622D82E80919104D8
:1020E00090919204009709F4F2C02D2D2A3009F442
:1020F00042C02830C9F480919404815080939404A4
:102100008F3F51F480919304815080939304809188
:102110005E01815080939404809193048F3F09F075
:10212000D1C010929304CCC08D2DCDDE809193044C
:102130008823B9F090E0019740915E0150E0849FC0
:102140009001859F300D949F300D1124809194044F
:10215000E0919104F0919204E20FF31FE80FF11D5A
:10216000D082809194048F5F8093940490915E015B
:10217000891709F0ACC040919304242F30E080917E
:102180005D0190E001972817390709F096C0C0E07B
:10219000D0E03FC080E06C2F79DFCC248E010F5F50
:1021A0001F4F32C0EC2CFF2430E0C29FC001C39F00
:1021B000900DD29F900D1124E0919104F091920422
:1021C000EE0DFF1DE80FF91F80817DDE80919104E7
:1021D0009091920420915E0130E0C29FF001C39F74
:1021E000F00DD29FF00D11248E0D9F1DE80FF91FE9
:1021F000029FD001039FB00D129FB00D1124A80FB4
:10220000B91F8C918083C39420915E01C21650F255
:10221000E80160915D01862F90E00297C817D90709
:102220000CF4B8CF6230D0F1625080E02FDF00E0D4
:1022300010E230C0C02FD0E080915D0190E00297A5
:1022400050E0849F9001859F300D949F300D1124A4
:10225000E0919104F0919204EC0FFD1FE20FF31F47
:10226000808131DE80915D0190E0029740915E01B6
:1022700050E0849F9001859F300D949F300D112474
:10228000E0919104F0919204EC0FFD1FE20FF31F17
:1022900010830F5F40915E01041760F260915D0151
:1022A000615080E0F3DE10E003C080E20CDE1F5FCF
:1022B00080915E011817C8F303C04F5F40939304E9
:1022C000109294048091940460919304DFDE2D2D8C
:1022D000332727FD3095C901CDB7DEB7E8E00C9470
:1022E000A2228091910490919204009711F00E9493
:1022F0006A2320915D0130E02150304080915E01E1
:1023000090E0AC01249FC001259F900D349F900D5B
:1023100011240E94D22290939204809391040097FA
:1023200021F1A0E0B0E208C0E0919104F0919204A4
:10233000E20FF31FB083AF5F2A2F30E080915D0181
:1023400090E0019760915E0170E0869FA001879FF9
:10235000500D969F500D1124241735072CF387E656
:1023600090E160ED7EE00C9409250895BACF0895C0
:10237000FC0111821082138212821582148216824D
:10238000683068F489E290E0918380838BE290E08A
:10239000938382838AE290E09583848323C06031B3
:1023A00080F483E290E09183808385E290E09383E0
:1023B000828384E290E09583848370E0685070406B
:1023C00011C06831C0F486E290E09183808388E296
:1023D00090E09383828387E290E09583848370E02A
:1023E0006051704081E090E002C0880F991F6A95AB
:1023F000E2F7868308956032C0F480E290E0918332
:10240000808382E290E09383828381E290E09583EF
:1024100084832FE130E0261B310981E090E002C087
:10242000880F991F2A95E2F786830895FC01A481FD
:10243000B5818681662321F09C91982B9C93089509
:102440009C91809589238C930895FC016F3F31F412
:10245000A281B3818C91968189270CC0A281B3811E
:102460008681662321F09C91982B9C9308959C91E2
:10247000809589238C930895A7E0B0E0E2E4F2E12F
:102480000C948922282FF62E8E010F5F1F4FC80152
:10249000622F6EDFC8016F2DD8DFC80161E0C6DF93
:1024A0002796E5E00C94A52283E08093B00082E0BB
:1024B0008093B100E4EBF0E0108280818093B30060
:1024C00087E160E0D9DF86E160E0D6DF87E060E0A9
:1024D000D3DF86E060E0D0CF80919A04882321F496
:1024E00081E080939A04E0CF0895CF93DF93EC01CD
:1024F000F3DFD7FF05C0D095C195DF4F91E001C054
:1025000090E0CF3FD10519F014F0CFEFD0E0C093A9
:10251000B300209731F48091B0008F778093B000A2
:102520000DC08091B00080688093B000992319F0AD
:1025300087E161E002C087E160E09EDFDF91CF913B
:102540000895CF93DF93EC01C7DFD7FF05C0D09587
:10255000C195DF4F91E001C090E0CF3FD10519F068
:1025600014F0CFEFD0E0C093B400209731F4809105
:10257000B0008F7D8093B0000DC08091B00080626C
:102580008093B000992319F086E161E002C086E1F2
:1025900060E072DFDF91CF910895CF93DF93EB017D
:1025A000A4DFCE01CEDFDF91CF910895F6CF08955D
:1025B00087B1837D87B988B18C6288B985E090E066
:1025C0006F9364E06A95F1F76F910197C9F70895E9
:1025D00080919B04882321F481E080939B04E8CFC1
:1025E0000895A1E0B0E0E7EFF2E10C948C2289833A
:1025F000EFDF96B19095898189232196E2E00C94D2
:10260000A822EFCF0895282F30E0F901EE0FFF1F29
:1026100043E0220F331F4A95E1F7E20FF31FE15A1F
:10262000FE4F82810895282F30E0F901EE0FFF1F41
:1026300073E0220F331F7A95E1F7E20FF31FE15A9F
:10264000FE4F4181282F30E0F901EE0FFF1F53E0CC
:10265000220F331F5A95E1F7E20FF31FE15AFE4FA5
:1026600081E09381491380E00895282F30E0F9013B
:10267000EE0FFF1FB3E0220F331FBA95E1F7E20F11
:10268000F31FE15AFE4F408551854115510509F46C
:1026900052C0282F30E0F901EE0FFF1F73E0220F28
:1026A000331F7A95E1F7E20FF31FE15AFE4F728173
:1026B000282F30E0F901EE0FFF1FB3E0220F331F88
:1026C000BA95E1F7E20FF31FE15AFE4F94817917B3
:1026D00090F5282F30E0F901EE0FFF1F73E0220F75
:1026E000331F7A95E1F7E20FF31FE15AFE4F928113
:1026F000490F511DFA016083282F30E0F901EE0FD8
:10270000FF1F53E0220F331F5A95E1F7E20FF31F2B
:10271000E15AFE4F92819F5F282F30E0F901EE0FC2
:10272000FF1FB3E0220F331FBA95E1F7E20FF31F4B
:10273000E15AFE4F9283282F30E0F901EE0FFF1F80
:1027400073E0220F331F7A95E1F7E20FF31FE15A8E
:10275000FE4F4281282F30E0F901EE0FFF1F53E0BA
:10276000220F331F5A95E1F7E20FF31FE15AFE4F94
:102770009481491701F5282F30E0F901EE0FFF1F72
:1027800093E0220F331F9A95E1F7E20FF31FE15A0E
:10279000FE4F9581992379F0282F30E0F901EE0F53
:1027A000FF1FB3E0220F331FBA95E1F7E20FF31FCB
:1027B000E15AFE4F128208950F931F93182F823013
:1027C00009F474C0882319F4E1ECF0E002C0E9ECEC
:1027D000F0E080818F778083812F90E0FC01EE0F05
:1027E000FF1F03E0880F991F0A95E1F7E80FF91F13
:1027F000E15AFE4F808591850097A1F1212F30E0AD
:10280000F901EE0FFF1FA3E0220F331FAA95E1F796
:10281000E20FF31FE15AFE4F9281212F30E0F901C0
:10282000EE0FFF1F63E0220F331F6A95E1F7E20FFF
:10283000F31FE15AFE4F84819817A0F4112319F475
:10284000E0ECF0E002C0E8ECF0E0808187FF0AC035
:10285000112319F4E6ECF0E002C0EEECF0E0608148
:10286000812F03DF212F30E0F901EE0FFF1F43E03E
:10287000220F331F4A95E1F7E20FF31FE15AFE4F93
:102880008081882309F057C0112319F4E1ECF0E0AE
:1028900002C0E9ECF0E08081806880834CC08091C8
:1028A0007801882319F01092750145C080917B0151
:1028B00090917C01009709F43EC090917501809140
:1028C00077019817C0F58091A804882399F474D3F0
:1028D0008093A80410E00AC06CD3E02FF0E0319799
:1028E000E11BF109E755FB4F80831F5F0091A804AE
:1028F000101790F3A091A804AA23E9F08091750124
:10290000E0917B01F0917C01E80FF11DA150A093B3
:10291000A804B0E0A755BB4F8C91808380917501CE
:102920008F5F809375019091750180917701981761
:1029300009F0BCCFB4CF1F910F910895823051F0B0
:10294000882319F4E1ECF0E002C0E9ECF0E09081BA
:102950009F779083A82FB0E0FD01EE0FFF1F53E09B
:10296000AA0FBB1F5A95E1F7EA0FFB1FE15AFE4F72
:1029700071876087682F70E0FB01EE0FFF1F93E007
:10298000660F771F9A95E1F7E60FF71FE15AFE4FA2
:102990001282682F70E0FB01EE0FFF1FA3E0660FAD
:1029A000771FAA95E1F7E60FF71FE15AFE4F448320
:1029B000482F50E0FA01EE0FFF1F63E0440F551F50
:1029C0006A95E1F7E40FF51FE15AFE4F2583823047
:1029D000D9F0282F30E0F901EE0FFF1F43E0220F5E
:1029E000331F4A95E1F7E20FF31FE15AFE4F908142
:1029F000992351F4882319F4E1ECF0E002C0E9ECEA
:102A0000F0E0808180688083089521E097CFFDCF3A
:102A100008951F920F920FB60F920BB60F921124CA
:102A20002F933F934F935F936F937F938F939F93D6
:102A3000AF93BF93EF93FF936091C60080E015DEE4
:102A4000FF91EF91BF91AF919F918F917F916F9186
:102A50005F914F913F912F910F900BBE0F900FBE42
:102A60000F901F9018951F920F920FB60F920BB6F2
:102A70000F9211242F933F934F935F936F937F9304
:102A80008F939F93AF93BF93EF93FF936091CE008B
:102A900081E0EBDDFF91EF91BF91AF919F918F911D
:102AA0007F916F915F914F913F912F910F900BBE4E
:102AB0000F900FBE0F901F901895882319F4E1EC2A
:102AC000F0E002C0E9ECF0E080818062808308954C
:102AD000882319F4E1ECF0E002C0E9ECF0E0808139
:102AE0008F7D80830895282F30E0F901EE0FFF1FBE
:102AF00093E0220F331F9A95E1F7E20FF31FE15A9B
:102B0000FE4F268137812115310591F1282F30E0C4
:102B1000F901EE0FFF1FA3E0220F331FAA95E1F783
:102B2000E20FF31FE15AFE4F4181282F30E0F901F7
:102B3000EE0FFF1F63E0220F331F6A95E1F7E20FEC
:102B4000F31FE15AFE4F9381491790F4282F30E08C
:102B5000F901EE0FFF1F43E0220F331F4A95E1F703
:102B6000E20FF31FE15AFE4F9081992309F4A5CF9C
:102B7000AFCF823029F1282F30E0F901EE0FFF1F8F
:102B800053E0220F331F5A95E1F7E20FF31FE15A8A
:102B9000FE4F9081992349F4882319F4E1ECF0E089
:102BA00002C0E9ECF0E098E908C0882319F4E1ECF0
:102BB000F0E002C0E9ECF0E098E1908394DF7894D3
:102BC0000895882319F0813029F402C080E0D1CF24
:102BD00081E0CFCF0895A0E0B0E0E1EFF5E10C9403
:102BE0008722D82E7A018B01ECDF8D2D823001F106
:102BF000DD2019F4C4ECD0E002C0CCECD0E0C80178
:102C0000B70128EF3FEF4FEF5FEF0E9408226050BF
:102C1000734D8E4C9E4FA8019701E4E0220F331FA5
:102C2000441F551FEA95D1F70E943E22398328831D
:102C3000CDB7DEB7E7E00C94A322CDCF0895282FBF
:102C400030E0F901EE0FFF1F73E0220F331F7A957A
:102C5000E1F7E20FF31FE15AFE4F4681578141151C
:102C6000510509F465C0282F30E0F901EE0FFF1F70
:102C700093E0220F331F9A95E1F7E20FF31FE15A19
:102C8000FE4F6181282F30E0F901EE0FFF1FA3E016
:102C9000220F331FAA95E1F7E20FF31FE15AFE4F0F
:102CA0009381691708F044C0882319F4E0ECF0E040
:102CB00002C0E8ECF0E0908195FF3AC0882319F457
:102CC000A6ECB0E002C0AEECB0E0282F30E0F90195
:102CD000EE0FFF1F63E0220F331F6A95E1F7E20F4B
:102CE000F31FE15AFE4F9181490F511DFA01908166
:102CF0009C93282F30E0F901EE0FFF1F93E0220F85
:102D0000331F9A95E1F7E20FF31FE15AFE4F9181CD
:102D10009F5F282F30E0F901EE0FFF1FA3E0220F85
:102D2000331FAA95E1F7E20FF31FE15AFE4F91839B
:102D3000DACE1F93182F823021F0CADE812F7FDF79
:102D40001CC08091790190917A010097B1F0309187
:102D5000740120917601321780F406C080917401CD
:102D60008F5F80937401EDCF20917401820F911DCC
:102D7000FC01808125D1882389F71F91089580E087
:102D8000D8DF81E0D6DF82E0D4DF80E015DD81E0AE
:102D900013DD82E011CDF3CF0895282F30E0F90143
:102DA000EE0FFF1F93E0220F331F9A95E1F7E20F1A
:102DB000F31FE15AFE4F77836683282F30E0F90135
:102DC000EE0FFF1FA3E0220F331FAA95E1F7E20FDA
:102DD000F31FE15AFE4F1182282F30E0F901EE0F68
:102DE000FF1F63E0220F331F6A95E1F7E20FF31F25
:102DF000E15AFE4F4383823009F075CE0895CDCF5E
:102E000008951F920F920FB60F920BB60F921124D6
:102E10002F933F934F935F936F937F938F939F93E2
:102E2000AF93BF93EF93FF9380E009DFFF91EF91A2
:102E3000BF91AF919F918F917F916F915F914F91D2
:102E40003F912F910F900BBE0F900FBE0F901F90D0
:102E500018951F920F920FB60F920BB60F92112476
:102E60002F933F934F935F936F937F938F939F9392
:102E7000AF93BF93EF93FF9381E0E1DEFF91EF917A
:102E8000BF91AF919F918F917F916F915F914F9182
:102E90003F912F910F900BBE0F900FBE0F901F9080
:102EA00018956F9364E06A95F1F76F910197C9F7F0
:102EB00008952F928F939F932FB68091B204909193
:102EC000B30401968093B2049093B30490E0809190
:102ED000B404891F8093B4049091BA049C5F9093CA
:102EE000BA048091B90480519742C0F09093BA041B
:102EF0008093B9048091B5049091B60401968093B3
:102F0000B5049093B60490E08091B704891F809334
:102F1000B7048091B804891F8093B8042FBE9F9195
:102F20008F912F901895CF93DF93EC0104C088EE1A
:102F300093E0B7DF21972097D1F7DF91CF910895E4
:102F4000F2CF0895E0E7F0E080818E7F8083A0EBF0
:102F5000B0E08C9183608C93A1EBB0E08C91807F8A
:102F60008C938C9182608C93B89A808181608083ED
:102F7000789408958091BB04882321F481E08093A4
:102F8000BB04E0CF0895F6DFE0E7F0E080818E7FBC
:102F900080832091B5043091B6044091B7045091DC
:102FA000B804808181608083B901CA010895EBCFA4
:102FB00008958FEF64E043C083E867E040D0F9CF25
:102FC0001F93182F982F9095991F9927991F85E87F
:102FD000891B65E034D0812F8F7765E030D01F9159
:102FE00008956F9364E06A95F1F76F910197C9F7BF
:102FF0000895A1E0B0E0EFEFF7E10C948B22182FD9
:10300000249908C02C9906C02C9A8EE190E069831F
:10301000E8DF698184B1806A84B92698812F837042
:1030200080656C7A862B8CBD81E012FF80E08DBDBF
:1030300081E090E078DF2196E3E00C94A7220F93E3
:103040001F93082F162F0CB406FC03C080E064E029
:10305000D0DF0CB404FC03C08CB580618CBD0EBD08
:1030600003C00CB404FE0AC00DB407FEFACF11234E
:1030700019F0812F90E0B5DF8EB501C080E01F917F
:103080000F9108952F923F924F925F926F927F928D
:103090008F929F92AF92BF92CF92DF92EF92FF9268
:1030A0000F931F93CF93DF93CDB7DEB763970FB620
:1030B000F894DEBF0FBECDBF7C011B016A01FC018D
:1030C00017821682838181FF66C3BE016F5F7F4FC7
:1030D0004B01F7019381F10193FD859193FF81915C
:1030E0001F01882309F453C3853239F493FD859178
:1030F00093FF81911F01853239F4B70190E00E945E
:10310000912556016501E5CF10E0512C20E02032D9
:10311000A0F48B3269F030F4803259F0833269F4D4
:1031200020612CC08D3239F0803339F4216026C003
:103130002260246023C0286021C027FD27C030ED15
:10314000380F3A3078F426FF06C0FAE01F9F300DA2
:103150001124132F13C06AE0569E300D1124532EF4
:1031600020620CC08E3221F426FD11C3206406C0FB
:103170008C3611F4206802C0883641F4F10193FDC9
:10318000859193FF81911F018111C1CF9BEB980F16
:10319000933018F42061805E06C09BE9980F93304D
:1031A00008F0AAC12F7E26FF16E02F73722E8536F7
:1031B00021F4F22FF0647F2E08C0863621F4622FAE
:1031C0006068762E02C01111115077FE07C01C33C3
:1031D00048F444244394410E27E00BC0183030F4E7
:1031E000212F06C027E04CE3442E03C027E017E060
:1031F000412C560174E0A70EB11CF601608171816B
:1032000082819381042DA4010E94F9236C0109811C
:1032100000FF02C003FF06C071FC07C072FC08C0BB
:10322000612C08C03DE2632E05C02BE2622E02C075
:1032300090E2692E802F8C7099F1662011F084E065
:1032400001C083E0851510F0512C0BC0581A73FC97
:1032500008C0B70180E290E00E9491255A94C9F716
:10326000F3CF662029F0B701862D90E00E949125CA
:1032700003FD03C006EF10E002C002EF10E0F72DDF
:10328000F0717F2EF8018491882309F476C27110C1
:103290008052B70190E00E9491250F5F1F4FF2CF3F
:1032A00077FE0FC04C0C04FF04C08A81813309F4FF
:1032B0004A94141474F5F8E0F41578F588E0482E73
:1032C0002CC076FC2AC0812F90E08C159D059CF0C7
:1032D0006CEFC6166FEFD60674F0772D7068772EF8
:1032E0000AC0E2E0F0E0EC0FFD1FE10FF11D80816C
:1032F000803319F411501111F4CF77FE0EC044241D
:103300004394410E812F90E0C816D9062CF41C1965
:1033100004C04424439401C010E077FE07C01C148D
:103320001D043CF496012F5F3F4F05C025E030E0BF
:1033300002C021E030E0662011F02F5F3F4F1123E3
:1033400031F0412F50E04F5F5F4F240F351F452D67
:1033500050E02417350714F4521A01C0512C872D60
:10336000897049F4552039F0B70180E290E00E945D
:1033700091255A94F7CF662029F0B701862D90E069
:103380000E94912573FC09C0552039F0B70180E3F4
:1033900090E00E9491255A94F7CF77FE5FC09C2D54
:1033A0008D2DD7FE02C090E080E0692E782E40E09F
:1033B00050E0C601841991099D878C8796012619D2
:1033C0003709280D391D812F90E0EE27FF27E81BD4
:1033D000F90BFF87EE87FFEF6F167F0669F4B701E1
:1033E0008EE290E02B8B3A8B488B598B0E94912573
:1033F000598948893A892B89C614D70454F06C85B9
:103400007D85661577052CF4F901E40FF51F8181A0
:1034100001C080E371E0671A71084F5F5F4FEE856E
:10342000FF856E167F066CF0B70190E02B8B3A8B10
:10343000488B598B0E9491252B893A894889598953
:10344000CACF6C147D0439F49A81963318F49533FD
:1034500011F404FF81E3B70190E04BC08A8181330E
:1034600009F00F7EB70190E00E949125111105C06F
:1034700074FE18C085E490E017C0B7018EE290E0BA
:103480000E94912582E066246394680EF401E80F9F
:10349000F11D8081B70190E00E949125115041F308
:1034A000862DF1CF85E690E0B7010E949125D7FCEB
:1034B00005C0C114D10439F404FF05C0D194C194EE
:1034C000D1088DE201C08BE2B70190E00E94912506
:1034D00080E36AE0C616D1042CF08F5FFAE0CF1AC1
:1034E000D108F7CFB70190E00E949125B701C6013E
:1034F000C0960E94912541C1833631F0833779F01F
:10350000833509F058C021C0560172E0A70EB11CE6
:10351000F6018081898301E010E0640114C0560146
:10352000F2E0AF0EB11CF601C080D18026FF03C0CF
:10353000612F70E002C06FEF7FEFC6012B8B0E94FE
:10354000FE248C012B892F7715C05601F2E0AF0EB7
:10355000B11CF601C080D18026FF03C0612F70E04E
:1035600002C06FEF7FEFC6012B8B0E94EC248C0111
:103570002B892068722E23FD1AC0852D90E0081734
:103580001907A8F4B70180E290E00E9491255A94AF
:10359000F4CFF60177FC859177FE81916F01B70139
:1035A00090E00E94912551105A9401501109011583
:1035B000110579F7E2C0843611F0893651F55601CC
:1035C00027FF09C0F4E0AF0EB11CF60160817181E4
:1035D000828193810AC0F2E0AF0EB11CF6016081D6
:1035E0007181882777FD8095982F022F0F7697FF9E
:1035F00008C090958095709561957F4F8F4F9F4F34
:1036000000682AE030E0A4010E94A826C82EC8184D
:103610003EC0022F853721F40F7E2AE030E01DC026
:10362000097F8F3691F018F4883559F0B0C0803793
:1036300019F0883711F0ABC0006104FF09C00460C5
:1036400007C024FF08C0066006C028E030E005C0BF
:1036500020E130E002C020E132E0560107FF09C05E
:10366000F4E0AF0EB11CF60160817181828193811B
:1036700008C0F2E0AF0EB11CF6016081718180E0FC
:1036800090E0A4010E94A826C82EC8180F7706FF54
:103690000BC0202F2E7FC11650F404FF0AC002FD7C
:1036A00008C0202F2E7E05C0DC2C202F03C0DC2C70
:1036B00001C0D12E24FF0DC0FE01EC0DF11D808153
:1036C000803311F4297E09C022FF06C0D394D3941D
:1036D00004C0822F867809F0D39423FD13C020FF05
:1036E00006C01C2DD51418F4150D1D19D52CD51494
:1036F00068F4B70180E290E02B8B0E949125D3946F
:103700002B89F5CFD51410F45D1801C0512C24FF7E
:1037100012C0B70180E390E02B8B0E9491252B898A
:1037200022FF17C021FF03C088E590E002C088E7B0
:1037300090E0B7010CC0822F867859F021FD02C0BD
:1037400080E201C08BE227FD8DE2B70190E00E948C
:103750009125C11638F4B70180E390E00E949125CD
:103760001150F7CFCA94F401EC0DF11D8081B7011F
:1037700090E00E949125C110F5CF552009F4C2CCEC
:10378000B70180E290E00E9491255A94F6CFF701AC
:103790008681978102C08FEF9FEF63960FB6F894F2
:1037A000DEBF0FBECDBFDF91CF911F910F91FF9074
:1037B000EF90DF90CF90BF90AF909F908F907F90D1
:1037C0006F905F904F903F902F9008955058BB2777
:1037D000AA270ED00DC1FED030F003D120F031F475
:1037E0009F3F11F41EF4F3C00EF4E095E7FBE9C02F
:1037F000E92F0FD180F3BA17620773078407950783
:1038000018F071F49EF527C10EF4E0950B2EBA2F37
:10381000A02D0B01B90190010C01CA01A0011124D6
:10382000FF27591B99F0593F50F4503E68F11A1682
:10383000F040A22F232F342F4427585FF3CF469513
:1038400037952795A795F0405395C9F77EF41F1635
:10385000BA0B620B730B840BBAF09150A1F0FF0FFF
:10386000BB1F661F771F881FC2F70EC0BA0F621FEB
:10387000731F841F48F4879577956795B795F795DB
:103880009E3F08F0B3CF9395880F08F09927EE0F6D
:1038900097958795089571D008F481E0089504D034
:1038A0006894B111D9C00895BCD088F09F5790F0AA
:1038B000B92F9927B751A0F0D1F0660F771F881F55
:1038C000991F1AF0BA95C9F712C0B13081F0C3D070
:1038D000B1E00895C0C0672F782F8827B85F39F00E
:1038E000B93FCCF3869577956795B395D9F73EF4B4
:1038F00090958095709561957F4F8F4F9F4F08955C
:10390000E89409C097FB3EF4909580957095619579
:103910007F4F8F4F9F4F9923A9F0F92F96E9BB272F
:103920009395F695879577956795B795F111F8CFAB
:10393000FAF4BB0F11F460FF1BC06F5F7F4F8F4F16
:103940009F4F16C0882311F096E911C0772321F00C
:103950009EE8872F762F05C0662371F096E8862FA4
:1039600070E060E02AF09A95660F771F881FDAF7FB
:10397000880F9695879597F90895990F0008550F28
:10398000AA0BE0E8FEEF16161706E807F907C0F0E5
:1039900012161306E407F50798F0621B730B840BED
:1039A000950B39F40A2661F0232B242B252B21F4C7
:1039B00008950A2609F4A140A6958FEF811D811D67
:1039C000089597F99F6780E870E060E008959FEFA1
:1039D00080EC089500240A941616170618060906A6
:1039E000089500240A941216130614060506089575
:1039F000092E0394000C11F4882352F0BB0F40F4FD
:103A0000BF2B11F460FF04C06F5F7F4F8F4F9F4F3C
:103A1000089557FD9058440F551F59F05F3F71F0BE
:103A20004795880F97FB991F61F09F3F79F0879525
:103A30000895121613061406551FF2CF4695F1DFAE
:103A400008C0161617061806991FF1CF869571053E
:103A5000610508940895E894BB2766277727CB0172
:103A600097F908950BD0C4CFB5DF28F0BADF18F06E
:103A7000952309F0A6CFABCF1124EECFCADFA0F378
:103A8000959FD1F3950F50E0551F629FF001729FF3
:103A9000BB27F00DB11D639FAA27F00DB11DAA1F12
:103AA000649F6627B00DA11D661F829F2227B00D5F
:103AB000A11D621F739FB00DA11D621F839FA00DEA
:103AC000611D221F749F3327A00D611D231F849F3A
:103AD000600D211D822F762F6A2F11249F57504091
:103AE0008AF0E1F088234AF0EE0FFF1FBB1F661F2C
:103AF000771F881F91505040A9F79E3F510570F0E5
:103B000060CFAACF5F3FECF3983EDCF386957795C4
:103B10006795B795F795E7959F5FC1F7FE2B880FDF
:103B2000911D9695879597F9089520FD09C0FC0190
:103B300023FD05C022FF02C073836283518340834B
:103B4000089544FD10C046FD10C0DB01FC01AA0F22
:103B5000BB1FEE1FFF1F1094D1F76A0F7B1F8E1F34
:103B60009F1F31E003C033E001C034E0660F771FD0
:103B7000881F991F3150D1F7620F711D811D911D52
:103B800008950F931F93CF93DF938C01C8018BD7B8
:103B9000EC0197FD07C005D7892BC1F7B801CE010D
:103BA0000E948F26CE01DF91CF911F910F91089532
:103BB0006F927F929F92AF92BF92CF92DF92EF92DD
:103BC000FF920F931F93CF93DF931F92CDB7DEB772
:103BD0008C013B015A01298366D7AC015527298105
:103BE0004B32510521F04D32510579F4206831E016
:103BF000631A71086114710411F480E079C0C8017E
:103C0000298351D7298197FDF8CFE22FED7F9E2E92
:103C1000322F307369F5803359F57301F1E0EF1AF3
:103C2000F108E114F10409F450C0C80129833BD71D
:103C3000298197FD4AC0382F3F7D383579F4292DE9
:103C40002264922E32E0631A71086114710409F43F
:103C50003CC0C80128D797FF0BC037C026FF04C05F
:103C6000E92DE2609E2E03C0F92DF2619F2E3701EF
:103C7000C12CD12C760120ED280F283080F094FE45
:103C800004C0B8010E948F261DC02A3040F096FE65
:103C9000F8CF2F7D3FEE320F363098F72750492D61
:103CA000C701B6014EDF6B017C01292D2260922EE7
:103CB00031E0631A71086114710451F0C801F3D640
:103CC00097FFD9CF91FC04C098CFC12CD12C76019D
:103CD00097FE08C0F094E094D094C094C11CD11C0D
:103CE000E11CF11C292DB701A601C5011EDF81E0F1
:103CF0000F90DF91CF911F910F91FF90EF90DF9088
:103D0000CF90BF90AF909F907F906F9008954F920B
:103D10005F926F927F928F929F92AF92BF92CF925B
:103D2000DF92EF92FF920F931F93CF93DF93CDB764
:103D3000DEB7A0970FB6F894DEBF0FBECDBF5C0113
:103D40004B017A018E010F5F1F4F680180E2F8017D
:103D500011928A95E9F7F501638080E090E0712C7B
:103D6000412CB0E041E050E0F90163FC559063FE66
:103D700051908F01A52D9F01511003C080E090E06C
:103D80007DC0FEE55F1202C0009761F16B2F70E00D
:103D9000681779074CF46DE5561661F1EDE25E1295
:103DA00003C0442009F103C0411001C0752C6A2FE3
:103DB000669566956695F601E60FF11D6A2F6770A8
:103DC0008A0102C0000F111F6A95E2F7B8017081E5
:103DD000762B7083A71559F0A71510F4AF5FE7CFC6
:103DE000A150E5CFB1E004C04424439401C0412C6C
:103DF0000196BACF442019F08E8180628E83B11172
:103E000003C07724739419C0F601CE0181962081F6
:103E100020952193E817F907D1F7F3CFE114F104C6
:103E200029F0F7018083C70101967C0191E0891A8E
:103E3000910881149104E1F0712CC50134D697FDED
:103E400015C0282F269526952695F601E20FF11D1F
:103E5000208130E0AC014770552702C03595279589
:103E60004A95E2F720FDDACFB50159D7711086CF18
:103E7000E114F10411F0F7011082C801A0960FB609
:103E8000F894DEBF0FBECDBFDF91CF911F910F9190
:103E9000FF90EF90DF90CF90BF90AF909F908F906A
:103EA0007F906F905F904F9008952F923F924F9226
:103EB0005F926F927F929F92AF92BF92CF92DF926A
:103EC000EF92FF920F931F93CF93DF9300D000D018
:103ED00000D0CDB7DEB76C018B011A01E4D59E830B
:103EE0008D8399278B32910529F08D9791F480E885
:103EF000982E01C0912C015011090115110511F4E2
:103F000080E02AC1C601CFD59E838D8397FF02C072
:103F1000F7CF912C8D819E814CD58936910541F04A
:103F20008E369105C1F5BCE06B2EB1E07B2E04C04E
:103F3000AFE06A2EA1E07A2E8FEF681A780AF301BB
:103F40003197B490BB20D9F001501109011511052A
:103F500059F0C601A8D57C0197FD06C02AD5B81630
:103F600059F3B601C701DBD622E1621621E07206E1
:103F700009F0C6CF80E090E0A0E8BFE709C09FE06D
:103F8000691691E07906B1F780E090E0A0ECBFE718
:103F9000BC01CD01D1C0412C512C3201E12CF12CBE
:103FA0002D8120532A3020F5E92DE260BE2E892D87
:103FB000887092FE06C0811122C0FFEFEF1AFF0A3F
:103FC0001EC0882319F081E0E81AF10840E2C3011D
:103FD000B201B7DD2B013C0198E9491699E9590670
:103FE000690699E1790658F0E92DE660BE2E07C012
:103FF0002E3F99F493FC11C0F92DF860BF2E0150AB
:1040000011090115110541F0C6014DD59E838D831F
:104010009B2C97FD02C0C4CF9B2C91FE71CF8D814C
:104020008F7D853409F052C0580121E0A21AB108F1
:10403000A114B10409F464CFC60135D59E838D83E4
:1040400097FD5ECF99278B32910529F08D9779F4F2
:10405000892D8061982E580192E0A91AB108A11407
:10406000B10409F44DCFC6011ED59E838D838D8189
:104070009E81C0970A9708F043CF8501A12CB12CEF
:10408000B501882777FD8095982F2D81205340E238
:1040900058DDAB01BC015A01015011090115110590
:1040A00069F0C60149835A836B837C83FCD49E8369
:1040B0008D83C09749815A810A9710F394FE04C0FA
:1040C000AA24BB24A41AB50AEA0CFB1C012B39F064
:1040D000ED81FE81F7FD03C0B601CF0120D6C301FB
:1040E000B2010EDCF7FE08C0F194E194F108FBE2A6
:1040F000AF2EF1E0BF2E04C0E3E4AE2EE1E0BE2E11
:104100006501F8E1CF1AD10800E210E0F501459011
:10411000559065907490E016F10630F0A30192017D
:10412000A1DCE01AF10AF7CF24E0A21AB108169533
:104130000795AC14BD0451F797FE05C0DC01CB0117
:10414000B058BC01CD012114310429F0F101608384
:1041500071838283938381E026960FB6F894DEBF45
:104160000FBECDBFDF91CF911F910F91FF90EF90C8
:10417000DF90CF90BF90AF909F907F906F905F90B7
:104180004F903F902F9008954F925F926F927F9241
:104190008F929F92AF92BF92CF92DF92EF92FF9257
:1041A0000F931F93CF93DF931F92CDB7DEB78C0190
:1041B0002B017A01FC0117821682A12CF801D38011
:1041C000F201D3FC8591D3FE8191382F2F018823F2
:1041D00009F407C190E03983E4D33981892B19F0C0
:1041E000C801CFDCEBCF353241F4F201D3FC35917D
:1041F000D3FE31912F01353259F4C801398353D49C
:10420000398197FDECC03817C9F2B80188D5E9C0EB
:104210003A3241F4D3FC3591D3FE31912F01BB24C6
:10422000B39401C0B12C812C912C20ED230F2A30A6
:1042300080F4FB2DF260BF2EB40180E090E040E2FC
:1042400080DC4B01F201D3FC3591D3FE31912F017B
:10425000ECCFB1FE04C08114910421F4C2C08824C3
:104260008A94982C383619F03C3661F014C0F2016B
:10427000D3FC3591D3FE31912F01383661F4FB2DFB
:10428000F860BF2E8B2D8460B82EF201D3FC3591DF
:10429000D3FE31912F01332309F4A3C0632F70E0C3
:1042A0008AEF90E039838DD33981892B09F499C045
:1042B000B0FC07C0F701C080D180C70102967C0125
:1042C00002C0C12CD12C3E3649F4F80146815781F9
:1042D00060E070E02B2DC60128DC70CF3336C1F4CE
:1042E000B1FC03C088248394912CC801DCD397FDD2
:1042F00076C0C114D10429F0F6018083C60101966D
:104300006C0191E0891A91088114910471F763C0DE
:104310003B3551F49201A601B401C801F8DC2C012F
:10432000009709F058C052C0C80139832ADC39818E
:1043300097FD55C03F36D9F140F43436A1F13936F6
:10434000C9F1383509F03CC02AC03337B9F018F448
:10435000303729F135C0353731F1383701F130C008
:10436000C114D10429F0F6016082C60101966C01E6
:1043700091E0891A91088114910459F0C80193D3EE
:104380003C0197FD06C00DD3892B51F3B801C30141
:10439000C6D4C114D104F9F0F60110821CC0FB2D63
:1043A000F064BF2E07C08B2D8062B82E03C09B2DFA
:1043B0009061B92E2B2DA601B401C801F9DB04C010
:1043C000A601B401C80171DD811105C0F801838126
:1043D000807329F406C0B0FCF1CEA394EFCEAA20DE
:1043E00019F08A2D90E002C08FEF9FEF0F90DF91C0
:1043F000CF911F910F91FF90EF90DF90CF90BF90E2
:10440000AF909F908F907F906F905F904F900895A6
:10441000DB018F939F93ADD0BF91AF91A29F800D91
:10442000911DA39F900DB29F900D11240895AA1B7A
:10443000BB1B51E107C0AA1FBB1FA617B70710F08F
:10444000A61BB70B881F991F5A95A9F780959095C1
:10445000BC01CD01089597FB072E16F4009406D0F9
:1044600077FD08D0E4DF07FC05D03EF490958195F8
:104470009F4F0895709561957F4F0895A1E21A2E80
:10448000AA1BBB1BFD010DC0AA1FBB1FEE1FFF1FF8
:10449000A217B307E407F50720F0A21BB30BE40B48
:1044A000F50B661F771F881F991F1A9469F760958F
:1044B0007095809590959B01AC01BD01CF01089549
:1044C000052E97FB16F400940FD057FD05D0D6DFCC
:1044D00007FC02D046F408C05095409530952195D0
:1044E0003F4F4F4F5F4F0895909580957095619520
:1044F0007F4F8F4F9F4F08952F923F924F925F9221
:104500006F927F928F929F92AF92BF92CF92DF92E3
:10451000EF92FF920F931F93CF93DF93CDB7DEB748
:10452000CA1BDB0B0FB6F894DEBF0FBECDBF0994DC
:104530002A88398848885F846E847D848C849B8433
:10454000AA84B984C884DF80EE80FD800C811B8141
:10455000AA81B981CE0FD11D0FB6F894DEBF0FBE70
:10456000CDBFED010895EE0FFF1F0590F491E02DF2
:10457000099409D0A59F900DB49F900DA49F800D24
:10458000911D11240895A29FB001B39FC001A39F64
:10459000700D811D1124911DB29F700D811D11247C
:1045A000911D0895CF93DF938230910510F482E03E
:1045B00090E0E091CF37F091D03720E030E0A0E0FC
:1045C000B0E0309739F14081518148175907B8F070
:1045D0004817590771F482819381109729F0139637
:1045E0009C938E9312972CC09093D0378093CF37A3
:1045F00027C02115310531F04217530718F0A901E2
:10460000DB0101C0EF019A01BD01DF010280F381EE
:10461000E02DD7CF21153105F9F0281B390B2430B7
:10462000310580F48A819B816115710521F0FB01C0
:104630009383828304C09093D0378093CF37FE0159
:10464000329644C0FE01E20FF31F819391932250F2
:104650003109398328833AC02091CD373091CE3744
:10466000232B41F420918701309188013093CE377C
:104670002093CD3720918501309186012115310598
:1046800041F42DB73EB74091890150918A01241B16
:10469000350BE091CD37F091CE37E217F307A0F458
:1046A0002E1B3F0B2817390778F0AC014E5F5F4F88
:1046B0002417350748F04E0F5F1F5093CE374093B5
:1046C000CD378193919302C0E0E0F0E0CF01DF911C
:1046D000CF910895CF93DF93009709F487C0FC0131
:1046E000329713821282C091CF37D091D037209762
:1046F00081F420813181280F391F8091CD3790912D
:10470000CE378217930779F5F093CE37E093CD3704
:104710006DC0DE0120E030E0AE17BF0750F4129606
:104720004D915C9113979D014115510509F1DA01F5
:10473000F3CFB383A28340815181840F951F8A17E1
:104740009B0771F48D919C911197840F951F029690
:104750009183808312968D919C911397938382838A
:104760002115310529F4F093D037E093CF373EC0BF
:10477000D9011396FC93EE9312974D915D91A40F7E
:10478000B51FEA17FB0779F480819181840F951F8B
:104790000296D90111969C938E93828193811396F0
:1047A0009C938E931297E0E0F0E08A819B810097C2
:1047B00019F0FE01EC01F9CFCE0102962881398172
:1047C000820F931F2091CD373091CE3728173907AC
:1047D00069F4309729F41092D0371092CF3702C085
:1047E00013821282D093CE37C093CD37DF91CF9111
:1047F0000895283008F027E03327DA01990F311D9A
:1048000087FD916000966105710539F432602E5F75
:104810003D9330E32A95E1F708959F3F30F08038CB
:104820007105610509F03C5F3C5F3D93913008F0F4
:104830008068911DDF93CF931F930F93FF92EF92A8
:10484000192F987F9695E92F96959695E90FFF2752
:10485000EF55FE4F99273327EE24FF24A701E701E8
:1048600005900894079428F4360FE71EF81E491F98
:10487000511D660F771F881F991F0694A1F7059099
:10488000079428F4E70EF81E491F561FC11D770F25
:10489000881F991F661F0694A1F70590079428F4B6
:1048A000F80E491F561FC71FD11D880F991F661F7D
:1048B000771F0694A1F70590079420F4490F561F1F
:1048C000C71FD81F990F661F771F881F0694A9F767
:1048D00084911095177041F0D695C79557954795D7
:1048E000F794E7941A95C1F7E7E4F1E0689415901E
:1048F000159135916591959105907FE27395E11839
:10490000F10A430B560BC90BD009C0F7E10CF11E9D
:10491000431F561FC91FD01D7EF4703311F48A95B2
:10492000E6CFE894015030F0080F0AF40027021790
:1049300008F4202F2395022F7A3328F079E37D9312
:104940002A95E9F710C07D932A9589F606949795E4
:104950006795379517951794E118F10A430B560B95
:10496000C90BD00998F023957E9173957A3308F09E
:1049700070E37C932013B8F77E9170617D9330F0E3
:10498000839571E37D9370E32A95E1F71124EF900D
:10499000FF900F911F91CF91DF91992787FD9095FF
:1049A000089591114DC2803219F089508550D0F789
:1049B00008959111089581548A5108F4805E855AB2
:1049C0000895FC010590061621F00020D9F7C001DA
:1049D00008953197CF010895FC0105906150704012
:1049E0000110D8F7809590958E0F9F1F0895FB01B9
:1049F000DC0101900D920020E1F70895FC01615067
:104A0000704001900110D8F7809590958E0F9F1FF0
:104A100008950F931F93CF93DF93EC018B010097C1
:104A200031F46115710519F480E090E037C06EE053
:104A300070E081E090E0EAD1FC010097A9F380E802
:104A400083830115110571F01387028781E8838341
:104A50008091D1379091D237892B21F4F093D237BE
:104A6000E093D1372097C9F0D187C08783818260D6
:104A700083838091D3379091D437892B71F4F0934D
:104A8000D437E093D3378091D5379091D637892B9F
:104A900021F4F093D637E093D537CF01DF91CF9152
:104AA0001F910F910895CF93DF93EC012B8120FF8D
:104AB00033C026FF0AC02F7B2B838E819F810196F6
:104AC0009F838E838A8190E029C022FF0FC0E881F6
:104AD000F9818081992787FD9095009719F42062CC
:104AE0002B831AC03196F983E8830EC0EA85FB85D3
:104AF000099597FF09C02B81019611F480E101C04F
:104B000080E2822B8B8308C02E813F812F5F3F4F35
:104B10003F832E83992702C08FEF9FEFDF91CF91C4
:104B200008950F931F93CF93DF93182F092FEB0155
:104B30008B8181FD03C08FEF9FEF20C082FF10C0EB
:104B40004E815F812C813D81421753077CF4E881BF
:104B5000F9819F012F5F3F4F39832883108306C05F
:104B6000E885F985812F0995892B29F72E813F81C9
:104B70002F5F3F4F3F832E83812F902FDF91CF9167
:104B80001F910F910895CF93DF93CDB7DEB7FE014C
:104B9000359661917191AF018091D3379091D4375F
:104BA0000E944218DF91CF9108950F931F93CF93E6
:104BB000DF93E091D337F091D437238121FF1BC0DD
:104BC000EC0100E010E089916091D3377091D43707
:104BD000DB011896ED91FC911997882331F0099526
:104BE000892B89F30FEF1FEFEECF8AE00995892B10
:104BF00011F4C80102C08FEF9FEFDF91CF911F9199
:104C00000F9108950F931F93CF93DF93CDB7DEB726
:104C10002E970FB6F894DEBF0FBECDBF0D891E894B
:104C20008F89988D26E02C831A83098397FF02C011
:104C300080E090E801979E838D83AE01455E5F4FD3
:104C4000698D7A8DCE0101960E9442184D815E8158
:104C500057FD0AC02F813885421753070CF49A017B
:104C6000F801E20FF31F10822E960FB6F894DEBF04
:104C70000FBECDBFDF91CF911F910F9108950F937C
:104C80001F93CF93DF93CDB7DEB72E970FB6F8946F
:104C9000DEBF0FBECDBF0D891E8986E08C831A83CF
:104CA00009838FEF9FE79E838D83AE01475E5F4F41
:104CB0006F89788DCE0101960E944218EF81F885A8
:104CC000E00FF11F10822E960FB6F894DEBF0FBED4
:104CD000CDBFDF91CF911F910F910895CF93DF93B7
:104CE000CDB7DEB72E970FB6F894DEBF0FBECDBF9F
:104CF00085E08C838B899C899A838983AE01495E88
:104D00005F4F6D897E89CE0101963EDA2E960FB6F1
:104D1000F894DEBF0FBECDBFDF91CF910895FB01A8
:104D2000238120FF12C026FD10C08F3F3FEF930765
:104D300061F082832F7D2064238326813781215077
:104D4000310937832683992708958FEF9FEF0895C0
:104D5000FA01AA27283051F1203181F1E8946F93AC
:104D60006E7F6E5F7F4F8F4F9F4FAF4FB1E03ED052
:104D7000B4E03CD0670F781F891F9A1FA11D680FF0
:104D8000791F8A1F911DA11D6A0F711D811D911D23
:104D9000A11D20D009F468943F912AE0269F112498
:104DA0003019305D3193DEF6CF010895462F4770FC
:104DB000405D4193B3E00FD0C9F7F6CF462F4F7057
:104DC000405D4A3318F0495D31FD4052419302D0B5
:104DD000A9F7EACFB4E0A69597958795779567955B
:104DE000BA95C9F700976105710508959B01AC015B
:104DF0000A2E06945795479537952795BA95C9F782
:104E0000620F731F841F951FA01D08950F931F939A
:104E1000CF93DF93869F8001879F100D969F100D83
:104E20001124C801BFDBEC01009721F0A80160E06C
:104E300070E009D0CE01DF91CF911F910F910895BD
:104E4000992788270895DC0101C06D934150504097
:084E5000E0F70895F894FFCF8C
:104E580001F401F401F401019A99993F6F12033AA0
:104E6800CDCCCC3E0AD7A33BCDCCCC3EF401F4014B
:104E7800F40132026AF989F90A000A0005000A00F9
:104E88000A000A0032000A000A0014002C01580225
:104E9800F4012C0132009CFFD4FE0CFE38FF6400A4
:104EA8002C0235024502550265020101010210007B
:104EB80000000000000000000000000000000000EA
:104EC80000000001000000000000000000FFFFFFDC
:104ED800FFFFFFFFFF0000D73720002C20005350B2
:104EE800443A204B702C4B692C4B642C566D2C503B
:104EF800722C506D2C540D0A0025662C25662C2525
:104F0800662C25660D0A00504F533A204B702C4BE7
:104F1800692C4B642C566D2C50722C506D2C540DF2
:104F28000A004C6F676765643A2025730D0A0054C0
:104F3800696D652C4B702C4B692C4B642C56656C39
:104F48006F636974792C536574706F696E742C5033
:104F58006F736974696F6E2C546F727175650D0A81
:104F680000256C752C25662C25662C25662C256657
:104F78002C25642C25642C25640D0A004354524CBE
:104F88005F4F4646004354524C5F5350445F53456D
:104F980054504E54004354524C5F5350445F494E52
:104FA80054455250004354524C5F504F535F534541
:104FB80054504E54004354524C5F504F535F494E27
:104FC800544552500043616E6E6F7420746F67676A
:104FD8006C65206E65676174697665206D732E0057
:104FE800436F6E76657274656420746F20746F67A2
:104FF800676C6520706572696F643A2025642E0AB3
:1050080000477265656E2025642C2025640A000D12
:105018000A48454C503A0D0A4C2F6C3A205374619B
:1050280072742F53746F70204C6F6767696E670DC9
:105038000A00562F763A2056696577204B642C2053
:105048004B702C20566D2C2050722C20506D2C202B
:10505800616E6420540D0A00522F723A20506F730B
:105068006974696F6E2028636F756E7473290D0AF1
:1050780000532F733A2053706565642028636F7559
:105088006E74732F736563290D0A00503A20496EB8
:10509800637265617365204B700D0A00703A204495
:1050A80065637265617365204B700D0A00443A2090
:1050B800496E637265617365204B640D0A00643A3A
:1050C800204465637265617365204B640D0A007442
:1050D8003A2045786563757465207472616A656302
:1050E800746F72790D0A000D0A0D0A2A2A2A2055B2
:1050F80053422053657269616C20496E6974696115
:105108006C697A6564202A2A2A000D4D656E753A05
:10511800203C4C2C562C522C532C502C442C743E96
:105128003A2000256320256400476F7420256320FA
:1051380025640A004F703A25632056616C3A25644D
:105148000D0A00436F6D6D616E6420646F65732096
:105158006E6F7420636F6D707574652E0D0A005242
:06516800583A2028000067
:00000001FF
