:1000000020C100003DC100003BC1000039C100001B
:1000100037C1000035C1000033C100006FC10000CE
:100020002FC100002DC100002BC100000C949416BC
:1000300027C100000C94BA0B23C1000021C10000AD
:10004000FAC600001DC100001BC1000019C100005C
:100050000C9444140C943C1613C1000011C1000010
:100060000FC100000DC100000BC1000009C100005C
:100070000C946E140C94641603C1000001C10000BE
:100080000C94570BFDC00000FBC000005F0D8B0DF2
:100090008B0D8B0D8B0D340D8B0D8B0DF60C8B0D8D
:1000A0008B0D8B0D080D8B0DF00CF90CFE0C8B0DD0
:1000B000EE0C8B0D8B0D8B0D8B0D8B0D8B0D8B0D1E
:1000C0008B0D8B0D8B0D8B0D8B0D8B0D720D8B0D89
:1000D0008B0D8B0DE80C480D8B0D8B0DEA0C8B0DE9
:1000E0008B0D8B0D1C0D8B0DF00CF90C030D8B0D76
:1000F000EE0C6E616E00696E66006364696E6F700F
:10010000737578585B65666745464700616E006E9B
:1001100066696E69747900CDCCCC3D0AD7233C1753
:10012000B7D13877CC2B329595E6241FB14F0A0012
:100130000020410000C84200401C4620BCBE4CCA02
:100140001B0E5AAEC59D7400407A10F35A00A0727F
:100150004E18090010A5D4E80000E8764817000002
:10016000E40B54020000CA9A3B000000E1F50500D0
:100170000080969800000040420F000000A0860119
:10018000000000102700000000E8030000000064E9
:1001900000000000000A0000000000010000000054
:1001A000002C76D888DC674F0823DFC1DFAE59E129
:1001B000B1B796E5E3E453C63AE651997696E8E698
:1001C000C28426EB898C9B62ED407C6FFCEFBC9C6B
:1001D0009F40F2BAA56FA5F490055A2AF75C936B7D
:1001E0006CF9676DC11BFCE0E40D47FEF520E6B538
:1001F00000D0ED902E0300943577050080841E0812
:100200000000204E0A000000C80C333333330F982F
:100210006E12831141EF8D2114893BE65516CFFEF6
:10022000E6DB18D1844B381BF77C1D901DA4BBE482
:1002300024203284725E228100C9F124ECA1E53DC4
:10024000270011241FBECFEFD0E4DEBFCDBF14E0E6
:10025000A0E0B1E0E6E9FCE400E00BBF02C00790DB
:100260000D92A233B107D9F719E1A2E3B4E001C0BE
:100270001D92AD36B107E1F70E94FF0D0C9449269F
:10028000BFCE809107018F5F809307010895109280
:100290008204109281041092800410927F041092C4
:1002A0007E0410927D0410927C0410927B041092C4
:1002B0007A041092790410927804109277040895C9
:1002C0008AB1807F8AB981E090E04A9902C080E0DB
:1002D00090E090937E0480937D0481E090E04B99C0
:1002E00002C080E090E090937C0480937B048FE0D8
:1002F0008093730088E08093680008951F920F92A6
:100300000FB60F9211240BB60F92CF92DF92EF929D
:10031000FF920F931F932F933F934F935F936F938E
:100320007F938F939F93AF93BF93EF93FF9381E05E
:1003300090E04A9902C080E090E09093820480931C
:10034000810481E090E04B9902C080E090E09093BE
:10035000800480937F0420918104309182048091F5
:100360007B0490917C0440917F0450918004642F21
:1003700040917D0450917E04342F281749F08091DC
:10038000790490917A04019690937A048093790489
:10039000631749F08091790490917A0401979093C2
:1003A0007A04809379048091790490917A04892B5E
:1003B00051F08091790490917A0469EC78E00E9480
:1003C0006621892B41F50E94121760939104709366
:1003D0009204809393049093940400919504109157
:1003E000960420919704309198046B017C01C01A07
:1003F000D10AE20AF30AC0928D04D0928E04E092F0
:100400008F04F09290046093950470939604809307
:100410009704909398048091810490918204909322
:100420007E0480937D0480917F049091800490935A
:100430007C0480937B04FF91EF91BF91AF919F91DA
:100440008F917F916F915F914F913F912F911F916C
:100450000F91FF90EF90DF90CF900F900BBE0F9019
:100460000FBE0F901F90189590938C0480938B046F
:1004700082309105A1F018F4019739F00895833086
:10048000910541F0049759F00895709341196093D4
:10049000401908957093EF046093EE04089510924C
:1004A000540410925304109262041092610410924A
:1004B000640410926304089580918B0490918C04DD
:1004C000019709F04AC080916F049091700497FFE2
:1004D00003C09195819591090B974CF48091530439
:1004E0009091540401969093540480935304209166
:1004F000530430915404E0916104F0916204EE0FD2
:10050000FF1FEC5BFE4F8081918182179307BCF443
:1005100010925404109253048091610490916204EB
:10052000019690936204809361048091610490919C
:1005300062040A9724F01092620410926104E09120
:100540006104F0916204EE0FFF1FE85AFE4F8081B4
:1005500091819093411980934019089580918B0463
:1005600090918C04039709F04AC080917104909196
:10057000720497FF03C091958195910940974CF4BF
:100580008091530490915404019690935404809365
:1005900053042091530430915404E0916304F0918A
:1005A0006404EE0FFF1FE45EFE4F8081918182178D
:1005B0009307BCF410925404109253048091630486
:1005C00090916404019690936404809363048091F5
:1005D0006304909164040A9724F0109264041092CA
:1005E0006304E0916104F0916204EE0FFF1FE05D8F
:1005F000FE4F808191819093EF048093EE040895E3
:10060000861797072CF0481759071CF4CA0108955C
:10061000CB01089597FF03C09195819591090895A5
:100620008AB1806C8AB987B1806C87B983E880937E
:10063000B00082E08093B1001092B300089527DEED
:100640003FDEEECF61302FEF720774F06F3F710520
:1006500009F02CF4019799F477FD0AC003C00197C3
:1006600071F46FEF479A08C0019749F461E07FEF9A
:1006700047987195619571096093B3000895089545
:1006800080E20E943C128823B1F08091770490911F
:1006900078041816190634F4809177049091780440
:1006A0000A9605C080917704909178040A979093F8
:1006B00078048093770488E00E943C128823A9F094
:1006C00060E070E080E090E00E94111288EC90E021
:1006D0000E94DB1680917704909178049195819522
:1006E0009109909378048093770484E00E943C12EF
:1006F0008823B1F080917704909178041816190638
:1007000034F480917704909178040A9705C0809121
:100710007704909178040A969093780480937704F4
:1007200080917704909178048F3F910519F014F02F
:100730008FEF90E081302FEF920714F481E09FEF6C
:100740009093780480937704609177047091780493
:1007500081E090E077DF82E390E00E94DB1660E0CA
:1007600080E00E94A00F60E070E0CB010E947F0F4C
:1007700087EA91E00E94260F6091770470917804D7
:10078000882777FD8095982F0E947F0F87EA91E058
:100790000E94260F60918D0470918E0480918F04C9
:1007A000909190040E947F0F87EA91E00E94260FAB
:1007B00061E080E00E94A00F60917104709172046A
:1007C000882777FD8095982F0E947F0F87EA91E018
:1007D0000E94260F60914F04709150048091510443
:1007E000909152040E948A1B0E947F0F87EA91E039
:1007F0000E94260F60916F0470917004882777FD26
:100800008095982F0E947F0F88EA91E00C94260F24
:100810008330910509F492C038F48130910571F06C
:10082000029709F44BC008958530910509F406C17B
:1008300008F4C4C0069709F441C1089561307105F8
:1008400079F460910C0170910D0180910E019091ED
:100850000F012FE632E143E85AE30E94221B0EC04B
:1008600060910C0170910D0180910E0190910F012A
:100870002FE632E143E85AE30E94211B60930C010A
:1008800070930D0180930E0190930F0160910C0104
:1008900070910D0180910E0190910F0120E030E0E8
:1008A000A9010E94861B87FF48C110920C0110927B
:1008B0000D0110920E0110920F0108956130710523
:1008C00079F4609108017091090180910A01909179
:1008D0000B012FE632E143E85AE30E94221B0EC0CF
:1008E000609108017091090180910A0190910B01BA
:1008F0002FE632E143E85AE30E94211B609308018E
:100900007093090180930A0190930B016091080193
:100910007091090180910A0190910B0120E030E073
:10092000A9010E94861B87FF08C11092080110923E
:10093000090110920A0110920B01089561307105AE
:1009400079F460915D0470915E0480915F049091F0
:1009500060042DEC3CEC4CEC5DE30E94221B0EC0CD
:1009600060915D0470915E0480915F0490916004D9
:100970002DEC3CEC4CEC5DE30E94211B60935D048C
:1009800070935E0480935F049093600460915D04B3
:1009900070915E0480915F049091600420E030E0EB
:1009A000A9010E94861B87FFC8C010925D041092A7
:1009B0005E0410925F041092600408956130710526
:1009C00079F4609118017091190180911A01909148
:1009D0001B012FE632E143E85AE30E94221B0EC0BE
:1009E000609118017091190180911A0190911B0179
:1009F0002FE632E143E85AE30E94211B609318017D
:100A00007093190180931A0190931B016091180152
:100A10007091190180911A0190911B0120E030E042
:100A2000A9010E94861B87FF88C0109218011092AE
:100A3000190110921A0110921B010895613071057D
:100A400079F46091140170911501809116019091D3
:100A500017012FE632E143E85AE30E94221B0EC041
:100A60006091140170911501809116019091170108
:100A70002FE632E143E85AE30E94211B6093140100
:100A800070931501809316019093170160911401E2
:100A900070911501809116019091170120E030E0CE
:100AA000A9010E94861B87FF48C010921401109272
:100AB0001501109216011092170108956130710509
:100AC00079F460911001709111018091120190915F
:100AD00013012DEC3CEC4CEC5DE30E94221B0EC09C
:100AE0006091100170911101809112019091130198
:100AF0002DEC3CEC4CEC5DE30E94211B609310015B
:100B00007093110180931201909313016091100171
:100B100070911101809112019091130120E030E059
:100B2000A9010E94861B87FF08C010921001109235
:100B3000110110921201109213010895A0E4B0E087
:100B4000E4EAF5E00C94A52196D680918B0490916F
:100B50008C04039708F051C06AEA71E08E010F5FC0
:100B60001F4FC8010E9416246AE170E0C8018BD6AD
:100B700082D6C0905D04D0905E04E0905F04F09057
:100B800060048091080190910901A0910A01B0913F
:100B90000B0140910C0150910D0160910E0170917B
:100BA0000F01209152042F93209151042F932091F3
:100BB00050042F9320914F042F93FF92EF92DF92D6
:100BC000CF92BF93AF939F938F937F936F935F93D6
:100BD0004F9385EC91E09F938F931F9280E48F93C6
:100BE0001F930F930E942125BC01C8014CD643D608
:100BF0000FB6F894DEBF0FBECDBF80918B049091ED
:100C00008C049C01235031092230310518F0892BC6
:100C100009F051C063ED71E08E010F5F1F4FC801F5
:100C20000E9416246AE170E0C8012DD624D6C09037
:100C30001001D0901101E0901201F0901301809109
:100C4000140190911501A0911601B09117014091E6
:100C500018015091190160911A0170911B012091A6
:100C600052042F93209151042F93209150042F93DD
:100C700020914F042F93FF92EF92DF92CF92BF9378
:100C8000AF939F938F937F936F935F934F9385EC75
:100C900091E09F938F931F9280E48F931F930F9304
:100CA0000E942125BC01C801EED5E5D50FB6F89408
:100CB000DEBF0FBECDBFC05CDF4FE8E00C94C121AA
:100CC000A0E4B0E0E6E6F6E00C94A0216C01D3D5F8
:100CD000C114D104D1F01092880410928704E0EF7F
:100CE000F4E08AE1DF01282F1D922A95E9F77A9630
:100CF00039E1E034F307B1F7D0928604C09285045D
:100D0000C05CDF4FEDE00C94BC2180918704909192
:100D10008804893C910524F010928804109287047D
:100D2000E0918304F0918404EE0FFF1FE459FE4F1D
:100D300081818F9380818F938EEE91E09F938F932B
:100D40001F9280E48F93CE0101967C01FF928F93D6
:100D50000E942125BC01C70196D58DD56BEF71E0AE
:100D6000C7010E94162461E370E0C7018CD583D5CA
:100D700000EF14E00FB6F894DEBF0FBECDBFA12C7C
:100D8000B12C6DE2862E62E0962E70E4772E809173
:100D9000870490918804A816B9060CF0ADCFF8012D
:100DA000818D8F93808D8F9387898F9386898F9381
:100DB00085898F9384898F9383898F9382898F9379
:100DC00081898F9380898F9387858F9386858F9371
:100DD00085858F9384858F9387818F9386818F9369
:100DE00085818F9384818F9383858F9382858F9361
:100DF00081858F9380858F9383818F9382818F9359
:100E000081818F9380818F939F928F921F927F9287
:100E1000FF92EF920E9421250FB6F894DEBF0FBE1D
:100E2000CDBFBC01C7012FD526D53FEFA31AB30A0A
:100E3000065E1F4FACCF1F920F920FB60F92112478
:100E40000BB60F922F923F924F925F926F927F92CA
:100E50008F929F92AF92BF92CF92DF92EF92FF92CA
:100E60000F931F932F933F934F935F936F937F93B2
:100E70008F939F93AF93BF93EF93FF93CF93DF93A2
:100E8000CDB7DEB72A97DEBFCDBF009179041091B0
:100E90007A0480919B0490919C04019690939C0409
:100EA00080939B0420918B0430918C043A8729878E
:100EB0008436910514F18091730490917404B80103
:100EC000681B790B882777FD8095982F0E94BD1BA2
:100ED00060934F0470935004809351049093520494
:100EE000109374040093730489859A85019702977F
:100EF00020F010929C0410929B0489859A85813081
:100F0000910508F462C18330910520F0059708F43B
:100F1000C0C05BC180919B0490919C048436910574
:100F20000CF453C1609140197091411980904F04A5
:100F300090905004A0905104B0905204882777FDFF
:100F40008095982F0E94BD1BA50194010E94211B32
:100F50000E948A1B7093700460936F0460916B040D
:100F600070916C0480916D0490916E04A5019401C0
:100F70000E94211B6B017C0160934B0470934C0415
:100F800080934D0490934E048091550490915604A3
:100F90002091710430917204820F931F9093560434
:100FA00080935504009177041091780460916F0448
:100FB0007091700420910C0130910D0140910E014F
:100FC00050910F0120905504309056044090080134
:100FD0005090090160900A0170900B0180915D04AE
:100FE00090915E04A0915F04B091600489839A831C
:100FF000AB83BC83882777FD8095982F2D833E8314
:101000004F8358870E94BD1B2D813E814F8158859B
:101010000E946D1C0E948A1B060F171FB1018827B2
:1010200077FD8095982F0E94BD1BA30192010E941D
:101030006D1C0E948A1B060F171F29813A814B8164
:101040005C81C701B6010E946D1C0E948A1B061BB1
:10105000170B109378040093770480926B0490929E
:101060006C04A0926D04B0926E0480916F04909114
:101070007004892B21F41092560410925504A9850E
:10108000BA85129709F418DA10929C0410929B0406
:101090009CC08091EE049091EF04209179043091EE
:1010A0007A04821B930B9093720480937104809155
:1010B000690490916A042091790430917A04821B2A
:1010C000930B90935C0480935B04809159049091FE
:1010D0005A042091710430917204820F931F9093EF
:1010E0005A04809359048091710490917204209164
:1010F00018013091190140911A0150911B01009182
:10110000590410915A0440901401509015016090B8
:1011100016017090170120905B0430905C04C09021
:101120001001D0901101E0901201F0901301BC0168
:10113000882777FD8095982F2D833E834F8358878E
:101140000E94BD1B2D813E814F8158850E946D1CE0
:101150000E948A1B4B015C01B801882777FD8095AE
:10116000982F0E94BD1BA30192010E946D1C0E943A
:101170008A1B860E971EB101882777FD8095982FD0
:101180000E94BD1BA70196010E946D1C0E948A1B34
:10119000861A970A90927804809277048091790455
:1011A00090917A0490936A04809369048091710409
:1011B00090917204892B21F410925A0410925904D0
:1011C000E985FA85349709F4C9D98091850490910D
:1011D0008604892B09F454C180918B0490918C046E
:1011E000009721F0909384048093830420919904C4
:1011F00030919A042F5F3F4F30939A0420939904C3
:101200002A3031050CF43CC110929A0410929904D2
:101210002091870430918804283C31050CF02DC1C1
:101220008130910508F42CC18330910508F47AC00F
:10123000059708F025C100918704109188040E9449
:1012400012172AE1209FF001219FF00D1124E05197
:10125000FB4F608371838283938340918704509115
:1012600088048091180190911901A0911A01B09100
:101270001B01249FF001259FF00D1124E051FB4F2D
:1012800080879187A287B387409187045091880413
:101290008091140190911501A0911601B091170150
:1012A000249FF001259FF00D1124E051FB4F848312
:1012B0009583A683B78340918704509188048091D9
:1012C000100190911101A0911201B0911301249F7E
:1012D000F001259FF00D1124E051FB4F8487958785
:1012E000A687B7878091870490918804289FF00192
:1012F000299FF00D1124E051FB4F80914F049091F4
:101300005004A0915104B0915204808B918BA28B18
:10131000B38B40918704509188048091EE049091A2
:10132000EF0476C000918704109188040E94121780
:101330002AE1209FF001219FF00D1124E051FB4F85
:1013400060837183828393834091870450918804E2
:1013500080910C0190910D01A0910E01B0910F01AF
:10136000249FF001259FF00D1124E051FB4F808751
:101370009187A287B3874091870450918804809118
:10138000080190910901A0910A01B0910B01249FDD
:10139000F001259FF00D1124E051FB4F84839583CC
:1013A000A683B783409187045091880480915D049F
:1013B00090915E04A0915F04B0916004249FF001BD
:1013C000259FF00D1124E051FB4F84879587A68758
:1013D000B7878091870490918804289FF001299F06
:1013E000F00D1124E051FB4F80914F049091500477
:1013F000A0915104B0915204808B918BA28BB38B3E
:10140000409187045091880480914019909141192E
:10141000249FF001259FF00D1124E051FB4F958B87
:10142000848B409187045091880480917904909135
:101430007A04249FF001259FF00D1124E051FB4F09
:10144000978B868B40918704509188048091770414
:1014500090917804249FF001259FF00D1124E05114
:10146000FB4F918F808F8091870490918804019623
:10147000909388048093870403C080E090E020DC90
:101480002A960FB6F894DEBF0FBECDBFDF91CF9185
:10149000FF91EF91BF91AF919F918F917F916F914C
:1014A0005F914F913F912F911F910F91FF90EF907E
:1014B000DF90CF90BF90AF909F908F907F906F9074
:1014C0005F904F903F902F900F900BBE0F900FBEEC
:1014D0000F901F90189580918B0490918C04089523
:1014E000809176018F5F80937601089511B81AB8C4
:1014F00011B80A9A559A089A129A5D9A109A28EC8D
:1015000030E01092CA041092CB041092CC041092D6
:10151000CD048091CA049091CB04A091CC04B091E9
:10152000CD048C3B9541A105B105A0F48091CA047E
:101530009091CB04A091CC04B091CD040196A11D53
:10154000B11D8093CA049093CB04A093CC04B093B4
:10155000CD04DFCF215031092115310591F61298C4
:101560005D98109810923704109238041092390444
:1015700010923A0410923B0410923C0410923D04E5
:1015800010923E04109233041092340410923504E9
:101590001092360408950F931F93CF93C82F9B0189
:1015A00077FF05C081E992E00E94F4247CC0CB0162
:1015B00064E670E00E9466218901081B190B1F93E5
:1015C0000F932CEA32E03F932F930E94E2240F9076
:1015D0000F900F900F90C23519F0C13409F05DC023
:1015E0000115110511F40A9801C00A9A1093060119
:1015F00000930501C93529F40115110531F4089846
:1016000005C0C13409F04CC0F7CF089A109302010D
:1016100000930101C73429F40115110531F45598DF
:101620000BC0C13409F03FC0F7CF559A013A8FE0A3
:10163000180714F000EA1FE010930401009303015F
:101640001016110684F5B80180E090E00E94BB1BE3
:1016500021E73DE34CE951E40E946D1C0E948F1B81
:101660007093890060938800809188009091890030
:101670009F938F93809104018F93809103018F93A7
:101680008DEC92E09F938F930E94E2240F900F9035
:101690000F900F900F900F9006C0C93509F4ACCF92
:1016A000C73409F4B9CFCF911F910F9108951F92BC
:1016B0000F920FB60F9211240F931F932F933F9306
:1016C0005F936F937F938F939F93AF93BF9300919B
:1016D00045041091460420914704309148040F5F5F
:1016E0001F4F2F4F3F4F0093450410934604209304
:1016F000470430934804809101019091020164E60F
:1017000070E00E945221CB01A0E0B0E00817190759
:101710002A073B07F8F082B191E0892782B98091CE
:10172000330490913404A0913504B09136040196AD
:10173000A11DB11D8093330490933404A09335040C
:10174000B093360410924504109246041092470458
:1017500010924804BF91AF919F918F917F916F91AB
:101760005F913F912F911F910F910F900FBE0F909E
:101770001F9018951F920F920FB60F9211248F93FE
:101780009F93AF93BF938091370490913804A091B9
:101790003904B0913A040196A11DB11D809337041C
:1017A00090933804A0933904B0933A04BF91AF9159
:1017B0009F918F910F900FBE0F901F901895809161
:1017C00077018F5F80937701089582E884BD84E07C
:1017D00085BD8EE487BD82E080936E001092410447
:1017E00010924204109243041092440480E88093C3
:1017F00090008BE08093910082E19AE790939900AA
:1018000080939800E1E7F0E080818260808310920D
:10181000450410924604109247041092480480E454
:10182000809380008DE0809381006091030170912E
:10183000040180E090E00E94BB1B21E73DE34CE9FE
:1018400051E40E946D1C0E948F1B7093890060936D
:10185000880081E090E090938B0080938A00EFE60F
:10186000F0E08081826080830895809178018F5FAD
:1018700080937801089582E011D6811103C00E94FF
:101880000616F9CF0895462FBC0182E00E943A1651
:10189000F2CF62E270E08BED92E0F5DF65E270E09E
:1018A0008EEF92E0F0DF68E170E084E293E0EBDF3E
:1018B00069E170E08DE393E0E6DF60E170E087E5E9
:1018C00093E0E1DF60E170E088E693E0DCDF60E177
:1018D00070E089E793E0D7DF60E170E08AE893E0A9
:1018E000D2DF67E170E08BE993E0CDCF40E855E2CD
:1018F00060E070E082E00E94581540E262E479E125
:1019000082E0C0D762E270E083EB93E0BCDFC1DF2E
:1019100068E170E086ED93E0B6CFA3E2B0E0E3E9E2
:10192000FCE00C94A9219E012F5D3F4F3F932F9324
:101930009E012D5D3F4F3F932F932FEE33E03F935A
:101940002F939F938F930E948D2560E080E0F8D2C3
:101950008AA18F9389A18F932BA1822F992787FD2D
:1019600090959F932F9385EF93E09F938F930E9481
:10197000E2248AA18F9389A18F932BA1822F99278B
:1019800087FD90959F932F9380E094E09F938F9392
:101990008E010F5F1F4F1F930F930E945E25BC01A6
:1019A000C80171DF0FB6F894DEBF0FBECDBF8BA1AB
:1019B000992787FD9095A92FB92FFC01E454F109CF
:1019C000E333F10508F0A7C0EA5BFF4F0C94D22186
:1019D00060DFA6C080E090E073D9A2C0AFD8A0C0FD
:1019E00069A17AA183E090E00E94340281E090E056
:1019F000F3CF69A17AA181E090E0F6CF60E070E0DA
:101A000084E090E0F1CF60E070E082E090E0ECCF25
:101A100062DD019719F461E070E013C05CDD0297AC
:101A2000D1F359DD039719F461E070E015C053DD7F
:101A3000049709F075C0F8CF4EDD019729F462E0F4
:101A400070E081E090E060C046DD0297C1F343DDC5
:101A5000039729F462E070E084E090E055C03BDD3C
:101A6000049709F05DC0F6CF36DD019719F461E007
:101A700070E013C030DD0297D1F32DDD039719F428
:101A800061E070E015C027DD049709F049C0F8CF88
:101A900022DD019729F462E070E082E090E034C03A
:101AA0001ADD0297C1F317DD039729F462E070E0B5
:101AB00085E090E029C00FDD049791F5F7CF0BDDAD
:101AC000019719F461E070E012C005DD0297D1F3CF
:101AD00002DD039719F461E070E014C0FCDC0497A8
:101AE000F9F4F9CFF8DC019729F462E070E083E0C3
:101AF00090E00AC0F0DC0297C1F3EDDC039739F403
:101B000062E070E086E090E00E94080409C0E3DC37
:101B1000049731F4F5CF6BE170E08FE094E0B3DE31
:101B200068E170E086ED93E0AEDEA396E4E00C940D
:101B3000C521A0E2B0E0EFE9FDE00C94A72182E02E
:101B40009DD49091621920919D0430919E04891733
:101B5000D9F0A1E0B0E0AC0FBD1FA20FB31FE92F79
:101B6000F0E0EE5BF64E80818C932F5F3F4F309319
:101B70009E0420939D049F3119F410926219DFCFC7
:101B80009F5F90936219DBCF21153105A1F12130C0
:101B9000310519F489818A3051F18E010F5F1F4F91
:101BA000F801E20FF31F108261E080E0C9D18BE2FF
:101BB00094E04CD160919D0470919E04882777FD3C
:101BC0008095982F9CD189E2BCD0780180919D04AA
:101BD00090919E049701201B310B281739072CF494
:101BE000F70181917F01ADD0F1CFC80196DE10924F
:101BF0009E0410929D04A096E6E00C94C3210E94DE
:101C00001F03EFD2E2DD72DE0CD178940E94400314
:101C1000FDD78FDFFBCF80E090E0089581E090E07A
:101C20006F9364E06A95F1F76F910197C9F7089592
:101C30000F931F93CF93DF9317B13D982898299A5C
:101C4000C0E0D0E0EBDF2A9AE9DF06B12A98E6DFB0
:101C50002A9AE4DF2A98249605FF10C09E0140E0EE
:101C600050E08091A3049091A404A091A504B091A8
:101C7000A604281739074A075B0720F39E0140E0B6
:101C800050E08091A3049091A404A091A504B09188
:101C9000A604281739074A075B0728F082E390E07B
:101CA000A0E0B0E004C080E395E7A0E0B0E080935E
:101CB000A3049093A404A093A504B093A60417B919
:101CC000DF91CF911F910F91089528B190E08F700F
:101CD0009070880F991F880F991F237C282B28B993
:101CE0002A9A9CDF2A989ACFA2E0B0E0EAE7FEE0C9
:101CF0000C94A821182F4A8369835FD099DFF7B02D
:101D000008B1299869814A81662311F0289A01C097
:101D1000289887B18C6387B9413021F0812F829553
:101D20008F70D3DF812F8F70D0DFF7B808B922967C
:101D3000E5E00C94C42160E042E0D6CF61E042E0EF
:101D4000D3CFFCCF089560E041E0CECF3D98459AD7
:101D500080E395E7A0E0B0E08093A3049093A4040F
:101D6000A093A504B093A604209A219A229A8EE10A
:101D700090E00E94DB1683E0E6DF86E090E00E94C0
:101D8000DB1683E0E0DF82E090E00E94DB1683E078
:101D9000DADF82E090E00E94DB1682E0D4DF82E0AE
:101DA00090E00E94DB1688E2C6DF88E0C4DF81E0B5
:101DB000C2DF86E0C0DF8CE0BECF8091A70488231D
:101DC00021F481E08093A704C1CF089581E0B3DFBF
:101DD00080919F049091A004009711F1A0E0B0E2DF
:101DE00008C0E0919F04F091A004E20FF31FB083BC
:101DF000AF5F2A2F30E08091790190E001976091E8
:101E00007A0170E0869FA001879F500D969F500D2C
:101E10001124241735072CF31092A2041092A10468
:101E20000895D4CF0895EF92FF92CF93DF93E82ED9
:101E3000E7017E01F92EE70101C080DF8991882347
:101E4000E1F7DF91CF91FF90EF900895ECCF0895E7
:101E5000AAE0B0E0EEE2FFE00C94A3219B01AC010C
:101E60001AE06AE0C62ED12CE12CF12C5E01089418
:101E7000A11CB11C022FCA01B901A70196010E9441
:101E800079211150F501E10FF11D005D922F990F9D
:101E9000892F880F880F890F081B008321153105B2
:101EA0004105510539F707C0F601E10FF11D8081A9
:101EB00045DF1F5F04C06E010894C11CD11C1A309D
:101EC00098F32A96EAE00C94BF21EF92FF920F93C9
:101ED0001F937B018C0197FF0AC010950095F09429
:101EE000E094E11CF11C011D111D8DE227DFC801EA
:101EF000B701AEDF1F910F91FF90EF900895E5CFEE
:101F00000895A5E0B0E0E7E8FFE00C94AA21182FBF
:101F100080E8898380EC8A8384E98B8384ED8C83D9
:101F2000FE01E60FF11D8181810F6D8304DF1093A7
:101F3000A2046D816093A1042596E3E00C94C62170
:101F4000E0CF0895A0E0B0E0E8EAFFE00C94A5211E
:101F5000D82E80919F049091A004009709F4F2C0BC
:101F60002D2D2A3009F442C02830C9F48091A204F2
:101F700081508093A2048F3F51F48091A10481503D
:101F80008093A10480917A0181508093A204809172
:101F9000A1048F3F09F0D1C01092A104CCC08D2DB7
:101FA000CDDE8091A1048823B9F090E001974091A3
:101FB0007A0150E0849F9001859F300D949F300DF1
:101FC00011248091A204E0919F04F091A004E20FFB
:101FD000F31FE80FF11DD0828091A2048F5F8093E0
:101FE000A20490917A01891709F0ACC04091A10434
:101FF000242F30E08091790190E00197281739076C
:1020000009F096C0C0E0D0E03FC080E06C2F79DFDF
:10201000CC248E010F5F1F4F32C0EC2CFF2430E028
:10202000C29FC001C39F900DD29F900D1124E091DB
:102030009F04F091A004EE0DFF1DE80FF91F8081B1
:102040007DDE80919F049091A00420917A0130E080
:10205000C29FF001C39FF00DD29FF00D11248E0D91
:102060009F1DE80FF91F029FD001039FB00D129F23
:10207000B00D1124A80FB91F8C918083C3942091B7
:102080007A01C21650F2E80160917901862F90E042
:102090000297C817D9070CF4B8CF6230D0F162505C
:1020A00080E02FDF00E010E230C0C02FD0E0809150
:1020B000790190E0029750E0849F9001859F300D58
:1020C000949F300D1124E0919F04F091A004EC0F37
:1020D000FD1FE20FF31F808131DE8091790190E0D6
:1020E000029740917A0150E0849F9001859F300DC6
:1020F000949F300D1124E0919F04F091A004EC0F07
:10210000FD1FE20FF31F10830F5F40917A01041748
:1021100060F260917901615080E0F3DE10E003C06D
:1021200080E20CDE1F5F80917A011817C8F303C0AC
:102130004F5F4093A1041092A2048091A204609189
:10214000A104DFDE2D2D332727FD3095C901CDB742
:10215000DEB7E8E00C94C12180919F049091A00427
:10216000009711F00E9489222091790130E02150DE
:10217000304080917A0190E0AC01249FC001259FFE
:10218000900D349F900D11240E94F1219093A00492
:1021900080939F04009721F1A0E0B0E208C0E09195
:1021A0009F04F091A004E20FF31FB083AF5F2A2FCA
:1021B00030E08091790190E0019760917A0170E0C0
:1021C000869FA001879F500D969F500D11242417C4
:1021D00035072CF382EA9FE06BE07EE00C94282424
:1021E0000895BACF0895FC011182108213821282E1
:1021F000158214821682683068F489E290E0918337
:1022000080838BE290E0938382838AE290E09583DF
:10221000848323C0603180F483E290E091838083E3
:1022200085E290E09383828384E290E095838483C7
:1022300070E06850704011C06831C0F486E290E0F0
:102240009183808388E290E09383828387E290E0A9
:102250009583848370E06051704081E090E002C01B
:10226000880F991F6A95E2F7868308956032C0F45B
:1022700080E290E09183808382E290E09383828386
:1022800081E290E0958384832FE130E0261B3109C1
:1022900081E090E002C0880F991F2A95E2F78683BB
:1022A0000895FC01A481B5818681662321F09C916B
:1022B000982B9C9308959C91809589238C930895E5
:1022C000FC016F3F31F4A281B3818C919681892703
:1022D0000CC0A281B3818681662321F09C91982B4A
:1022E0009C9308959C91809589238C930895A7E0F1
:1022F000B0E0EDE7F1E10C94A821282FF62E8E0135
:102300000F5F1F4FC801622F6EDFC8016F2DD8DF2E
:10231000C80161E0C6DF2796E5E00C94C42183E0A4
:102320008093B00082E08093B100E4EBF0E0108293
:1023300080818093B30087E160E0D9DF86E160E0CF
:10234000D6DF87E060E0D3DF86E060E0D0CF809129
:10235000A804882321F481E08093A804E0CF0895A5
:10236000CF93DF93EC01F3DFD7FF05C0D095C19584
:10237000DF4F91E001C090E0CF3FD10519F014F09C
:10238000CFEFD0E0C093B300209731F48091B0003C
:102390008F778093B0000DC08091B00080688093EB
:1023A000B000992319F087E161E002C087E160E0A5
:1023B0009EDFDF91CF910895CF93DF93EC01C7DFCC
:1023C000D7FF05C0D095C195DF4F91E001C090E0E7
:1023D000CF3FD10519F014F0CFEFD0E0C093B40097
:1023E000209731F48091B0008F7D8093B0000DC0B4
:1023F0008091B00080628093B000992319F086E14B
:1024000061E002C086E160E072DFDF91CF91089564
:10241000CF93DF93EB01A4DFCE01CEDFDF91CF912D
:102420000895F6CF089587B1837D87B988B18C620E
:1024300088B985E090E06F9364E06A95F1F76F9159
:102440000197C9F708958091A904882321F481E0B8
:102450008093A904E8CF0895A1E0B0E0E2E3F2E1BF
:102460000C94AB218983EFDF96B190958981892304
:102470002196E2E00C94C721EFCF0895282F30E099
:10248000F901EE0FFF1F43E0220F331F4A95E1F7DA
:10249000E20FF31FE558FE4F82810895282F30E0A8
:1024A000F901EE0FFF1F73E0220F331F7A95E1F75A
:1024B000E20FF31FE558FE4F4181282F30E0F9016C
:1024C000EE0FFF1F53E0220F331F5A95E1F7E20F83
:1024D000F31FE558FE4F81E09381491380E0089592
:1024E000282F30E0F901EE0FFF1FB3E0220F331F5A
:1024F000BA95E1F7E20FF31FE558FE4F408551858D
:102500004115510509F452C0282F30E0F901EE0FB2
:10251000FF1F73E0220F331F7A95E1F7E20FF31FDD
:10252000E558FE4F7281282F30E0F901EE0FFF1FB2
:10253000B3E0220F331FBA95E1F7E20FF31FE5581E
:10254000FE4F9481791790F5282F30E0F901EE0FB6
:10255000FF1F73E0220F331F7A95E1F7E20FF31F9D
:10256000E558FE4F9281490F511DFA016083282FD3
:1025700030E0F901EE0FFF1F53E0220F331F5A9591
:10258000E1F7E20FF31FE558FE4F92819F5F282F7E
:1025900030E0F901EE0FFF1FB3E0220F331FBA95B1
:1025A000E1F7E20FF31FE558FE4F9283282F30E04A
:1025B000F901EE0FFF1F73E0220F331F7A95E1F749
:1025C000E20FF31FE558FE4F4281282F30E0F9015A
:1025D000EE0FFF1F53E0220F331F5A95E1F7E20F72
:1025E000F31FE558FE4F9481491701F5282F30E07D
:1025F000F901EE0FFF1F93E0220F331F9A95E1F7C9
:10260000E20FF31FE558FE4F9581992379F0282FAB
:1026100030E0F901EE0FFF1FB3E0220F331FBA9530
:10262000E1F7E20FF31FE558FE4F128208950F9372
:102630001F93182F823009F474C0882319F4E1EC39
:10264000F0E002C0E9ECF0E080818F778083812F99
:1026500090E0FC01EE0FFF1F03E0880F991F0A9521
:10266000E1F7E80FF91FE558FE4F80859185009747
:10267000A1F1212F30E0F901EE0FFF1FA3E0220F9F
:10268000331FAA95E1F7E20FF31FE558FE4F928141
:10269000212F30E0F901EE0FFF1F63E0220F331FFF
:1026A0006A95E1F7E20FF31FE558FE4F8481981712
:1026B000A0F4112319F4E0ECF0E002C0E8ECF0E043
:1026C000808187FF0AC0112319F4E6ECF0E002C014
:1026D000EEECF0E06081812F03DF212F30E0F90183
:1026E000EE0FFF1F43E0220F331F4A95E1F7E20F81
:1026F000F31FE558FE4F8081882309F057C011234E
:1027000019F4E1ECF0E002C0E9ECF0E080818068CF
:1027100080834CC080919401882319F0109291011C
:1027200045C08091970190919801009709F43EC0AF
:1027300090919101809193019817C0F58091B60412
:10274000882399F474D38093B60410E00AC06CD344
:10275000E02FF0E03197E11BF109E954FB4F808352
:102760001F5F0091B604101790F3A091B604AA233E
:10277000E9F080919101E0919701F0919801E80FC3
:10278000F11DA150A093B604B0E0A954BB4F8C91A9
:102790008083809191018F5F80939101909191014D
:1027A00080919301981709F0BCCFB4CF1F910F917E
:1027B0000895823051F0882319F4E1ECF0E002C072
:1027C000E9ECF0E090819F779083A82FB0E0FD01C5
:1027D000EE0FFF1F53E0AA0FBB1F5A95E1F7EA0F58
:1027E000FB1FE558FE4F71876087682F70E0FB0183
:1027F000EE0FFF1F93E0660F771F9A95E1F7E60F44
:10280000F71FE558FE4F1282682F70E0FB01EE0FB4
:10281000FF1FA3E0660F771FAA95E1F7E60FF71FEA
:10282000E558FE4F4483482F50E0FA01EE0FFF1F9A
:1028300063E0440F551F6A95E1F7E40FF51FE55873
:10284000FE4F25838230D9F0282F30E0F901EE0FBA
:10285000FF1F43E0220F331F4A95E1F7E20FF31FFA
:10286000E558FE4F9081992351F4882319F4E1EC47
:10287000F0E002C0E9ECF0E0808180688083089598
:1028800021E097CFFDCF08951F920F920FB60F92C0
:102890000BB60F9211242F933F934F935F936F9337
:1028A0007F938F939F93AF93BF93EF93FF93609129
:1028B000C60080E015DEFF91EF91BF91AF919F912F
:1028C0008F917F916F915F914F913F912F910F90D9
:1028D0000BBE0F900FBE0F901F9018951F920F9276
:1028E0000FB60F920BB60F9211242F933F934F9375
:1028F0005F936F937F938F939F93AF93BF93EF9368
:10290000FF936091CE0081E0EBDDFF91EF91BF91ED
:10291000AF919F918F917F916F915F914F913F9177
:102920002F910F900BBE0F900FBE0F901F90189518
:10293000882319F4E1ECF0E002C0E9ECF0E08081DA
:10294000806280830895882319F4E1ECF0E002C0EE
:10295000E9ECF0E080818F7D80830895282F30E0BE
:10296000F901EE0FFF1F93E0220F331F9A95E1F755
:10297000E20FF31FE558FE4F2681378121153105FF
:1029800091F1282F30E0F901EE0FFF1FA3E0220F95
:10299000331FAA95E1F7E20FF31FE558FE4F41817F
:1029A000282F30E0F901EE0FFF1F63E0220F331FE5
:1029B0006A95E1F7E20FF31FE558FE4F938149173F
:1029C00090F4282F30E0F901EE0FFF1F43E0220FB3
:1029D000331F4A95E1F7E20FF31FE558FE4F908150
:1029E000992309F4A5CFAFCF823029F1282F30E009
:1029F000F901EE0FFF1F53E0220F331F5A95E1F745
:102A0000E20FF31FE558FE4F9081992349F4882384
:102A100019F4E1ECF0E002C0E9ECF0E098E908C05C
:102A2000882319F4E1ECF0E002C0E9ECF0E098E171
:102A3000908394DF78940895882319F0813029F4E5
:102A400002C080E0D1CF81E0CFCF0895A0E0B0E018
:102A5000ECE2F5E10C94A621D82E7A018B01ECDF93
:102A60008D2D823001F1DD2019F4C4ECD0E002C0DC
:102A7000CCECD0E0C801B70128EF3FEF4FEF5FEF9C
:102A80000E9443216050734D8E4C9E4FA8019701C8
:102A9000E4E0220F331F441F551FEA95D1F70E942F
:102AA000792139832883CDB7DEB7E7E00C94C221C2
:102AB000CDCF0895282F30E0F901EE0FFF1F73E00E
:102AC000220F331F7A95E1F7E20FF31FE558FE4F0F
:102AD000468157814115510509F465C0282F30E022
:102AE000F901EE0FFF1F93E0220F331F9A95E1F7D4
:102AF000E20FF31FE558FE4F6181282F30E0F90106
:102B0000EE0FFF1FA3E0220F331FAA95E1F7E20F9C
:102B1000F31FE558FE4F9381691708F044C08823DE
:102B200019F4E0ECF0E002C0E8ECF0E0908195FFF1
:102B30003AC0882319F4A6ECB0E002C0AEECB0E0D5
:102B4000282F30E0F901EE0FFF1F63E0220F331F43
:102B50006A95E1F7E20FF31FE558FE4F9181490FA7
:102B6000511DFA0190819C93282F30E0F901EE0F5E
:102B7000FF1F93E0220F331F9A95E1F7E20FF31F37
:102B8000E558FE4F91819F5F282F30E0F901EE0F4D
:102B9000FF1FA3E0220F331FAA95E1F7E20FF31FF7
:102BA000E558FE4F9183DACE1F93182F823021F023
:102BB000CADE812F7FDF1CC0809195019091960124
:102BC0000097B1F03091900120919201321780F47A
:102BD00006C0809190018F5F80939001EDCF20918E
:102BE0009001820F911DFC01808125D1882389F7F6
:102BF0001F91089580E0D8DF81E0D6DF82E0D4DF46
:102C000080E015DD81E013DD82E011CDF3CF089582
:102C1000282F30E0F901EE0FFF1F93E0220F331F42
:102C20009A95E1F7E20FF31FE558FE4F778366832D
:102C3000282F30E0F901EE0FFF1FA3E0220F331F12
:102C4000AA95E1F7E20FF31FE558FE4F1182282FF6
:102C500030E0F901EE0FFF1F63E0220F331F6A958A
:102C6000E1F7E20FF31FE558FE4F4383823009F08E
:102C700075CE0895CDCF08951F920F920FB60F9283
:102C80000BB60F9211242F933F934F935F936F9343
:102C90007F938F939F93AF93BF93EF93FF9380E0C6
:102CA00009DFFF91EF91BF91AF919F918F917F913C
:102CB0006F915F914F913F912F910F900BBE0F90AD
:102CC0000FBE0F901F9018951F920F920FB60F9284
:102CD0000BB60F9211242F933F934F935F936F93F3
:102CE0007F938F939F93AF93BF93EF93FF9381E075
:102CF000E1DEFF91EF91BF91AF919F918F917F9115
:102D00006F915F914F913F912F910F900BBE0F905C
:102D10000FBE0F901F9018956F9364E06A95F1F7BE
:102D20006F910197C9F708952F928F939F932FB6B4
:102D30008091C0049091C10401968093C004909347
:102D4000C10490E08091C204891F8093C2049091D5
:102D5000C8049C5F9093C8048091C7048051974237
:102D6000C0F09093C8048093C7048091C3049091ED
:102D7000C40401968093C3049093C40490E08091AE
:102D8000C504891F8093C5048091C604891F809360
:102D9000C6042FBE9F918F912F901895CF93DF93EC
:102DA000EC0104C088EE93E0B7DF21972097D1F7BC
:102DB000DF91CF910895F2CF0895E0E7F0E08081B0
:102DC0008E7F8083A0EBB0E08C9183608C93A1EB2D
:102DD000B0E08C91807F8C938C9182608C93B89AB8
:102DE000808181608083789408958091C9048823CC
:102DF00021F481E08093C904E0CF0895F6DFE0E795
:102E0000F0E080818E7F80832091C3043091C404E0
:102E10004091C5045091C604808181608083B901CE
:102E2000CA010895EBCF08958FEF64E043C083E8B3
:102E300067E040D0F9CF1F93182F982F9095991FD6
:102E40009927991F85E8891B65E034D0812F8F77FA
:102E500065E030D01F9108956F9364E06A95F1F7B3
:102E60006F910197C9F70895A1E0B0E0EAE3F7E1B7
:102E70000C94AA21182F249908C02C9906C02C9ACA
:102E80008EE190E06983E8DF698184B1806A84B96A
:102E90002698812F837080656C7A862B8CBD81E0AB
:102EA00012FF80E08DBD81E090E078DF2196E3E0C5
:102EB0000C94C6210F931F93082F162F0CB406FCF9
:102EC00003C080E064E0D0DF0CB404FC03C08CB528
:102ED00080618CBD0EBD03C00CB404FE0AC00DB4ED
:102EE00007FEFACF112319F0812F90E0B5DF8EB5E0
:102EF00001C080E01F910F9108952F923F924F9251
:102F00005F926F927F928F929F92AF92BF92CF9279
:102F1000DF92EF92FF920F931F93CF93DF93CDB782
:102F2000DEB763970FB6F894DEBF0FBECDBF7C014E
:102F30001B016A01FC0117821682838181FF66C32F
:102F4000BE016F5F7F4F4B01F7019381F10193FD4C
:102F5000859193FF81911F01882309F453C3853222
:102F600039F493FD859193FF81911F01853239F4E6
:102F7000B70190E00E94B02456016501E5CF10E052
:102F8000512C20E02032A0F48B3269F030F48032F2
:102F900059F0833269F420612CC08D3239F08033CE
:102FA00039F4216026C02260246023C0286021C03B
:102FB00027FD27C030ED380F3A3078F426FF06C0E1
:102FC000FAE01F9F300D1124132F13C06AE0569EA4
:102FD000300D1124532E20620CC08E3221F426FDB8
:102FE00011C3206406C08C3611F4206802C08836F4
:102FF00041F4F10193FD859193FF81911F018111AE
:10300000C1CF9BEB980F933018F42061805E06C00F
:103010009BE9980F933008F0AAC12F7E26FF16E097
:103020002F73722E853621F4F22FF0647F2E08C0A4
:10303000863621F4622F6068762E02C0111111507D
:1030400077FE07C01C3348F444244394410E27E024
:103050000BC0183030F4212F06C027E04CE3442E7B
:1030600003C027E017E0412C560174E0A70EB11C05
:10307000F6016081718182819381042DA4010E94F7
:1030800018236C01098100FF02C003FF06C071FC18
:1030900007C072FC08C0612C08C03DE2632E05C069
:1030A0002BE2622E02C090E2692E802F8C7099F183
:1030B000662011F084E001C083E0851510F0512CEA
:1030C0000BC0581A73FC08C0B70180E290E00E9460
:1030D000B0245A94C9F7F3CF662029F0B701862DA2
:1030E00090E00E94B02403FD03C006EF10E002C090
:1030F00002EF10E0F72DF0717F2EF8018491882304
:1031000009F476C271108052B70190E00E94B02499
:103110000F5F1F4FF2CF77FE0FC04C0C04FF04C0AF
:103120008A81813309F44A94141474F5F8E0F41593
:1031300078F588E0482E2CC076FC2AC0812F90E0DC
:103140008C159D059CF06CEFC6166FEFD60674F0DB
:10315000772D7068772E0AC0E2E0F0E0EC0FFD1FDB
:10316000E10FF11D8081803319F411501111F4CF5A
:1031700077FE0EC044244394410E812F90E0C81680
:10318000D9062CF41C1904C04424439401C010E057
:1031900077FE07C01C141D043CF496012F5F3F4FBF
:1031A00005C025E030E002C021E030E0662011F0EB
:1031B0002F5F3F4F112331F0412F50E04F5F5F4FA2
:1031C000240F351F452D50E02417350714F4521AEB
:1031D00001C0512C872D897049F4552039F0B70171
:1031E00080E290E00E94B0245A94F7CF662029F044
:1031F000B701862D90E00E94B02473FC09C05520D1
:1032000039F0B70180E390E00E94B0245A94F7CFE0
:1032100077FE5FC09C2D8D2DD7FE02C090E080E030
:10322000692E782E40E050E0C601841991099D87EF
:103230008C87960126193709280D391D812F90E0BA
:10324000EE27FF27E81BF90BFF87EE87FFEF6F16CE
:103250007F0669F4B7018EE290E02B8B3A8B488BA6
:10326000598B0E94B024598948893A892B89C61400
:10327000D70454F06C857D85661577052CF4F9012B
:10328000E40FF51F818101C080E371E0671A7108C6
:103290004F5F5F4FEE85FF856E167F066CF0B701BE
:1032A00090E02B8B3A8B488B598B0E94B0242B8952
:1032B0003A8948895989CACF6C147D0439F49A81B6
:1032C000963318F4953311F404FF81E3B70190E0CD
:1032D0004BC08A81813309F00F7EB70190E00E94D4
:1032E000B024111105C074FE18C085E490E017C029
:1032F000B7018EE290E00E94B02482E066246394DD
:10330000680EF401E80FF11D8081B70190E00E9482
:10331000B024115041F3862DF1CF85E690E0B7013E
:103320000E94B024D7FC05C0C114D10439F404FFB5
:1033300005C0D194C194D1088DE201C08BE2B701E0
:1033400090E00E94B02480E36AE0C616D1042CF01D
:103350008F5FFAE0CF1AD108F7CFB70190E00E9453
:10336000B024B701C601C0960E94B02441C1833683
:1033700031F0833779F0833509F058C021C0560108
:1033800072E0A70EB11CF6018081898301E010E094
:10339000640114C05601F2E0AF0EB11CF601C0800A
:1033A000D18026FF03C0612F70E002C06FEF7FEF76
:1033B000C6012B8B0E941D248C012B892F7715C0F1
:1033C0005601F2E0AF0EB11CF601C080D18026FF9D
:1033D00003C0612F70E002C06FEF7FEFC6012B8B3F
:1033E0000E940B248C012B892068722E23FD1AC0A9
:1033F000852D90E008171907A8F4B70180E290E046
:103400000E94B0245A94F4CFF60177FC859177FEA0
:1034100081916F01B70190E00E94B02451105A943D
:10342000015011090115110579F7E2C0843611F038
:10343000893651F5560127FF09C0F4E0AF0EB11CE3
:10344000F60160817181828193810AC0F2E0AF0E42
:10345000B11CF60160817181882777FD8095982FD6
:10346000022F0F7697FF08C0909580957095619513
:103470007F4F8F4F9F4F00682AE030E0A4010E94E9
:10348000C725C82EC8183EC0022F853721F40F7EED
:103490002AE030E01DC0097F8F3691F018F488359E
:1034A00059F0B0C0803719F0883711F0ABC0006117
:1034B00004FF09C0046007C024FF08C0066006C0FE
:1034C00028E030E005C020E130E002C020E132E039
:1034D000560107FF09C0F4E0AF0EB11CF601608190
:1034E00071818281938108C0F2E0AF0EB11CF601B8
:1034F0006081718180E090E0A4010E94C725C82E00
:10350000C8180F7706FF0BC0202F2E7FC11650F46E
:1035100004FF0AC002FD08C0202F2E7E05C0DC2C4F
:10352000202F03C0DC2C01C0D12E24FF0DC0FE01D2
:10353000EC0DF11D8081803311F4297E09C022FF3A
:1035400006C0D394D39404C0822F867809F0D39414
:1035500023FD13C020FF06C01C2DD51418F4150D33
:103560001D19D52CD51468F4B70180E290E02B8B9F
:103570000E94B024D3942B89F5CFD51410F45D1894
:1035800001C0512C24FF12C0B70180E390E02B8BC7
:103590000E94B0242B8922FF17C021FF03C088E5B9
:1035A00090E002C088E790E0B7010CC0822F8678D7
:1035B00059F021FD02C080E201C08BE227FD8DE2BF
:1035C000B70190E00E94B024C11638F4B70180E33F
:1035D00090E00E94B0241150F7CFCA94F401EC0D92
:1035E000F11D8081B70190E00E94B024C110F5CF99
:1035F000552009F4C2CCB70180E290E00E94B024CB
:103600005A94F6CFF7018681978102C08FEF9FEF22
:1036100063960FB6F894DEBF0FBECDBFDF91CF919A
:103620001F910F91FF90EF90DF90CF90BF90AF90E0
:103630009F908F907F906F905F904F903F902F90D2
:1036400008955058BB27AA270ED00DC1FED030F0E8
:1036500003D120F031F49F3F11F41EF4F3C00EF4B7
:10366000E095E7FBE9C0E92F0FD180F3BA176207B5
:1036700073078407950718F071F49EF527C10EF4BF
:10368000E0950B2EBA2FA02D0B01B90190010C0172
:10369000CA01A0011124FF27591B99F0593F50F48A
:1036A000503E68F11A16F040A22F232F342F4427E2
:1036B000585FF3CF469537952795A795F0405395DA
:1036C000C9F77EF41F16BA0B620B730B840BBAF0AA
:1036D0009150A1F0FF0FBB1F661F771F881FC2F715
:1036E0000EC0BA0F621F731F841F48F48795779529
:1036F0006795B795F7959E3F08F0B3CF9395880FE0
:1037000008F09927EE0F97958795089571D008F4E2
:1037100081E0089504D06894B111D9C00895BCD057
:1037200088F09F5790F0B92F9927B751A0F0D1F0AA
:10373000660F771F881F991F1AF0BA95C9F712C034
:10374000B13081F0C3D0B1E00895C0C0672F782FA9
:103750008827B85F39F0B93FCCF3869577956795A0
:10376000B395D9F73EF490958095709561957F4F0C
:103770008F4F9F4F0895E89409C097FB3EF49095B2
:103780008095709561957F4F8F4F9F4F9923A9F03A
:10379000F92F96E9BB279395F695879577956795C9
:1037A000B795F111F8CFFAF4BB0F11F460FF1BC00D
:1037B0006F5F7F4F8F4F9F4F16C0882311F096E9A0
:1037C00011C0772321F09EE8872F762F05C066234E
:1037D00071F096E8862F70E060E02AF09A95660F07
:1037E000771F881FDAF7880F9695879597F90895C0
:1037F000990F0008550FAA0BE0E8FEEF1616170602
:10380000E807F907C0F012161306E407F50798F069
:10381000621B730B840B950B39F40A2661F0232B82
:10382000242B252B21F408950A2609F4A140A695FE
:103830008FEF811D811D089597F99F6780E870E0E3
:1038400060E008959FEF80EC089500240A94161616
:10385000170618060906089500240A94121613067E
:10386000140605060895092E0394000C11F488230C
:1038700052F0BB0F40F4BF2B11F460FF04C06F5F28
:103880007F4F8F4F9F4F089557FD9058440F551FFE
:1038900059F05F3F71F04795880F97FB991F61F0D2
:1038A0009F3F79F087950895121613061406551F49
:1038B000F2CF4695F1DF08C0161617061806991FB5
:1038C000F1CF86957105610508940895E894BB27AA
:1038D00066277727CB0197F908950BD0C4CFB5DFC2
:1038E00028F0BADF18F0952309F0A6CFABCF11244A
:1038F000EECFCADFA0F3959FD1F3950F50E0551F8F
:10390000629FF001729FBB27F00DB11D639FAA2734
:10391000F00DB11DAA1F649F6627B00DA11D661F83
:10392000829F2227B00DA11D621F739FB00DA11DA4
:10393000621F839FA00D611D221F749F3327A00D5E
:10394000611D231F849F600D211D822F762F6A2FFA
:1039500011249F5750408AF0E1F088234AF0EE0F7F
:10396000FF1FBB1F661F771F881F91505040A9F78C
:103970009E3F510570F060CFAACF5F3FECF3983EB9
:10398000DCF3869577956795B795F795E7959F5FF3
:10399000C1F7FE2B880F911D9695879597F908958D
:1039A00020FD09C0FC0123FD05C022FF02C0738376
:1039B000628351834083089544FD10C046FD10C0CA
:1039C000DB01FC01AA0FBB1FEE1FFF1F1094D1F7F4
:1039D0006A0F7B1F8E1F9F1F31E003C033E001C0C1
:1039E00034E0660F771F881F991F3150D1F7620F9F
:1039F000711D811D911D08950F931F93CF93DF9328
:103A00008C01C8016FD7EC0197FD07C0E9D6892B5F
:103A1000C1F7B801CE010E94AE25CE01DF91CF9152
:103A20001F910F9108956F927F929F92AF92BF92D4
:103A3000CF92DF92EF92FF920F931F93CF93DF937A
:103A40001F92CDB7DEB78C013B015A0129834AD7BB
:103A5000AC01552729814B32510521F04D325105DA
:103A600079F4206831E0631A71086114710411F46B
:103A700080E079C0C801298335D7298197FDF8CF27
:103A8000E22FED7F9E2E322F307369F5803359F58A
:103A90007301F1E0EF1AF108E114F10409F450C0E8
:103AA000C80129831FD7298197FD4AC0382F3F7D40
:103AB000383579F4292D2264922E32E0631A710888
:103AC0006114710409F43CC0C8010CD797FF0BC006
:103AD00037C026FF04C0E92DE2609E2E03C0F92DF9
:103AE000F2619F2E3701C12CD12C760120ED280FD9
:103AF000283080F094FE04C0B8010E94AE251DC09D
:103B00002A3040F096FEF8CF2F7D3FEE320F363050
:103B100098F72750492DC701B6014EDF6B017C0194
:103B2000292D2260922E31E0631A7108611471040C
:103B300051F0C801D7D697FFD9CF91FC04C098CFD8
:103B4000C12CD12C760197FE08C0F094E094D0945B
:103B5000C094C11CD11CE11CF11C292DB701A60188
:103B6000C5011EDF81E00F90DF91CF911F910F9172
:103B7000FF90EF90DF90CF90BF90AF909F907F909D
:103B80006F9008954F925F926F927F928F929F9263
:103B9000AF92BF92CF92DF92EF92FF920F931F935B
:103BA000CF93DF93CDB7DEB7A0970FB6F894DEBF03
:103BB0000FBECDBF5C014B017A018E010F5F1F4F1D
:103BC000680180E2F80111928A95E9F7F5016380B6
:103BD00080E090E0712C412CB0E041E050E0F90130
:103BE00063FC559063FE51908F01A52D9F015110EC
:103BF00003C080E090E07DC0FEE55F1202C0009748
:103C000061F16B2F70E0681779074CF46DE556167B
:103C100061F1EDE25E1203C0442009F103C04110DE
:103C200001C0752C6A2F669566956695F601E60FBC
:103C3000F11D6A2F67708A0102C0000F111F6A957B
:103C4000E2F7B8017081762B7083A71559F0A7159C
:103C500010F4AF5FE7CFA150E5CFB1E004C044243A
:103C6000439401C0412C0196BACF442019F08E81B3
:103C700080628E83B11103C07724739419C0F6015A
:103C8000CE018196208120952193E817F907D1F77D
:103C9000F3CFE114F10429F0F7018083C701019605
:103CA0007C0191E0891A910881149104E1F0712C52
:103CB000C50118D697FD15C0282F2695269526955F
:103CC000F601E20FF11D208130E0AC01477055276D
:103CD00002C0359527954A95E2F720FDDACFB50168
:103CE0003DD7711086CFE114F10411F0F701108275
:103CF000C801A0960FB6F894DEBF0FBECDBFDF910E
:103D0000CF911F910F91FF90EF90DF90CF90BF90D8
:103D1000AF909F908F907F906F905F904F9008959D
:103D20002F923F924F925F926F927F929F92AF92AB
:103D3000BF92CF92DF92EF92FF920F931F93CF9398
:103D4000DF9300D000D000D0CDB7DEB76C018B017F
:103D50001A01C8D59E838D8399278B32910529F04E
:103D60008D9791F480E8982E01C0912C0150110993
:103D70000115110511F480E02AC1C601B3D59E8357
:103D80008D8397FF02C0F7CF912C8D819E8130D516
:103D90008936910541F08E369105C1F5BCE06B2E58
:103DA000B1E07B2E04C0AFE06A2EA1E07A2E8FEF47
:103DB000681A780AF3013197B490BB20D9F001500A
:103DC00011090115110559F0C6018CD57C0197FD2B
:103DD00006C00ED5B81659F3B601C701BFD622E109
:103DE000621621E0720609F0C6CF80E090E0A0E8FC
:103DF000BFE709C09FE0691691E07906B1F780E05E
:103E000090E0A0ECBFE7BC01CD01D1C0412C512C0A
:103E10003201E12CF12C2D8120532A3020F5E92D9F
:103E2000E260BE2E892D887092FE06C0811122C0EC
:103E3000FFEFEF1AFF0A1EC0882319F081E0E81A8D
:103E4000F10840E2C301B201B7DD2B013C0198E962
:103E5000491699E95906690699E1790658F0E92D5C
:103E6000E660BE2E07C02E3F99F493FC11C0F92DD9
:103E7000F860BF2E015011090115110541F0C6016E
:103E800031D59E838D839B2C97FD02C0C4CF9B2C84
:103E900091FE71CF8D818F7D853409F052C058011C
:103EA00021E0A21AB108A114B10409F464CFC6013B
:103EB00019D59E838D8397FD5ECF99278B3291050F
:103EC00029F08D9779F4892D8061982E580192E020
:103ED000A91AB108A114B10409F44DCFC60102D545
:103EE0009E838D838D819E81C0970A9708F043CF72
:103EF0008501A12CB12CB501882777FD8095982FDD
:103F00002D81205340E258DDAB01BC015A01015024
:103F100011090115110569F0C60149835A836B83A4
:103F20007C83E0D49E838D83C09749815A810A9710
:103F300010F394FE04C0AA24BB24A41AB50AEA0C08
:103F4000FB1C012B39F0ED81FE81F7FD03C0B601AA
:103F5000CF0104D6C301B2010EDCF7FE08C0F19414
:103F6000E194F108FBE2AF2EF1E0BF2E04C0E3E4E0
:103F7000AE2EE1E0BE2E6501F8E1CF1AD10800E2D5
:103F800010E0F5014590559065907490E016F106AB
:103F900030F0A3019201A1DCE01AF10AF7CF24E08E
:103FA000A21AB10816950795AC14BD0451F797FEF7
:103FB00005C0DC01CB01B058BC01CD012114310496
:103FC00029F0F101608371838283938381E02696D7
:103FD0000FB6F894DEBF0FBECDBFDF91CF911F911A
:103FE0000F91FF90EF90DF90CF90BF90AF909F9098
:103FF0007F906F905F904F903F902F9008954F92D9
:104000005F926F927F928F929F92AF92BF92CF9268
:10401000DF92EF92FF920F931F93CF93DF931F9244
:10402000CDB7DEB78C012B017A01FC011782168215
:10403000A12CF801D380F201D3FC8591D3FE8191AC
:10404000382F2F01882309F407C190E03983C8D3A2
:104050003981892B19F0C801CFDCEBCF353241F41F
:10406000F201D3FC3591D3FE31912F01353259F451
:10407000C801398337D4398197FDECC03817C9F2AC
:10408000B8016CD5E9C03A3241F4D3FC3591D3FE86
:1040900031912F01BB24B39401C0B12C812C912C00
:1040A00020ED230F2A3080F4FB2DF260BF2EB401E7
:1040B00080E090E040E280DC4B01F201D3FC3591DE
:1040C000D3FE31912F01ECCFB1FE04C081149104D5
:1040D00021F4C2C088248A94982C383619F03C36D2
:1040E00061F014C0F201D3FC3591D3FE31912F0160
:1040F000383661F4FB2DF860BF2E8B2D8460B82E0E
:10410000F201D3FC3591D3FE31912F01332309F411
:10411000A3C0632F70E08AEF90E0398371D33981B7
:10412000892B09F499C0B0FC07C0F701C080D18089
:10413000C70102967C0102C0C12CD12C3E3649F445
:10414000F8014681578160E070E02B2DC60128DC24
:1041500070CF3336C1F4B1FC03C088248394912C12
:10416000C801C0D397FD76C0C114D10429F0F6016F
:104170008083C60101966C0191E0891A910881142F
:10418000910471F763C03B3551F49201A601B4016B
:10419000C801F8DC2C01009709F058C052C0C801D2
:1041A00039832ADC398197FD55C03F36D9F140F477
:1041B0003436A1F13936C9F1383509F03CC02AC08E
:1041C0003337B9F018F4303729F135C0353731F1CC
:1041D000383701F130C0C114D10429F0F6016082F2
:1041E000C60101966C0191E0891A9108811491042D
:1041F00059F0C80177D33C0197FD06C0F1D2892B55
:1042000051F3B801C301AAD4C114D104F9F0F601E5
:1042100010821CC0FB2DF064BF2E07C08B2D806266
:10422000B82E03C09B2D9061B92E2B2DA601B40191
:10423000C801F9DB04C0A601B401C80171DD811118
:1042400005C0F8018381807329F406C0B0FCF1CE6B
:10425000A394EFCEAA2019F08A2D90E002C08FEF30
:104260009FEF0F90DF91CF911F910F91FF90EF90F3
:10427000DF90CF90BF90AF909F908F907F906F9086
:104280005F904F900895DB018F939F9391D0BF91E2
:10429000AF91A29F800D911DA39F900DB29F900D95
:1042A00011240895AA1BBB1B51E107C0AA1FBB1F05
:1042B000A617B70710F0A61BB70B881F991F5A95B2
:1042C000A9F780959095BC01CD01089597FB072E25
:1042D00016F4009406D077FD08D0E4DF07FC05D083
:1042E0003EF4909581959F4F0895709561957F4F0D
:1042F0000895A1E21A2EAA1BBB1BFD010DC0AA1F27
:10430000BB1FEE1FFF1FA217B307E407F50720F03E
:10431000A21BB30BE40BF50B661F771F881F991FB9
:104320001A9469F760957095809590959B01AC0102
:10433000BD01CF0108952F923F924F925F926F92ED
:104340007F928F929F92AF92BF92CF92DF92EF9225
:10435000FF920F931F93CF93DF93CDB7DEB7CA1BA6
:10436000DB0B0FB6F894DEBF0FBECDBF09942A88D1
:10437000398848885F846E847D848C849B84AA8479
:10438000B984C884DF80EE80FD800C811B81AA8106
:10439000B981CE0FD11D0FB6F894DEBF0FBECDBFD1
:1043A000ED010895EE0FFF1F0590F491E02D0994A3
:1043B00009D0A59F900DB49F900DA49F800D911DD5
:1043C00011240895A29FB001B39FC001A39F700D57
:1043D000811D1124911DB29F700D811D1124911D0D
:1043E0000895CF93DF938230910510F482E090E03E
:1043F000E0916519F091661920E030E0A0E0B0E0AE
:10440000309739F14081518148175907B8F0481762
:10441000590771F482819381109729F013969C9328
:104420008E9312972CC0909366198093651927C0BC
:104430002115310531F04217530718F0A901DB01AE
:1044400001C0EF019A01BD01DF010280F381E02D7F
:10445000D7CF21153105F9F0281B390B2430310550
:1044600080F48A819B816115710521F0FB019383A2
:10447000828304C09093661980936519FE01329679
:1044800044C0FE01E20FF31F819391932250310942
:10449000398328833AC02091631930916419232B02
:1044A00041F42091A3013091A40130936419209329
:1044B00063192091A1013091A2012115310541F428
:1044C0002DB73EB74091A5015091A601241B350B95
:1044D000E0916319F0916419E217F307A0F42E1B21
:1044E0003F0B2817390778F0AC014E5F5F4F241758
:1044F000350748F04E0F5F1F5093641940936319BE
:104500008193919302C0E0E0F0E0CF01DF91CF9181
:104510000895CF93DF93009709F487C0FC01329789
:1045200013821282C0916519D0916619209781F487
:1045300020813181280F391F80916319909164196E
:104540008217930779F5F0936419E09363196DC0AE
:10455000DE0120E030E0AE17BF0750F412964D9117
:104560005C9113979D014115510509F1DA01F3CFD3
:10457000B383A28340815181840F951F8A179B07C3
:1045800071F48D919C911197840F951F02969183E0
:10459000808312968D919C9113979383828321152A
:1045A000310529F4F0936619E09365193EC0D901ED
:1045B0001396FC93EE9312974D915D91A40FB51F46
:1045C000EA17FB0779F480819181840F951F029689
:1045D000D90111969C938E938281938113969C931B
:1045E0008E931297E0E0F0E08A819B81009719F0AA
:1045F000FE01EC01F9CFCE01029628813981820FAC
:10460000931F20916319309164192817390769F4B1
:10461000309729F4109266191092651902C013821E
:104620001282D0936419C0936319DF91CF910895DA
:10463000283008F027E03327DA01990F311D87FD74
:10464000916000966105710539F432602E5F3D93EB
:1046500030E32A95E1F708959F3F30F080387105E7
:10466000610509F03C5F3C5F3D93913008F0806844
:10467000911DDF93CF931F930F93FF92EF92192F0A
:10468000987F9695E92F96959695E90FFF27EF5518
:10469000FE4F99273327EE24FF24A701E701059059
:1046A0000894079428F4360FE71EF81E491F511D81
:1046B000660F771F881F991F0694A1F7059007942E
:1046C00028F4E70EF81E491F561FC11D770F881FDB
:1046D000991F661F0694A1F70590079428F4F80E19
:1046E000491F561FC71FD11D880F991F661F771FAF
:1046F0000694A1F70590079420F4490F561FC71F91
:10470000D81F990F661F771F881F0694A9F78491F9
:104710001095177041F0D695C79557954795F79422
:10472000E7941A95C1F7E7E4F1E0689415901591C4
:1047300035916591959105907FE27395E118F10AA5
:10474000430B560BC90BD009C0F7E10CF11E431FF8
:10475000561FC91FD01D7EF4703311F48A95E6CF21
:10476000E894015030F0080F0AF40027021708F40B
:10477000202F2395022F7A3328F079E37D932A9511
:10478000E9F710C07D932A9589F606949795679569
:10479000379517951794E118F10A430B560BC90B7F
:1047A000D00998F023957E9173957A3308F070E3E1
:1047B0007C932013B8F77E9170617D9330F08395E0
:1047C00071E37D9370E32A95E1F71124EF90FF9058
:1047D0000F911F91CF91DF91992787FD90950895B3
:1047E00091114DC2803219F089508550D0F708954B
:1047F0009111089581548A5108F4805E855A089574
:10480000FC010590061621F00020D9F7C00108959B
:104810003197CF010895FC0105906150704001105F
:10482000D8F7809590958E0F9F1F0895FB01DC01AE
:1048300001900D920020E1F70895FC016150704055
:1048400001900110D8F7809590958E0F9F1F0895C5
:104850000F931F93CF93DF93EC018B01009731F4FB
:104860006115710519F480E090E037C06EE070E0EA
:1048700081E090E0EAD1FC010097A9F380E883830E
:104880000115110571F01387028781E883838091F8
:10489000671990916819892B21F4F0936819E093B6
:1048A00067192097C9F0D187C0878381826083838D
:1048B0008091691990916A19892B71F4F0936A19A2
:1048C000E093691980916B1990916C19892B21F4EF
:1048D000F0936C19E0936B19CF01DF91CF911F9189
:1048E0000F910895CF93DF93EC012B8120FF33C00C
:1048F00026FF0AC02F7B2B838E819F8101969F8389
:104900008E838A8190E029C022FF0FC0E881F9815F
:104910008081992787FD9095009719F420622B8359
:104920001AC03196F983E8830EC0EA85FB850995A4
:1049300097FF09C02B81019611F480E101C080E24C
:10494000822B8B8308C02E813F812F5F3F4F3F8397
:104950002E83992702C08FEF9FEFDF91CF910895AB
:104960000F931F93CF93DF93182F092FEB018B81A8
:1049700081FD03C08FEF9FEF20C082FF10C04E81EA
:104980005F812C813D81421753077CF4E881F981D6
:104990009F012F5F3F4F39832883108306C0E8852E
:1049A000F985812F0995892B29F72E813F812F5F6A
:1049B0003F4F3F832E83812F902FDF91CF911F9107
:1049C0000F910895CF93DF93CDB7DEB7FE013596F3
:1049D00061917191AF018091691990916A190E945A
:1049E0007D17DF91CF9108950F931F93CF93DF939E
:1049F000E0916919F0916A19238121FF1BC0EC0134
:104A000000E010E089916091691970916A19DB01E9
:104A10001896ED91FC911997882331F00995892B0F
:104A200089F30FEF1FEFEECF8AE00995892B11F480
:104A3000C80102C08FEF9FEFDF91CF911F910F91BF
:104A400008950F931F93CF93DF93CDB7DEB72E97C3
:104A50000FB6F894DEBF0FBECDBF0D891E898F89BA
:104A6000988D26E02C831A83098397FF02C080E08B
:104A700090E801979E838D83AE01455E5F4F698DFF
:104A80007A8DCE0101960E947D174D815E8157FD82
:104A90000AC02F813885421753070CF49A01F80198
:104AA000E20FF31F10822E960FB6F894DEBF0FBEF2
:104AB000CDBFDF91CF911F910F9108950F931F9359
:104AC000CF93DF93CDB7DEB72E970FB6F894DEBF46
:104AD0000FBECDBF0D891E8986E08C831A830983A2
:104AE0008FEF9FE79E838D83AE01475E5F4F6F8997
:104AF000788DCE0101960E947D17EF81F885E00F39
:104B0000F11F10822E960FB6F894DEBF0FBECDBFF8
:104B1000DF91CF911F910F910895CF93DF93CDB780
:104B2000DEB72E970FB6F894DEBF0FBECDBF85E07F
:104B30008C838B899C899A838983AE01495E5F4F00
:104B40006D897E89CE0101965ADA2E960FB6F894B9
:104B5000DEBF0FBECDBFDF91CF910895FB01238152
:104B600020FF12C026FD10C08F3F3FEF930761F07A
:104B700082832F7D20642383268137812150310950
:104B800037832683992708958FEF9FEF0895FA01C1
:104B9000AA27283051F1203181F1E8946F936E7F7C
:104BA0006E5F7F4F8F4F9F4FAF4FB1E03ED0B4E06D
:104BB0003CD0670F781F891F9A1FA11D680F791FAE
:104BC0008A1F911DA11D6A0F711D811D911DA11DBF
:104BD00020D009F468943F912AE0269F11243019CF
:104BE000305D3193DEF6CF010895462F4770405D6A
:104BF0004193B3E00FD0C9F7F6CF462F4F70405D19
:104C00004A3318F0495D31FD4052419302D0A9F773
:104C1000EACFB4E0A6959795879577956795BA956D
:104C2000C9F700976105710508959B01AC010A2E33
:104C300006945795479537952795BA95C9F7620F0A
:104C4000731F841F951FA01D08950F931F93CF936B
:104C5000DF93869F8001879F100D969F100D112472
:104C6000C801BFDBEC01009721F0A80160E070E013
:104C700009D0CE01DF91CF911F910F91089599270F
:104C800088270895DC0101C06D9341505040E0F742
:064C90000895F894FFCF27
:104C960001F401F401F401018FC2753CCDCC4C3E08
:104CA6000000A040A69BC43ACDCC4C3E6400E8036D
:104CB600E803E803E803E803F401E803E803C800AF
:104CC6002C01E803F401E803DC05E8032C0138FFB6
:104CD6000CFE00000A000A0005000A000A000A008D
:104CE60032000A000A0014002C015802F4012C01BB
:104CF60032009CFFD4FE0CFE38FF640048025102CD
:104D0600610271028102010101021000000000002F
:104D1600000000000000000000000000000000018C
:104D2600000000000000000000FFFFFFFFFFFFFF84
:104D3600FF00006D1920002C20005350443A204BF0
:104D4600702C4B692C4B642C566D2C50722C506D6C
:104D56002C540D0A0025662C25662C25662C256606
:104D66000D0A00504F533A204B702C4B692C4B6464
:104D76002C566D2C50722C506D2C540D0A004C6F15
:104D8600676765643A2025730D0A0054696D652CC2
:104D96004B702C4B692C4B642C56656C6F63697495
:104DA600792C536574706F696E742C506F736974C7
:104DB600696F6E2C546F727175650D0A0025756CDE
:104DC6002C25662C25662C25662C25662C25642C20
:104DD60025642C25640D0A004354524C5F4F464609
:104DE600004354524C5F5350445F534554504E5405
:104DF600004354524C5F5350445F494E5445525001
:104E0600004354524C5F504F535F534554504E54D9
:104E1600004354524C5F504F535F494E54455250D5
:104E26000043616E6E6F7420746F67676C65206EE9
:104E360065676174697665206D732E00436F6E76C3
:104E4600657274656420746F20746F67676C652083
:104E5600706572696F643A2025642E0A0047726590
:104E6600656E2025642C2025640A000D0A48454CF1
:104E7600503A0D0A4C2F6C3A2053746172742F53BA
:104E8600746F70204C6F6767696E670D0A00562F46
:104E9600763A2056696577204B642C204B702C207F
:104EA600566D2C2050722C20506D2C20616E642083
:104EB600540D0A00522F723A20506F736974696F4D
:104EC6006E2028636F756E7473290D0A00532F7355
:104ED6003A2053706565642028636F756E74732F6E
:104EE600736563290D0A00503A20496E6372656145
:104EF6007365204B700D0A00703A20446563726535
:104F0600617365204B700D0A00443A20496E637246
:104F160065617365204B640D0A00643A204465633D
:104F26007265617365204B640D0A00743A204578FA
:104F36006563757465207472616A6563746F7279EE
:104F46000D0A000D0A0D0A2A2A2A2055534220531B
:104F5600657269616C20496E697469616C697A650C
:104F660064202A2A2A000D4D656E753A203C4C2C89
:104F7600562C522C532C502C442C743E3A2000258F
:104F86006320256400476F742025632025640A008A
:104F96004F703A25632056616C3A25640D0A00432A
:104FA6006F6D6D616E6420646F6573206E6F742023
:104FB600636F6D707574652E0D0A0052583A20287D
:024FC6000000E9
:00000001FF
