:100000004BC0000067C0000065C0000063C0000076
:100010000C94630E0C94630E0C94630E0C94630E9C
:1000200059C0000057C0000055C000000C94AF0D2F
:1000300051C0000067C200004DC000004BC000006E
:10004000DCC2000047C0000045C0000043C0000003
:100050000C94630B0C94570D3DC000003BC0000096
:1000600039C0000037C0000035C0000033C00000B8
:100070000C948D0B0C947F0D2DC000002BC0000044
:10008000DEC1000027C0000025C000006364696E67
:100090006F70737578585B0011241FBECFEFD0E4EA
:1000A000DEBFCDBF12E0A0E0B1E0E6E9F2E300E0A0
:1000B0000BBF02C007900D92A23AB107D9F713E027
:1000C000A2EAB2E001C01D92A235B107E1F7BBD4AC
:1000D0000C94491995CF809100018F5F80930001A6
:1000E0000895509851984BB1242F217030E03093EF
:1000F000AB022093AA022BB121FB882780F990E064
:100100009093A9028093A80284E18093690080E122
:1001100080936C0081E080936D0086E0809368009E
:10012000089580E20E945B09882349F08091A20231
:100130009091A3020A969093A3028093A20288E072
:100140000E945B09882389F060E070E080E090E025
:100150000E94320988EC90E00E94F60D81E09091B7
:10016000C702911180E08093C70284E00E945B097E
:10017000882349F08091A2029091A3020A9790935C
:10018000A3028093A2028091A2029091A30297FF02
:1001900004C01092A3021092A2028091A202909138
:1001A000A3028F3F910539F034F08FEF90E09093E8
:1001B000A3028093A2022091A2023091A302809117
:1001C000C702882319F08FEF9FEF02C081E090E013
:1001D00060E070E0AC01249FC001259F900D349F2A
:1001E000900D11240E94320982E390E00E94F60DE6
:1001F00060E080E0C8D50E94510FBC01882777FDE0
:100200008095982F9FD585EB91E043D561E080E004
:10021000BAD50E945A0FBC01882777FD8095982F88
:1002200091D585EB91E035C58091BD029091BE02DC
:10023000892BD9F082B194E0892782B98091B902E3
:100240009091BA02A091BB02B091BC020196A11D8F
:10025000B11D8093B9029093BA02A093BB02B093F0
:10026000BC021092BE021092BD020E94210D88C3F2
:10027000809107018F5F80930701089511B81AB824
:1002800011B80A9A559A089A129A5D9A109A28EC0F
:1002900030E01092030310920403109205031092B1
:1002A00006038091030390910403A0910503B0918C
:1002B00006038C3B9541A105B105A0F48091030391
:1002C00090910403A0910503B09106030196A11D2E
:1002D000B11D8093030390930403A0930503B0938F
:1002E0000603DFCF215031092115310591F612980F
:1002F0005D9810981092B5021092B6021092B70253
:100300001092B8021092B9021092BA021092BB0277
:100310001092BC021092B1021092B2021092B3027B
:100320001092B40208950F931F93CF93C82F9B018F
:1003300077FF05C088E391E00E94F2127CC0CB01F8
:1003400064E670E00E94CE0F8901081B190B1F9311
:100350000F9323E531E03F932F930E94E1120F901A
:100360000F900F900F90C23519F0C13409F05DC0A5
:100370000115110511F40A9801C00A9A109306019B
:1003800000930501C93529F40115110531F40898C8
:1003900005C0C13409F04CC0F7CF089A1093020190
:1003A00000930101C73429F40115110531F4559862
:1003B0000BC0C13409F03FC0F7CF559A013A8FE026
:1003C000180714F000EA1FE01093040100930301E2
:1003D0001016110684F5B80180E090E00E947F10AD
:1003E00021E73DE34CE951E40E94E5100E945310DF
:1003F00070938900609388008091880090918900B3
:100400009F938F93809104018F93809103018F9329
:1004100084E791E09F938F930E94E1120F900F90D9
:100420000F900F900F900F9006C0C93509F4ACCF14
:10043000C73409F4B9CFCF911F910F9108951F923E
:100440000F920FB60F9211240F931F932F933F9388
:100450005F936F937F938F939F93AF93BF9300911D
:10046000C3021091C4022091C5023091C6020F5FF1
:100470001F4F2F4F3F4F0093C3021093C40220938E
:10048000C5023093C602809101019091020164E699
:1004900070E00E94BA0FCB01A0E0B0E00817190786
:1004A0002A073B07F8F082B191E0892782B9809151
:1004B000B1029091B202A091B302B091B402019640
:1004C000A11DB11D8093B1029093B202A093B3021B
:1004D000B093B4021092C3021092C4021092C502EB
:1004E0001092C602BF91AF919F918F917F916F91B2
:1004F0005F913F912F911F910F910F900FBE0F9021
:100500001F9018951F920F920FB60F9211248F9380
:100510009F93AF93BF938091B5029091B602A09143
:10052000B702B091B8020196A11DB11D8093B5022A
:100530009093B602A093B702B093B802BF91AF9167
:100540009F918F910F900FBE0F901F9018958091E3
:1005500008018F5F80930801089582E884BD84E0DC
:1005600085BD8EE487BD82E080936E001092BF024D
:100570001092C0021092C1021092C20280E88093D1
:1005800090008BE08093910082E19AE7909399002C
:1005900080939800E1E7F0E0808182608083109290
:1005A000C3021092C4021092C5021092C60280E4E7
:1005B000809380008DE080938100609103017091B1
:1005C000040180E090E00E947F1021E73DE34CE9C8
:1005D00051E40E94E5100E945310709389006093CB
:1005E000880081E090E090938B0080938A00EFE692
:1005F000F0E080818260808308951F920F920FB691
:100600000F9211240BB60F922F933F934F935F934A
:100610006F937F938F939F93AF93BF93EF93FF93CA
:100620006091BF027091C0028091C1029091C2029C
:100630006F5F7F4F8F4F9F4F6093BF027093C002D9
:100640008093C1029093C20220910501309106016E
:1006500040E050E00E94E10F672B682B692B31F4DA
:1006600081E090E09093BE028093BD02FF91EF91F4
:10067000BF91AF919F918F917F916F915F914F91BA
:100680003F912F910F900BBE0F900FBE0F901F90B8
:100690001895809109018F5F80930901089582E088
:1006A0001CD6811103C00E94210DF9CF0895462F59
:1006B000BC0182E00E94550DF2CF40E855E260E0B7
:1006C00070E082E00E94730C40E267E273E082E037
:1006D000F8D768E170E082E891E0E9DF6BE170E073
:1006E0008BE991E0E4CFA4E2B0E0E9E7F3E00C9419
:1006F00011109E012F5D3F4F3F932F939E012C5D64
:100700003F4F3F932F939E012D5D3F4F3F932F937C
:1007100027EB31E03F932F939F938F930E944D13CC
:1007200060E080E030D38AA18F9389A18F932CA1C0
:10073000822F992787FD90959F932F932BA1822F2E
:10074000992787FD90959F932F9380EC91E09F933D
:100750008F930E94E1128AA18F9389A18F932CA17C
:10076000822F992787FD90959F932F932BA1822FFE
:10077000992787FD90959F932F938EEC91E09F93FF
:100780008F938E010F5F1F4F1F930F930E941F13B4
:10079000BC01C8018CDF8CA19FE9980F0FB6F894BB
:1007A000DEBF0FBECDBF9A3110F490E201C090E0E1
:1007B000891B8CA3873469F01CF4813451F004C088
:1007C000823539F0893529F067E170E080EE91E0FB
:1007D000CDC09BA19A3509F48BC02CF4903581F0E3
:1007E000943551F0BFC0943739F09A3709F480C07E
:1007F000903709F0B7C004C069A17AA194DDB7C0F1
:10080000873409F453C084F5813409F06CC08091B9
:10081000B4028F938091B3028F938091B2028F9331
:100820008091B1028F938091B8028F938091B7022B
:100830008F938091B6028F938091B5028F938091B0
:10084000BC028F938091BB028F938091BA028F93E9
:100850008091B9028F938BE292E09F938F931F93C5
:100860000F930E941F1336C0823589F08935D9F560
:100870008091B4028F938091B3028F938091B202E2
:100880008F938091B1028F938AE192E01DC0809195
:10089000BC028F938091BB028F938091BA028F9399
:1008A0008091B9028F9388EF91E00EC08091B802D9
:1008B0008F938091B7028F938091B6028F9380912E
:1008C000B5028F9389E092E09F938F931F930F93CC
:1008D0000E941F13BC01C801EADE0FB6F894DEBF08
:1008E0000FBECDBF44C06BE170E087E492E03EC034
:1008F000873409F19CF4813481F51092B102109291
:10090000B2021092B3021092B4021092B502109289
:10091000B6021092B7021092B80216C08235A1F04A
:100920008935D9F41092B1021092B2021092B3023A
:100930001092B4021CC01092B5021092B60210922E
:10094000B7021092B80213C01092B9021092BA0204
:100950001092BB021092BC020AC06BE170E083E609
:1009600092E004C06BE170E08FE792E0A0DE6BE103
:1009700070E08BE991E09BDEA496E4E00C942D10EE
:10098000A0E2B0E0E6ECF4E00C940F1082E095D425
:10099000909147032091C8023091C9028917D9F07C
:1009A000A1E0B0E0AC0FBD1FA20FB31FE92FF0E034
:1009B000E95DFC4F80818C932F5F3F4F3093C902DC
:1009C0002093C8029F3119F410924703DFCF9F5F35
:1009D00090934703DBCF2115310589F12130310593
:1009E00051F18E010F5F1F4FF801E20FF31F1082CC
:1009F00061E080E0C8D18BE992E04BD16091C80200
:100A00007091C902882777FD8095982F9BD189E244
:100A1000BBD078018091C8029091C9029701201B38
:100A2000310B281739072CF4F70181917F01ACD0E5
:100A3000F1CFC80158DE1092C9021092C802A096E8
:100A4000E6E00C942B102CE040E163E082E00E9491
:100A5000480FEAD209D1789464DBFECF80E090E0C1
:100A6000089581E090E06F9364E06A95F1F76F91EB
:100A70000197C9F708950F931F93CF93DF9317B191
:100A80003D982898299AC0E0D0E0EBDF2A9AE9DF68
:100A900006B12A98E6DF2A9AE4DF2A98249605FF11
:100AA00010C09E0140E050E08091CE029091CF02B4
:100AB000A091D002B091D102281739074A075B07ED
:100AC00020F39E0140E050E08091CE029091CF0251
:100AD000A091D002B091D102281739074A075B07CD
:100AE00028F082E390E0A0E0B0E004C080E395E766
:100AF000A0E0B0E08093CE029093CF02A093D0020A
:100B0000B093D10217B9DF91CF911F910F91089542
:100B100028B190E08F709070880F991F880F991FEF
:100B2000237C282B28B92A9A9CDF2A989ACFA2E006
:100B3000B0E0EDE9F5E00C941010182F4A836983BA
:100B40005FD099DFF7B008B1299869814A8166239F
:100B500011F0289A01C0289887B18C6387B9413079
:100B600021F0812F82958F70D3DF812F8F70D0DF9E
:100B7000F7B808B92296E5E00C942C1060E042E04A
:100B8000D6CF61E042E0D3CFFCCF089560E041E0F2
:100B9000CECF3D98459A80E395E7A0E0B0E0809302
:100BA000CE029093CF02A093D002B093D102209AAC
:100BB000219A229A8EE190E00E94F60D83E0E6DF12
:100BC00086E090E00E94F60D83E0E0DF82E090E0B6
:100BD0000E94F60D83E0DADF82E090E00E94F60DDD
:100BE00082E0D4DF82E090E00E94F60D88E2C6DF6A
:100BF00088E0C4DF81E0C2DF86E0C0DF8CE0BECFEA
:100C00008091D202882321F481E08093D202C1CF67
:100C1000089581E0B3DF8091CA029091CB020097E2
:100C200011F1A0E0B0E208C0E091CA02F091CB025D
:100C3000E20FF31FB083AF5F2A2F30E080910A01EB
:100C400090E0019760910B0170E0869FA001879F63
:100C5000500D969F500D1124241735072CF3109238
:100C6000CD021092CC020895D4CF0895EF92FF9256
:100C7000CF93DF93E82EE7017E01F92EE70101C053
:100C800080DF89918823E1F7DF91CF91FF90EF908A
:100C90000895ECCF0895AAE0B0E0E1E5F6E00C9409
:100CA0000B109B01AC011AE06AE0C62ED12CE12C9E
:100CB000F12C5E010894A11CB11C022FCA01B901DC
:100CC000A70196010E94E10F1150F501E10FF11DFE
:100CD000005D922F990F892F880F880F890F081BAD
:100CE0000083211531054105510539F707C0F6018B
:100CF000E10FF11D808145DF1F5F04C06E01089484
:100D0000C11CD11C1A3098F32A96EAE00C942710E3
:100D1000EF92FF920F931F937B018C0197FF0AC004
:100D200010950095F094E094E11CF11C011D111D3B
:100D30008DE227DFC801B701AEDF1F910F91FF9051
:100D4000EF900895E5CF0895A5E0B0E0EAEAF6E077
:100D50000C941210182F80E8898380EC8A8384E930
:100D60008B8384ED8C83FE01E60FF11D8181810F61
:100D70006D8304DF1093CD026D816093CC022596C4
:100D8000E3E00C942E10E0CF0895A0E0B0E0EBEC8F
:100D9000F6E00C940D10D82E8091CA029091CB02EF
:100DA000009709F4F2C02D2D2A3009F442C02830F2
:100DB000C9F48091CD0281508093CD028F3F51F4D0
:100DC0008091CC0281508093CC0280910B018150A4
:100DD0008093CD028091CC028F3F09F0D1C0109258
:100DE000CC02CCC08D2DCDDE8091CC028823B9F011
:100DF00090E0019740910B0150E0849F9001859F06
:100E0000300D949F300D11248091CD02E091CA02E3
:100E1000F091CB02E20FF31FE80FF11DD082809119
:100E2000CD028F5F8093CD0290910B01891709F05D
:100E3000ACC04091CC02242F30E080910A0190E0B8
:100E400001972817390709F096C0C0E0D0E03FC0ED
:100E500080E06C2F79DFCC248E010F5F1F4F32C0F2
:100E6000EC2CFF2430E0C29FC001C39F900DD29FA5
:100E7000900D1124E091CA02F091CB02EE0DFF1DFE
:100E8000E80FF91F80817DDE8091CA029091CB022C
:100E900020910B0130E0C29FF001C39FF00DD29F63
:100EA000F00D11248E0D9F1DE80FF91F029FD00138
:100EB000039FB00D129FB00D1124A80FB91F8C9184
:100EC0008083C39420910B01C21650F2E801609117
:100ED0000A01862F90E00297C817D9070CF4B8CF03
:100EE0006230D0F1625080E02FDF00E010E230C0CD
:100EF000C02FD0E080910A0190E0029750E0849FDB
:100F00009001859F300D949F300D1124E091CA020D
:100F1000F091CB02EC0FFD1FE20FF31F808131DE59
:100F200080910A0190E0029740910B0150E0849F6C
:100F30009001859F300D949F300D1124E091CA02DD
:100F4000F091CB02EC0FFD1FE20FF31F10830F5F38
:100F500040910B01041760F260910A01615080E03A
:100F6000F3DE10E003C080E20CDE1F5F80910B0116
:100F70001817C8F303C04F5F4093CC021092CD0204
:100F80008091CD026091CC02DFDE2D2D332727FD2D
:100F90003095C901CDB7DEB7E8E00C9429108091F7
:100FA000CA029091CB02009711F00E940812209182
:100FB0000A0130E02150304080910B0190E0AC01FB
:100FC000249FC001259F900D349F900D11240E94F5
:100FD00070119093CB028093CA02009721F1A0E098
:100FE000B0E208C0E091CA02F091CB02E20FF31F19
:100FF000B083AF5F2A2F30E080910A0190E0019723
:1010000060910B0170E0869FA001879F500D969F15
:10101000500D1124241735072CF385EC96E06EE271
:1010200075E00C9497120895BACF0895FC011182CF
:10103000108213821282158214821682683068F43C
:1010400089E290E0918380838BE290E093838283B6
:101050008AE290E09583848323C0603180F483E248
:1010600090E09183808385E290E09383828384E2A1
:1010700090E09583848370E06850704011C06831BF
:10108000C0F486E290E09183808388E290E09383CD
:10109000828387E290E09583848370E060517040A2
:1010A00081E090E002C0880F991F6A95E2F786837D
:1010B00008956032C0F480E290E09183808382E200
:1010C00090E09383828381E290E0958384832FE193
:1010D00030E0261B310981E090E002C0880F991FA3
:1010E0002A95E2F786830895FC01A481B581868163
:1010F000662321F09C91982B9C9308959C91809558
:1011000089238C930895FC016F3F31F4A281B38150
:101110008C91968189270CC0A281B3818681662338
:1011200021F09C91982B9C9308959C918095892304
:101130008C930895A7E0B0E0EFE9F8E071C7282F9D
:10114000F62E8E010F5F1F4FC801622F6FDFC8019F
:101150006F2DD9DFC80161E0C7DF2796E5E07CC7C6
:1011600083E08093B00082E08093B100E4EBF0E094
:10117000108280818093B30087E160E0DBDF86E14D
:1011800060E0D8DF87E060E0D5DF86E060E0D2CFC6
:101190008091D302882321F481E08093D302E0CFB1
:1011A0000895CF93DF93EC01F3DFD7FF05C0D0950F
:1011B000C195DF4F91E001C090E0CF3FD10519F01C
:1011C00014F0CFEFD0E0C093B300209731F48091BA
:1011D000B0008F778093B0000DC08091B000806820
:1011E0008093B000992319F087E161E002C087E1A4
:1011F00060E0A0DFDF91CF910895CF93DF93EC0102
:10120000C7DFD7FF05C0D095C195DF4F91E001C082
:1012100090E0CF3FD10519F014F0CFEFD0E0C093AC
:10122000B400209731F48091B0008F7D8093B0009E
:101230000DC08091B00080628093B000992319F0B6
:1012400086E161E002C086E160E074DFDF91CF916A
:101250000895CF93DF93EB01A4DFCE01CEDFDF91C2
:10126000CF910895F6CF089587B1837D87B988B16E
:101270008C6288B985E090E06F9364E06A95F1F73D
:101280006F910197C9F708958091D402882321F4C2
:1012900081E08093D402E8CF0895A1E0B0E0E2E5D8
:1012A000F9E0C1C68983F0DF96B1909589818923E1
:1012B0002196E2E0D4C6F1CF0895282F30E0F9015D
:1012C000EE0FFF1F43E0220F331F4A95E1F7E20FB5
:1012D000F31FE45FFE4F82810895282F30E0F9016B
:1012E000EE0FFF1F73E0220F331F7A95E1F7E20F35
:1012F000F31FE45FFE4F4181282F30E0F901EE0F2C
:10130000FF1F53E0220F331F5A95E1F7E20FF31F3F
:10131000E45FFE4F81E09381491380E00895282F18
:1013200030E0F901EE0FFF1FB3E0220F331FBA9533
:10133000E1F7E20FF31FE45FFE4F40855185411551
:10134000510509F452C0282F30E0F901EE0FFF1FBC
:1013500073E0220F331F7A95E1F7E20FF31FE45F8A
:10136000FE4F7281282F30E0F901EE0FFF1FB3E02E
:10137000220F331FBA95E1F7E20FF31FE45FFE4F30
:101380009481791790F5282F30E0F901EE0FFF1FB7
:1013900073E0220F331F7A95E1F7E20FF31FE45F4A
:1013A000FE4F9281490F511DFA016083282F30E0D2
:1013B000F901EE0FFF1F53E0220F331F5A95E1F79B
:1013C000E20FF31FE45FFE4F92819F5F282F30E012
:1013D000F901EE0FFF1FB3E0220F331FBA95E1F7BB
:1013E000E20FF31FE45FFE4F9283282F30E0F901F4
:1013F000EE0FFF1F73E0220F331F7A95E1F7E20F24
:10140000F31FE45FFE4F4281282F30E0F901EE0F19
:10141000FF1F53E0220F331F5A95E1F7E20FF31F2E
:10142000E45FFE4F9481491701F5282F30E0F90160
:10143000EE0FFF1F93E0220F331F9A95E1F7E20FA3
:10144000F31FE45FFE4F9581992379F0282F30E058
:10145000F901EE0FFF1FB3E0220F331FBA95E1F73A
:10146000E20FF31FE45FFE4F128208950F931F9364
:10147000182F823009F474C0882319F4E1ECF0E0ED
:1014800002C0E9ECF0E080818F778083812F90E0CB
:10149000FC01EE0FFF1F03E0880F991F0A95E1F78B
:1014A000E80FF91FE45FFE4F808591850097A1F159
:1014B000212F30E0F901EE0FFF1FA3E0220F331FB1
:1014C000AA95E1F7E20FF31FE45FFE4F9281212F0F
:1014D00030E0F901EE0FFF1F63E0220F331F6A9522
:1014E000E1F7E20FF31FE45FFE4F84819817A0F449
:1014F000112319F4E0ECF0E002C0E8ECF0E08081A8
:1015000087FF0AC0112319F4E6ECF0E002C0EEEC0C
:10151000F0E06081812F03DF212F30E0F901EE0F31
:10152000FF1F43E0220F331F4A95E1F7E20FF31F3D
:10153000E45FFE4F8081882309F057C0112319F41E
:10154000E1ECF0E002C0E9ECF0E0808180688083AB
:101550004CC080912501882319F01092220145C0CA
:101560008091280190912901009709F43EC0909143
:101570002201809124019817C0F58091E10288230F
:1015800099F439D38093E10210E00AC031D3E02FFF
:10159000F0E03197E11BF109EE51FD4F80831F5FB1
:1015A0000091E102101790F3A091E102AA23E9F063
:1015B00080912201E0912801F0912901E80FF11DAD
:1015C000A150A093E102B0E0AE51BD4F8C91808359
:1015D000809122018F5F809322019091220180915E
:1015E0002401981709F0BCCFB4CF1F910F91089533
:1015F000823051F0882319F4E1ECF0E002C0E9EC0C
:10160000F0E090819F779083A82FB0E0FD01EE0F6E
:10161000FF1F53E0AA0FBB1F5A95E1F7EA0FFB1F0C
:10162000E45FFE4F71876087682F70E0FB01EE0F6B
:10163000FF1F93E0660F771F9A95E1F7E60FF71FFC
:10164000E45FFE4F1282682F70E0FB01EE0FFF1F78
:10165000A3E0660F771FAA95E1F7E60FF71FE45F97
:10166000FE4F4483482F50E0FA01EE0FFF1F63E066
:10167000440F551F6A95E1F7E40FF51FE45FFE4F35
:1016800025838230D9F0282F30E0F901EE0FFF1FBB
:1016900043E0220F331F4A95E1F7E20FF31FE45FA7
:1016A000FE4F9081992351F4882319F4E1ECF0E086
:1016B00002C0E9ECF0E0808180688083089521E039
:1016C00097CFFDCF08951F920F920FB60F920BB6D2
:1016D0000F9211242F933F934F935F936F937F93B8
:1016E0008F939F93AF93BF93EF93FF936091C60047
:1016F00080E015DEFF91EF91BF91AF919F918F91A7
:101700007F916F915F914F913F912F910F900BBE01
:101710000F900FBE0F901F9018951F920F920FB64B
:101720000F920BB60F9211242F933F934F935F9319
:101730006F937F938F939F93AF93BF93EF93FF9399
:101740006091CE0081E0EBDDFF91EF91BF91AF9111
:101750009F918F917F916F915F914F913F912F91C9
:101760000F900BBE0F900FBE0F901F9018958823FF
:1017700019F4E1ECF0E002C0E9ECF0E08081806275
:1017800080830895882319F4E1ECF0E002C0E9ECCD
:10179000F0E080818F7D80830895282F30E0F9016B
:1017A000EE0FFF1F93E0220F331F9A95E1F7E20F30
:1017B000F31FE45FFE4F268137812115310591F13A
:1017C000282F30E0F901EE0FFF1FA3E0220F331F97
:1017D000AA95E1F7E20FF31FE45FFE4F4181282F46
:1017E00030E0F901EE0FFF1F63E0220F331F6A950F
:1017F000E1F7E20FF31FE45FFE4F9381491790F486
:10180000282F30E0F901EE0FFF1F43E0220F331FB6
:101810004A95E1F7E20FF31FE45FFE4F90819923B1
:1018200009F4A5CFAFCF823029F1282F30E0F9019C
:10183000EE0FFF1F53E0220F331F5A95E1F7E20F1F
:10184000F31FE45FFE4F9081992349F4882319F434
:10185000E1ECF0E002C0E9ECF0E098E908C0882390
:1018600019F4E1ECF0E002C0E9ECF0E098E19083DB
:1018700094DF78940895882319F0813029F402C008
:1018800080E0D1CF81E0CFCF0895A0E0B0E0EAE4DE
:10189000FCE0C4C3D82E7A018B01EDDF8D2D8230A0
:1018A000F1F0DD2019F4C4ECD0E002C0CCECD0E0C3
:1018B000C801B70128EF3FEF4FEF5FEF4CD3605007
:1018C000734D8E4C9E4FA8019701E4E0220F331F09
:1018D000441F551FEA95D1F774D339832883CDB7B8
:1018E000DEB7E7E0B7C3D1CF0895282F30E0F90184
:1018F000EE0FFF1F73E0220F331F7A95E1F7E20F1F
:10190000F31FE45FFE4F468157814115510509F4ED
:1019100065C0282F30E0F901EE0FFF1F93E0220F82
:10192000331F9A95E1F7E20FF31FE45FFE4F6181E9
:10193000282F30E0F901EE0FFF1FA3E0220F331F25
:10194000AA95E1F7E20FF31FE45FFE4F9381691759
:1019500008F044C0882319F4E0ECF0E002C0E8ECA1
:10196000F0E0908195FF3AC0882319F4A6ECB0E02E
:1019700002C0AEECB0E0282F30E0F901EE0FFF1FFF
:1019800063E0220F331F6A95E1F7E20FF31FE45F74
:10199000FE4F9181490F511DFA0190819C93282F90
:1019A00030E0F901EE0FFF1F93E0220F331F9A95ED
:1019B000E1F7E20FF31FE45FFE4F91819F5F282F55
:1019C00030E0F901EE0FFF1FA3E0220F331FAA95AD
:1019D000E1F7E20FF31FE45FFE4F9183DECE1F932A
:1019E000182F823021F0CEDE812F7FDF1CC0809146
:1019F0002601909127010097B1F0309121012091AB
:101A00002301321780F406C0809121018F5F8093FB
:101A10002101EDCF20912101820F911DFC018081D8
:101A2000EED0882389F71F91089580E0D8DF81E008
:101A3000D6DF82E0D4DF80E019DD81E017DD82E0CF
:101A400015CDF3CF0895282F30E0F901EE0FFF1FD9
:101A500093E0220F331F9A95E1F7E20FF31FE45F43
:101A6000FE4F77836683282F30E0F901EE0FFF1FCA
:101A7000A3E0220F331FAA95E1F7E20FF31FE45F03
:101A8000FE4F1182282F30E0F901EE0FFF1F63E0B7
:101A9000220F331F6A95E1F7E20FF31FE45FFE4F59
:101AA0004383823009F079CE0895CDCF08951F92F7
:101AB0000F920FB60F920BB60F9211242F933F93F4
:101AC0004F935F936F937F938F939F93AF93BF9346
:101AD000EF93FF9380E009DFFF91EF91BF91AF910A
:101AE0009F918F917F916F915F914F913F912F9136
:101AF0000F900BBE0F900FBE0F901F9018951F9266
:101B00000F920FB60F920BB60F9211242F933F93A3
:101B10004F935F936F937F938F939F93AF93BF93F5
:101B2000EF93FF9381E0E1DEFF91EF91BF91AF91E1
:101B30009F918F917F916F915F914F913F912F91E5
:101B40000F900BBE0F900FBE0F901F9018956F93C4
:101B500064E06A95F1F76F910197C9F708952F92A4
:101B60008F939F932FB68091EB029091EC02019698
:101B70008093EB029093EC0290E08091ED02891F3C
:101B80008093ED029091F3029C5F9093F302809119
:101B9000F20280519742C0F09093F3028093F202D8
:101BA0008091EE029091EF0201968093EE02909365
:101BB000EF0290E08091F002891F8093F002809103
:101BC000F102891F8093F1022FBE9F918F912F9078
:101BD0001895CF93DF93EC0104C088EE93E0B7DF54
:101BE00021972097D1F7DF91CF910895F2CF0895F3
:101BF0008FEF64E08DC183E867E08AD1F9CF1F934E
:101C0000182F982F9095991F9927991F85E8891B60
:101C100065E07ED1812F8F7765E07AD11F9108959D
:101C2000A7E0B0E0E5E1FEE0FEC1682FCE0101963D
:101C3000FDD989819A818032910531F480916B00C0
:101C40009F81892B80936B0089819A8183329105D2
:101C500031F480916C009F81892B80936C00898185
:101C60009A818632910531F480916D009F81892B94
:101C700080936D0089819A818932910531F4809138
:101C800073009F81892B80937300ED81FE81908189
:101C90008F818095892380838FEF809368002796BA
:101CA000E2E0DDC1A7E0B0E0E7E5FEE0BCC1682FFF
:101CB000CE010196BBD9E981FA8190818F81892378
:101CC0002796E2E0CCC11F920F920FB60F920BB68F
:101CD0000F921124FF920F931F932F933F934F93D3
:101CE0005F936F937F938F939F93AF93BF93EF9384
:101CF000FF938091FB02D6DFF82E8091FD02D2DFA8
:101D0000182F8091FC02CEDF082F8091FE02CADFDF
:101D1000409100036091FF025091020390910103F2
:101D2000F41651F02091F9023091FA022F5F3F4FE3
:101D30003093FA022093F902061751F02091F9022C
:101D40003091FA02215030403093FA022093F90288
:101D5000151751F02091F7023091F8022F5F3F4F95
:101D60003093F8022093F702891751F02091F7027F
:101D70003091F802215030403093F8022093F7025E
:101D8000EF2DF0E0772767FD7095E617F70759F01C
:101D9000602F70E0552747FD50956417750719F0BF
:101DA00021E02093F602412F50E0292F332727FD11
:101DB00030954217530769F0482F50E020910203F5
:101DC000332727FD30954217530719F091E0909380
:101DD000F502F092FF020093000310930103809339
:101DE0000203FF91EF91BF91AF919F918F917F91EE
:101DF0006F915F914F913F912F911F910F91FF90A4
:101E00000F900BBE0F900FBE0F901F901895A3E080
:101E1000B0E0ECE0FFE007C18093FB026093FC02BE
:101E20004093FD022093FE02F8942B834A8369833A
:101E3000F7DE6981862FF4DE4A81842FF1DE2B8163
:101E4000822FEEDE1092FA021092F9021092F8023E
:101E50001092F7021092F6021092F5028091FB02A6
:101E600021DF8093FF028091FC021CDF809300033E
:101E70008091FD0217DF809301038091FE0212DF43
:101E8000809302038FEF8BBB78942396E2E0E7C048
:101E9000BECF0895F8948091F9029091FA02789457
:101EA0000895F8CF0895F8948091F7029091F80280
:101EB00078940895F8CF08956F9364E06A95F1F7E8
:101EC0006F910197C9F70895A1E0B0E0E9E6FFE05E
:101ED000A9C0182F249908C02C9906C02C9A8EE10D
:101EE00090E06983E9DF698184B1806A84B92698CA
:101EF000812F837080656C7A862B8CBD81E012FF08
:101F000080E08DBD81E090E064DE2196E3E0A6C034
:101F10000F931F93082F162F0CB406FC03C080E00C
:101F200064E0D2DF0CB404FC03C08CB580618CBDCE
:101F30000EBD03C00CB404FE0AC00DB407FEFACFF8
:101F4000112319F0812F90E0B7DF8EB501C080E03A
:101F50001F910F910895DB018F939F938BD0BF91B9
:101F6000AF91A29F800D911DA39F900DB29F900DE8
:101F700011240895AA1BBB1B51E107C0AA1FBB1F58
:101F8000A617B70710F0A61BB70B881F991F5A9505
:101F9000A9F780959095BC01CD01089597FB072E78
:101FA00016F4009406D077FD08D0E4DF07FC05D0D6
:101FB0003EF4909581959F4F0895709561957F4F60
:101FC0000895A1E21A2EAA1BBB1BFD010DC0AA1F7A
:101FD000BB1FEE1FFF1FA217B307E407F50720F092
:101FE000A21BB30BE40BF50B661F771F881F991F0D
:101FF0001A9469F760957095809590959B01AC0156
:10200000BD01CF0108952F923F924F925F926F9240
:102010007F928F929F92AF92BF92CF92DF92EF9278
:10202000FF920F931F93CF93DF93CDB7DEB7CA1BF9
:10203000DB0B0FB6F894DEBF0FBECDBF09942A8824
:10204000398848885F846E847D848C849B84AA84CC
:10205000B984C884DF80EE80FD800C811B81AA8159
:10206000B981CE0FD11D0FB6F894DEBF0FBECDBF24
:10207000ED01089509D0A59F900DB49F900DA49FE8
:10208000800D911D11240895A29FB001B39FC0013E
:10209000A39F700D811D1124911DB29F700D811D94
:1020A0001124911D089570D088F09F5790F0B92F9A
:1020B0009927B751A0F0D1F0660F771F881F991F9D
:1020C0001AF0BA95C9F712C0B13081F077D0B1E0FB
:1020D000089574C0672F782F8827B85F39F0B93F0B
:1020E000CCF3869577956795B395D9F73EF490959F
:1020F0008095709561957F4F8F4F9F4F0895E8941D
:1021000009C097FB3EF490958095709561957F4F3F
:102110008F4F9F4F9923A9F0F92F96E9BB279395ED
:10212000F695879577956795B795F111F8CFFAF4FD
:10213000BB0F11F460FF1BC06F5F7F4F8F4F9F4F2E
:1021400016C0882311F096E911C0772321F09EE88C
:10215000872F762F05C0662371F096E8862F70E0F2
:1021600060E02AF09A95660F771F881FDAF7880FCC
:102170009695879597F9089557FD9058440F551FE8
:1021800059F05F3F71F04795880F97FB991F61F0F9
:102190009F3F79F087950895121613061406551F70
:1021A000F2CF4695F1DF08C0161617061806991FDC
:1021B000F1CF86957105610508940895E894BB27D1
:1021C00066277727CB0197F908950BD078C069D09F
:1021D00028F06ED018F0952309F05AC05FC0112482
:1021E000EECFCADFA0F3959FD1F3950F50E0551FB6
:1021F000629FF001729FBB27F00DB11D639FAA275C
:10220000F00DB11DAA1F649F6627B00DA11D661FAA
:10221000829F2227B00DA11D621F739FB00DA11DCB
:10222000621F839FA00D611D221F749F3327A00D85
:10223000611D231F849F600D211D822F762F6A2F21
:1022400011249F5750408AF0E1F088234AF0EE0FA6
:10225000FF1FBB1F661F771F881F91505040A9F7B3
:102260009E3F510570F014C0AACF5F3FECF3983E3B
:10227000DCF3869577956795B795F795E7959F5F1A
:10228000C1F7FE2B880F911D9695879597F90895B4
:1022900097F99F6780E870E060E008959FEF80EC19
:1022A000089500240A9416161706180609060895BC
:1022B00000240A9412161306140605060895092E22
:1022C0000394000C11F4882352F0BB0F40F4BF2B91
:1022D00011F460FF04C06F5F7F4F8F4F9F4F0895D1
:1022E000CF93DF938230910510F482E090E0E0918B
:1022F0004A03F0914B0320E030E0A0E0B0E03097DB
:1023000039F14081518148175907B8F048175907EA
:1023100071F482819381109729F013969C938E9388
:1023200012972CC090934B0380934A0327C021152A
:10233000310531F04217530718F0A901DB0101C044
:10234000EF019A01BD01DF010280F381E02DD7CFBB
:1023500021153105F9F0281B390B2430310580F4A3
:102360008A819B816115710521F0FB019383828332
:1023700004C090934B0380934A03FE01329644C0FD
:10238000FE01E20FF31F81939193225031093983AB
:1023900028833AC02091480330914903232B41F40C
:1023A0002091340130913501309349032093480343
:1023B00020913201309133012115310541F42DB7BF
:1023C0003EB74091360150913701241B350BE09107
:1023D0004803F0914903E217F307A0F42E1B3F0BCB
:1023E0002817390778F0AC014E5F5F4F2417350787
:1023F00048F04E0F5F1F5093490340934803819369
:10240000919302C0E0E0F0E0CF01DF91CF91089519
:10241000CF93DF93009709F487C0FC0132971382B2
:102420001282C0914A03D0914B03209781F42081FE
:102430003181280F391F80914803909149038217F9
:10244000930779F5F0934903E09348036DC0DE01EB
:1024500020E030E0AE17BF0750F412964D915C912A
:1024600013979D014115510509F1DA01F3CFB383AB
:10247000A28340815181840F951F8A179B0771F4B5
:102480008D919C911197840F951F02969183808363
:1024900012968D919C911397938382832115310518
:1024A00029F4F0934B03E0934A033EC0D9011396FD
:1024B000FC93EE9312974D915D91A40FB51FEA170F
:1024C000FB0779F480819181840F951F0296D901D1
:1024D00011969C938E938281938113969C938E93F5
:1024E0001297E0E0F0E08A819B81009719F0FE01ED
:1024F000EC01F9CFCE01029628813981820F931F1A
:1025000020914803309149032817390769F430971F
:1025100029F410924B0310924A0302C013821282D4
:10252000D0934903C0934803DF91CF9108950F934F
:102530001F93CF93DF93EC018B01009731F461156A
:10254000710519F480E090E037C06EE070E081E042
:1025500090E06BD5FC010097A9F380E88383011517
:10256000110571F01387028781E8838380914C0302
:1025700090914D03892B21F4F0934D03E0934C038C
:102580002097C9F0D187C08783818260838380913F
:102590004E0390914F03892B71F4F0934F03E09316
:1025A0004E038091500390915103892B21F4F093B5
:1025B0005103E0935003CF01DF91CF911F910F9111
:1025C0000895CF93DF93CDB7DEB7FE0135966191C5
:1025D0007191AF0180914E0390914F037FD0DF91B5
:1025E000CF9108950F931F93CF93DF93E0914E0304
:1025F000F0914F03238121FF1BC0EC0100E010E0AC
:10260000899160914E0370914F03DB011896ED9113
:10261000FC911997882331F00995892B89F30FEFE5
:102620001FEFEECF8AE00995892B11F4C80102C093
:102630008FEF9FEFDF91CF911F910F9108950F932F
:102640001F93CF93DF93CDB7DEB72E970FB6F894D5
:10265000DEBF0FBECDBF0D891E8986E08C831A8335
:1026600009838FEF9FE79E838D83AE01475E5F4FA7
:102670006F89788DCE01019631D0EF81F885E00F1A
:10268000F11F10822E960FB6F894DEBF0FBECDBF9D
:10269000DF91CF911F910F910895CF93DF93CDB725
:1026A000DEB72E970FB6F894DEBF0FBECDBF85E024
:1026B0008C838B899C899A838983AE01495E5F4FA5
:1026C0006D897E89CE01019687D32E960FB6F89438
:1026D000DEBF0FBECDBFDF91CF9108952F923F9205
:1026E0004F925F926F927F928F929F92AF92BF9222
:1026F000CF92DF92EF92FF920F931F93CF93DF93CE
:10270000CDB7DEB72C970FB6F894DEBF0FBECDBFA6
:102710007C016B018A01FC0117821682838181FF93
:10272000B0C1CE0101964C01F7019381F60193FDF2
:10273000859193FF81916F01882309F49EC18532B1
:1027400039F493FD859193FF81916F01853221F4D6
:10275000B70190E0F2D4E8CF512C312C20E02032A8
:10276000A0F48B3269F030F4803259F0833269F48E
:1027700020612CC08D3239F0803339F4216026C0BD
:102780002260246023C0286021C027FD27C030EDCF
:10279000380F3A3078F426FF06C0FAE05F9E300D1D
:1027A0001124532E13C08AE0389E300D1124332E8D
:1027B00020620CC08E3221F426FD5FC1206406C069
:1027C0008C3611F4206802C0883641F4F60193FD7E
:1027D000859193FF81916F018111C1CF982F9F7DCA
:1027E0009554933028F40C5F1F4FFFE3F9830DC01D
:1027F000833631F0833771F0833509F057C021C03B
:10280000F801808189830E5F1F4F44244394512C2B
:10281000540114C03801F2E06F0E711CF801A08061
:10282000B18026FF03C0652D70E002C06FEF7FEF1F
:10283000C5012C8739D42C0183012C852F77222EBA
:1028400016C03801F2E06F0E711CF801A080B18053
:1028500026FF03C0652D70E002C06FEF7FEFC5015A
:102860002C8710D42C012C852068222E830123FC78
:1028700019C0832D90E048165906A0F4B70180E2F4
:1028800090E05BD43A94F5CFF50127FC859127FEC3
:1028900081915F01B70190E050D431103A94F1E09A
:1028A0004F1A51084114510479F7DEC0843611F0F3
:1028B000893631F5F80127FF07C060817181828177
:1028C00093810C5F1F4F08C060817181882777FD5D
:1028D0008095982F0E5F1F4F2F76B22E97FF09C05D
:1028E00090958095709561957F4F8F4F9F4F206891
:1028F000B22E2AE030E0A4016BD4A82EA81843C061
:10290000853729F42F7EB22E2AE030E025C0F22F41
:10291000F97FBF2E8F36C1F018F4883579F0ADC03D
:10292000803719F0883721F0A8C02F2F2061B22EF0
:10293000B4FE0DC08B2D8460B82E09C024FF0AC0E0
:102940009F2F9660B92E06C028E030E005C020E138
:1029500030E002C020E132E0F801B7FE07C060813C
:102960007181828193810C5F1F4F06C060817181EC
:1029700080E090E00E5F1F4FA4012AD4A82EA81873
:10298000FB2DFF77BF2EB6FE0BC02B2D2E7FA5147F
:1029900050F4B4FE0AC0B2FC08C02B2D2E7E05C038
:1029A0007A2C2B2D03C07A2C01C0752C24FF0DC06E
:1029B000FE01EA0DF11D8081803311F4297E09C0EA
:1029C00022FF06C07394739404C0822F867809F0A6
:1029D000739423FD12C020FF06C05A2C731418F400
:1029E000530C5718732C731460F4B70180E290E015
:1029F0002C87A3D373942C85F6CF731410F4371857
:102A000001C0312C24FF11C0B70180E390E02C8776
:102A100094D32C8522FF16C021FF03C088E590E0E7
:102A200002C088E790E0B7010CC0822F867851F091
:102A300021FD02C080E201C08BE227FD8DE2B701DB
:102A400090E07BD3A51430F4B70180E390E075D318
:102A50005A94F8CFAA94F401EA0DF11D8081B701D0
:102A600090E06BD3A110F6CF332009F45DCEB7010F
:102A700080E290E062D33A94F7CFF70186819781A4
:102A800002C08FEF9FEF2C960FB6F894DEBF0FBEFB
:102A9000CDBFDF91CF911F910F91FF90EF90DF900D
:102AA000CF90BF90AF909F908F907F906F905F90EE
:102AB0004F903F902F90089520FD09C0FC0123FD09
:102AC00005C022FF02C0738362835183408308954F
:102AD00044FD10C046FD10C0DB01FC01AA0FBB1F66
:102AE000EE1FFF1F1094D1F76A0F7B1F8E1F9F1FD1
:102AF00031E003C033E001C034E0660F771F881F68
:102B0000991F3150D1F7620F711D811D911D0895DC
:102B10000F931F93CF93DF938C01C801D0D2EC01A8
:102B200097FD06C09CD2892BC1F7B801CE0137D3DF
:102B3000CE01DF91CF911F910F9108958F929F92B7
:102B4000AF92CF92DF92EF92FF920F931F93CF93AA
:102B5000DF93EC01A62E4A01022FB1D2AC0155271A
:102B60004B32510521F04D32510549F40068AA94C9
:102B700011F480E060C0CE01A2D297FDFACF102FF1
:102B80001D7F302F3073F1F48033E1F4FF24FA9489
:102B9000FA0C09F43DC0CE0192D297FD39C0382F0E
:102BA0003F7D383549F41264AA94AA9489F1CE0184
:102BB00086D297FF07C02CC006FF02C0126001C07A
:102BC0001261AF2CC12CD12C760120ED280F2830BA
:102BD00078F014FF03C0BE01E2D217C02A3040F0E3
:102BE00016FFF9CF2F7D3FEE320F3630A0F727507A
:102BF000412FC701B6016CDF6B017C011260AA9402
:102C000051F0CE015CD297FFE0CF11FD04C0B1CFEF
:102C1000C12CD12C760117FF08C0F094E094D09419
:102C2000C094C11CD11CE11CF11C212FB701A601CD
:102C3000C40142DF81E0DF91CF911F910F91FF909E
:102C4000EF90DF90CF90AF909F908F9008957F92FC
:102C50008F929F92AF92BF92CF92DF92EF92FF92AC
:102C60000F931F93CF93DF93CDB7DEB7A1970FB626
:102C7000F894DEBF0FBECDBF5C017A018E010F5FFD
:102C80001F4F680180E2D8011D928A95E9F7F5018E
:102C9000738040E050E0812CB0E0912C81E090E026
:102CA000F90173FCA59173FEA1918F017A2F9F0109
:102CB000A11103C080E090E07BC0AE3519F441154E
:102CC000510559F1E92DF0E0E417F5073CF4AD3575
:102CD00069F1AD3219F4BB2319F103C0B11101C080
:102CE0008A2EE72FE695E695E69586010E0F111DD3
:102CF000F801A72FA7708C0102C0000F111FAA9521
:102D0000E2F7D801B081BA2BB083781559F0781565
:102D100010F47F5FE6CF7150E4CF9924939403C001
:102D2000B1E001C0B0E04F5F5F4FBACFBB2319F0F5
:102D30008E8180628E83911003C09924939415C074
:102D4000F601CE018196208120952193E817F9079D
:102D5000D1F7F3CFE114F10429F0D7018C93F701F7
:102D600031967F016150F1F0912CC50169A3A7D183
:102D700069A197FD15C0282F269526952695F60161
:102D8000E20FF11D208130E0AC014770552702C0F1
:102D9000359527954A95E2F720FDDCCFB501FFD1A7
:102DA000911088CFE114F10411F0D7011C92C801F1
:102DB000A1960FB6F894DEBF0FBECDBFDF91CF91C5
:102DC0001F910F91FF90EF90DF90CF90BF90AF9049
:102DD0009F908F907F9008954F925F927F928F92F5
:102DE0009F92AF92BF92CF92DF92EF92FF920F939A
:102DF0001F93CF93DF931F92CDB7DEB78C012B01CA
:102E00007A01FC0117821682A12CF801D380F2010D
:102E1000D3FC8591D3FE8191382F2F01882309F4AB
:102E2000EEC090E039831BD13981892B19F0C8019C
:102E30006FDEEBCF353241F4F201D3FC3591D3FE96
:102E400031912F01353259F4C801398338D1398194
:102E500097FDD3C03817C9F2B801A1D1D0C03A321A
:102E600041F4D3FC3591D3FE31912F01BB24B394AF
:102E700001C0B12C712C20ED230F2A3088F4FB2DDA
:102E8000F260BF2E672D70E080E090E040E220DE2F
:102E9000762EF201D3FC3591D3FE31912F01EBCF89
:102EA000B1FE03C0711003C0AAC077247A943836EB
:102EB00019F03C3661F014C0F201D3FC3591D3FE19
:102EC00031912F01383661F4FB2DF860BF2E8B2D28
:102ED0008460B82EF201D3FC3591D3FE31912F01DD
:102EE000332309F48CC0632F70E08CE890E03983C1
:102EF000BED03981892B09F482C0B0FC07C0F7012C
:102F0000C080D180C70102967C0102C0C12CD12CA7
:102F10003E3649F4F8014681578160E070E02B2D80
:102F2000C601CADD72CF333699F4B1FC02C07724F2
:102F30007394C801C4D097FD60C0C114D10429F0B6
:102F4000F6018083C60101966C017A9491F751C015
:102F50003B3551F49201A601672DC80178DE2C01A2
:102F6000009709F046C040C0C8013983D1DD3981DE
:102F700097FD43C03F3651F128F4343619F1393604
:102F800061F128C0333769F03537E1F023C0C1144F
:102F9000D10429F0F6018082C60101966C017A9471
:102FA00059F0C8018CD04C0197FD06C058D0892B30
:102FB00071F3B801C401F3D0C114D104D1F0F6010A
:102FC000108217C0FB2DF062BF2E07C08B2D8061D1
:102FD000B82E03C09B2D9064B92E2B2DA601672D12
:102FE000C801ACDD811105C0F8018381807329F42B
:102FF00006C0B0FC0ACFA39408CFAA2019F08A2DEE
:1030000090E002C08FEF9FEF0F90DF91CF911F9163
:103010000F91FF90EF90DF90CF90BF90AF909F9077
:103020008F907F905F904F9008950F931F93CF9351
:10303000DF93869F8001879F100D969F100D1124AE
:10304000C8014ED9EC01009721F0A80160E070E0C2
:1030500024D0CE01DF91CF911F910F91089591114E
:1030600015C1803219F089508550D0F70895FC01C0
:103070000590061621F00020D9F7C0010895319778
:10308000CF010895FC010590615070400110D8F700
:10309000809590958E0F9F1F0895DC0101C06D9360
:1030A00041505040E0F70895FC016150704001909C
:1030B0000110D8F7809590958E0F9F1F0895CF939C
:1030C000DF93EC012B8120FF33C026FF0AC02F7B4A
:1030D0002B838E819F8101969F838E838A8190E0CE
:1030E00029C022FF0FC0E881F9818081992787FDDF
:1030F0009095009719F420622B831AC03196F983BA
:10310000E8830EC0EA85FB85099597FF09C02B81EE
:10311000019611F480E101C080E2822B8B8308C00C
:103120002E813F812F5F3F4F3F832E83992702C01F
:103130008FEF9FEFDF91CF9108950F931F93CF9360
:10314000DF93182F092FEB018B8181FD03C08FEFD7
:103150009FEF20C082FF10C04E815F812C813D8196
:10316000421753077CF4E881F9819F012F5F3F4F9D
:1031700039832883108306C0E885F985812F099556
:10318000892B29F72E813F812F5F3F4F3F832E836D
:10319000812F902FDF91CF911F910F910895FB0107
:1031A000238120FF12C026FD10C08F3F3FEF930701
:1031B00061F082832F7D2064238326813781215013
:1031C000310937832683992708958FEF9FEF08955C
:1031D000FA01AA27283051F1203181F1E8946F9348
:1031E0006E7F6E5F7F4F8F4F9F4FAF4FB1E03ED0EE
:1031F000B4E03CD0670F781F891F9A1FA11D680F8C
:10320000791F8A1F911DA11D6A0F711D811D911DBE
:10321000A11D20D009F468943F912AE0269F112433
:103220003019305D3193DEF6CF010895462F477097
:10323000405D4193B3E00FD0C9F7F6CF462F4F70F2
:10324000405D4A3318F0495D31FD4052419302D050
:10325000A9F7EACFB4E0A6959795879577956795F6
:10326000BA95C9F700976105710508959B01AC01F6
:103270000A2E06945795479537952795BA95C9F71D
:10328000620F731F841F951FA01D0895992788271B
:063290000895F894FFCF41
:1032960001F401F401F40101010102100000000033
:1032A6000000000000000000000000000000000018
:1032B60001000000000000000000FFFFFFFFFFFF0D
:1032C600FFFF00005203200043616E6E6F7420748E
:1032D6006F67676C65206E65676174697665206DDA
:1032E600732E00436F6E76657274656420746F206A
:1032F600746F67676C6520706572696F643A202524
:10330600642E0A00477265656E2025642C202564AC
:103316000A005553422053657269616C20496E69F3
:103326007469616C697A65640D0A000D4D656E7588
:103336003A207B54505A7D207B524759417D203C90
:10334600696E743E3A2000256320256320256400BB
:10335600476F742025632025632025640A004F707B
:103366003A256320433A256320563A25640D0A0020
:1033760042616420436F6C6F722E20547279207BF9
:10338600524759417D0D0A005220746F67676C657C
:10339600733A20256C750D0A004720746F67676CB9
:1033A60065733A20256C750D0A005920746F67679E
:1033B6006C65733A20256C750D0A00546F67676C4F
:1033C600657320523A256C7520473A256C7520594D
:1033D6003A256C750D0A0044656661756C74206942
:1033E6006E207028636F6C6F72292E20486F773FAE
:1033F6000D0A0044656661756C7420696E207A2832
:10340600636F6C6F72292E20486F773F0D0A004359
:103416006F6D6D616E6420646F6573206E6F7420CE
:10342600636F6D707574652E0D0A0052583A202828
:02343600000094
:00000001FF
